{
  "contractName": "AdminManagement",
  "abi": [
    {
      "inputs": [
        {
          "internalType": "address",
          "name": "userManagementAddress",
          "type": "address"
        }
      ],
      "stateMutability": "nonpayable",
      "type": "constructor"
    },
    {
      "inputs": [],
      "name": "userManagement",
      "outputs": [
        {
          "internalType": "contract UserManagement",
          "name": "",
          "type": "address"
        }
      ],
      "stateMutability": "view",
      "type": "function",
      "constant": true
    },
    {
      "inputs": [
        {
          "internalType": "string",
          "name": "email",
          "type": "string"
        }
      ],
      "name": "getAdminProfile",
      "outputs": [
        {
          "components": [
            {
              "components": [
                {
                  "internalType": "string",
                  "name": "name",
                  "type": "string"
                },
                {
                  "internalType": "string",
                  "name": "email",
                  "type": "string"
                },
                {
                  "internalType": "enum UserManagement.Gender",
                  "name": "gender",
                  "type": "uint8"
                },
                {
                  "internalType": "string",
                  "name": "phone",
                  "type": "string"
                },
                {
                  "internalType": "enum UserManagement.UserType",
                  "name": "userType",
                  "type": "uint8"
                }
              ],
              "internalType": "struct UserManagement.User",
              "name": "User",
              "type": "tuple"
            }
          ],
          "internalType": "struct AdminManagement.AdminProfile",
          "name": "",
          "type": "tuple"
        }
      ],
      "stateMutability": "view",
      "type": "function",
      "constant": true
    }
  ],
  "bytecode": "0x608060405234801561001057600080fd5b50604051610b6e380380610b6e8339818101604052810190610032919061008d565b806000806101000a81548173ffffffffffffffffffffffffffffffffffffffff021916908373ffffffffffffffffffffffffffffffffffffffff160217905550506100ff565b600081519050610087816100e8565b92915050565b60006020828403121561009f57600080fd5b60006100ad84828501610078565b91505092915050565b60006100c1826100c8565b9050919050565b600073ffffffffffffffffffffffffffffffffffffffff82169050919050565b6100f1816100b6565b81146100fc57600080fd5b50565b610a608061010e6000396000f3fe608060405234801561001057600080fd5b50600436106100365760003560e01c8063288c0abb1461003b5780636a767f501461006b575b600080fd5b61005560048036038101906100509190610587565b610089565b60405161006291906107f3565b60405180910390f35b6100736102b8565b6040516100809190610796565b60405180910390f35b6100916102dc565b81600060028111156100cc577f4e487b7100000000000000000000000000000000000000000000000000000000600052602160045260246000fd5b60008054906101000a900473ffffffffffffffffffffffffffffffffffffffff1673ffffffffffffffffffffffffffffffffffffffff16637ba20a4d836040518263ffffffff1660e01b815260040161012591906107b1565b60206040518083038186803b15801561013d57600080fd5b505afa158015610151573d6000803e3d6000fd5b505050506040513d601f19601f82011682018060405250810190610175919061055e565b60028111156101ad577f4e487b7100000000000000000000000000000000000000000000000000000000600052602160045260246000fd5b146101ed576040517f08c379a00000000000000000000000000000000000000000000000000000000081526004016101e4906107d3565b60405180910390fd5b60008060009054906101000a900473ffffffffffffffffffffffffffffffffffffffff1673ffffffffffffffffffffffffffffffffffffffff166331feb671856040518263ffffffff1660e01b815260040161024991906107b1565b60006040518083038186803b15801561026157600080fd5b505afa158015610275573d6000803e3d6000fd5b505050506040513d6000823e3d601f19601f8201168201806040525081019061029e91906105c8565b905060405180602001604052808281525092505050919050565b60008054906101000a900473ffffffffffffffffffffffffffffffffffffffff1681565b60405180602001604052806102ef6102f5565b81525090565b6040518060a00160405280606081526020016060815260200160006002811115610348577f4e487b7100000000000000000000000000000000000000000000000000000000600052602160045260246000fd5b8152602001606081526020016000600281111561038e577f4e487b7100000000000000000000000000000000000000000000000000000000600052602160045260246000fd5b81525090565b60006103a76103a284610846565b610815565b9050828152602081018484840111156103bf57600080fd5b6103ca848285610931565b509392505050565b60006103e56103e084610846565b610815565b9050828152602081018484840111156103fd57600080fd5b610408848285610940565b509392505050565b60008151905061041f81610a0a565b92915050565b60008151905061043481610a1a565b92915050565b600082601f83011261044b57600080fd5b813561045b848260208601610394565b91505092915050565b600082601f83011261047557600080fd5b81516104858482602086016103d2565b91505092915050565b600060a082840312156104a057600080fd5b6104aa60a0610815565b9050600082015167ffffffffffffffff8111156104c657600080fd5b6104d284828501610464565b600083015250602082015167ffffffffffffffff8111156104f257600080fd5b6104fe84828501610464565b602083015250604061051284828501610410565b604083015250606082015167ffffffffffffffff81111561053257600080fd5b61053e84828501610464565b606083015250608061055284828501610425565b60808301525092915050565b60006020828403121561057057600080fd5b600061057e84828501610425565b91505092915050565b60006020828403121561059957600080fd5b600082013567ffffffffffffffff8111156105b357600080fd5b6105bf8482850161043a565b91505092915050565b6000602082840312156105da57600080fd5b600082015167ffffffffffffffff8111156105f457600080fd5b6106008482850161048e565b91505092915050565b610612816108e9565b82525050565b6106218161090d565b82525050565b6106308161091f565b82525050565b600061064182610876565b61064b8185610881565b935061065b818560208601610940565b610664816109d1565b840191505092915050565b600061067a82610876565b6106848185610892565b9350610694818560208601610940565b61069d816109d1565b840191505092915050565b60006106b5600c83610892565b91507f556e617574686f72697a656400000000000000000000000000000000000000006000830152602082019050919050565b600060208301600083015184820360008601526107058282610712565b9150508091505092915050565b600060a083016000830151848203600086015261072f8282610636565b915050602083015184820360208601526107498282610636565b915050604083015161075e6040860182610618565b50606083015184820360608601526107768282610636565b915050608083015161078b6080860182610627565b508091505092915050565b60006020820190506107ab6000830184610609565b92915050565b600060208201905081810360008301526107cb818461066f565b905092915050565b600060208201905081810360008301526107ec816106a8565b9050919050565b6000602082019050818103600083015261080d81846106e8565b905092915050565b6000604051905081810181811067ffffffffffffffff8211171561083c5761083b6109a2565b5b8060405250919050565b600067ffffffffffffffff821115610861576108606109a2565b5b601f19601f8301169050602081019050919050565b600081519050919050565b600082825260208201905092915050565b600082825260208201905092915050565b60008190506108b1826109e2565b919050565b60008190506108c4826109f6565b919050565b600073ffffffffffffffffffffffffffffffffffffffff82169050919050565b60006108f4826108fb565b9050919050565b6000610906826108c9565b9050919050565b6000610918826108a3565b9050919050565b600061092a826108b6565b9050919050565b82818337600083830152505050565b60005b8381101561095e578082015181840152602081019050610943565b8381111561096d576000848401525b50505050565b7f4e487b7100000000000000000000000000000000000000000000000000000000600052602160045260246000fd5b7f4e487b7100000000000000000000000000000000000000000000000000000000600052604160045260246000fd5b6000601f19601f8301169050919050565b600381106109f3576109f2610973565b5b50565b60038110610a0757610a06610973565b5b50565b60038110610a1757600080fd5b50565b60038110610a2757600080fd5b5056fea2646970667358221220fbc8233d93cf90f3ec4cbc4646b0afa499cd3913ee34ec2cc530dc5cb4b4838864736f6c63430008000033",
  "immutableReferences": {},
  "source": "// SPDX-License-Identifier: UNLICENSED\npragma solidity ^0.8.0;\n\nimport \"./UserManagement.sol\";\n\ncontract AdminManagement {\n    UserManagement public userManagement;\n    \n    struct AdminProfile {\n        UserManagement.User User;\n    }\n\n    constructor(address userManagementAddress) {\n        userManagement = UserManagement(userManagementAddress);\n    }\n\n    modifier isAdmin(string memory email) {\n        require(\n            userManagement.getUserType(email) == UserManagement.UserType.Admin,\n            \"Unauthorized\"\n        );\n        _;\n    }\n\n    function getAdminProfile(\n        string memory email\n    ) public isAdmin(email) view returns (AdminProfile memory) {\n        UserManagement.User memory user = userManagement.getUser(email);\n        return AdminProfile(user);\n    }\n\n}",
  "sourcePath": "/Users/hchauhan/Downloads/verified-hire FastAPI/contracts/AdminManagement.sol",
  "compiler": {
    "name": "solc",
    "version": "0.8.0+commit.c7dfd78e.Emscripten.clang"
  },
  "schemaVersion": "3.4.16",
  "updatedAt": "2024-06-03T20:18:50.745Z",
  "networkType": "ethereum",
  "devdoc": {
    "kind": "dev",
    "methods": {},
    "version": 1
  },
  "userdoc": {
    "kind": "user",
    "methods": {},
    "version": 1
  }
}