{
  "contractName": "DocumentsManagement",
  "abi": [
    {
      "inputs": [
        {
          "internalType": "address",
          "name": "userManagementAddress",
          "type": "address"
        }
      ],
      "stateMutability": "nonpayable",
      "type": "constructor"
    },
    {
      "inputs": [
        {
          "internalType": "string",
          "name": "",
          "type": "string"
        },
        {
          "internalType": "uint256",
          "name": "",
          "type": "uint256"
        }
      ],
      "name": "employeeDocumentHashes",
      "outputs": [
        {
          "internalType": "string",
          "name": "",
          "type": "string"
        }
      ],
      "stateMutability": "view",
      "type": "function",
      "constant": true
    },
    {
      "inputs": [
        {
          "internalType": "string",
          "name": "",
          "type": "string"
        },
        {
          "internalType": "string",
          "name": "",
          "type": "string"
        }
      ],
      "name": "employeeDocuments",
      "outputs": [
        {
          "internalType": "string",
          "name": "documentHash",
          "type": "string"
        },
        {
          "internalType": "enum DocumentsManagement.DocumentTypes",
          "name": "documentType",
          "type": "uint8"
        },
        {
          "internalType": "string",
          "name": "title",
          "type": "string"
        },
        {
          "internalType": "string",
          "name": "document_id",
          "type": "string"
        },
        {
          "internalType": "string",
          "name": "file_name",
          "type": "string"
        },
        {
          "internalType": "string",
          "name": "file_url",
          "type": "string"
        },
        {
          "internalType": "string",
          "name": "json_data",
          "type": "string"
        },
        {
          "internalType": "string",
          "name": "verified_by",
          "type": "string"
        },
        {
          "internalType": "bool",
          "name": "isVerified",
          "type": "bool"
        },
        {
          "internalType": "uint256",
          "name": "date",
          "type": "uint256"
        }
      ],
      "stateMutability": "view",
      "type": "function",
      "constant": true
    },
    {
      "inputs": [
        {
          "internalType": "string",
          "name": "email",
          "type": "string"
        },
        {
          "internalType": "enum DocumentsManagement.DocumentTypes",
          "name": "documentType",
          "type": "uint8"
        },
        {
          "internalType": "string",
          "name": "title",
          "type": "string"
        },
        {
          "internalType": "string",
          "name": "document_id",
          "type": "string"
        },
        {
          "internalType": "string",
          "name": "file_name",
          "type": "string"
        },
        {
          "internalType": "string",
          "name": "file_url",
          "type": "string"
        },
        {
          "internalType": "string",
          "name": "json_data",
          "type": "string"
        },
        {
          "internalType": "string",
          "name": "verified_by",
          "type": "string"
        },
        {
          "internalType": "uint256",
          "name": "date",
          "type": "uint256"
        }
      ],
      "name": "addDocument",
      "outputs": [],
      "stateMutability": "nonpayable",
      "type": "function"
    },
    {
      "inputs": [
        {
          "internalType": "string",
          "name": "email",
          "type": "string"
        },
        {
          "internalType": "string",
          "name": "documentHash",
          "type": "string"
        },
        {
          "internalType": "string",
          "name": "verified_by",
          "type": "string"
        }
      ],
      "name": "verifyDocument",
      "outputs": [],
      "stateMutability": "nonpayable",
      "type": "function"
    },
    {
      "inputs": [
        {
          "internalType": "string",
          "name": "email",
          "type": "string"
        },
        {
          "internalType": "string",
          "name": "documentHash",
          "type": "string"
        }
      ],
      "name": "getDocument",
      "outputs": [
        {
          "components": [
            {
              "internalType": "string",
              "name": "documentHash",
              "type": "string"
            },
            {
              "internalType": "enum DocumentsManagement.DocumentTypes",
              "name": "documentType",
              "type": "uint8"
            },
            {
              "internalType": "string",
              "name": "title",
              "type": "string"
            },
            {
              "internalType": "string",
              "name": "document_id",
              "type": "string"
            },
            {
              "internalType": "string",
              "name": "file_name",
              "type": "string"
            },
            {
              "internalType": "string",
              "name": "file_url",
              "type": "string"
            },
            {
              "internalType": "string",
              "name": "json_data",
              "type": "string"
            },
            {
              "internalType": "string",
              "name": "verified_by",
              "type": "string"
            },
            {
              "internalType": "bool",
              "name": "isVerified",
              "type": "bool"
            },
            {
              "internalType": "uint256",
              "name": "date",
              "type": "uint256"
            }
          ],
          "internalType": "struct DocumentsManagement.EmployeeDocument",
          "name": "",
          "type": "tuple"
        }
      ],
      "stateMutability": "view",
      "type": "function",
      "constant": true
    },
    {
      "inputs": [
        {
          "internalType": "string",
          "name": "email",
          "type": "string"
        }
      ],
      "name": "getDocumentHashes",
      "outputs": [
        {
          "internalType": "string[]",
          "name": "",
          "type": "string[]"
        }
      ],
      "stateMutability": "view",
      "type": "function",
      "constant": true
    },
    {
      "inputs": [
        {
          "internalType": "string",
          "name": "email",
          "type": "string"
        }
      ],
      "name": "getAllDocuments",
      "outputs": [
        {
          "components": [
            {
              "internalType": "string",
              "name": "documentHash",
              "type": "string"
            },
            {
              "internalType": "enum DocumentsManagement.DocumentTypes",
              "name": "documentType",
              "type": "uint8"
            },
            {
              "internalType": "string",
              "name": "title",
              "type": "string"
            },
            {
              "internalType": "string",
              "name": "document_id",
              "type": "string"
            },
            {
              "internalType": "string",
              "name": "file_name",
              "type": "string"
            },
            {
              "internalType": "string",
              "name": "file_url",
              "type": "string"
            },
            {
              "internalType": "string",
              "name": "json_data",
              "type": "string"
            },
            {
              "internalType": "string",
              "name": "verified_by",
              "type": "string"
            },
            {
              "internalType": "bool",
              "name": "isVerified",
              "type": "bool"
            },
            {
              "internalType": "uint256",
              "name": "date",
              "type": "uint256"
            }
          ],
          "internalType": "struct DocumentsManagement.EmployeeDocument[]",
          "name": "",
          "type": "tuple[]"
        }
      ],
      "stateMutability": "view",
      "type": "function",
      "constant": true
    }
  ],
  "bytecode": "0x60806040523480156200001157600080fd5b5060405162002d2738038062002d27833981810160405281019062000037919062000096565b80600260006101000a81548173ffffffffffffffffffffffffffffffffffffffff021916908373ffffffffffffffffffffffffffffffffffffffff1602179055505062000110565b6000815190506200009081620000f6565b92915050565b600060208284031215620000a957600080fd5b6000620000b9848285016200007f565b91505092915050565b6000620000cf82620000d6565b9050919050565b600073ffffffffffffffffffffffffffffffffffffffff82169050919050565b6200010181620000c2565b81146200010d57600080fd5b50565b612c0780620001206000396000f3fe608060405234801561001057600080fd5b506004361061007d5760003560e01c80635526e6e41161005b5780635526e6e41461010757806387680a4714610123578063d3bfe46414610153578063e283ee2d146101835761007d565b806328ce67cd1461008257806339b00ef8146100bb57806353ec8711146100d7575b600080fd5b61009c60048036038101906100979190611f3b565b6101b3565b6040516100b29a999897969594939291906126fc565b60405180910390f35b6100d560048036038101906100d09190611dcd565b610612565b005b6100f160048036038101906100ec9190611f3b565b610ab8565b6040516100fe9190612829565b60405180910390f35b610121600480360381019061011c9190611fa7565b610fb8565b005b61013d60048036038101906101389190611d8c565b6110f0565b60405161014a9190612696565b60405180910390f35b61016d6004803603810190610168919061203e565b6111e7565b60405161017a91906126da565b60405180910390f35b61019d60048036038101906101989190611d8c565b6112b6565b6040516101aa91906126b8565b60405180910390f35b600082805160208101820180518482526020830160208501208183528095505050505050818051602081018201805184825260208301602085012081835280955050505050506000915091505080600001805461020f906129f5565b80601f016020809104026020016040519081016040528092919081815260200182805461023b906129f5565b80156102885780601f1061025d57610100808354040283529160200191610288565b820191906000526020600020905b81548152906001019060200180831161026b57829003601f168201915b5050505050908060010160009054906101000a900460ff16908060020180546102b0906129f5565b80601f01602080910402602001604051908101604052809291908181526020018280546102dc906129f5565b80156103295780601f106102fe57610100808354040283529160200191610329565b820191906000526020600020905b81548152906001019060200180831161030c57829003601f168201915b50505050509080600301805461033e906129f5565b80601f016020809104026020016040519081016040528092919081815260200182805461036a906129f5565b80156103b75780601f1061038c576101008083540402835291602001916103b7565b820191906000526020600020905b81548152906001019060200180831161039a57829003601f168201915b5050505050908060040180546103cc906129f5565b80601f01602080910402602001604051908101604052809291908181526020018280546103f8906129f5565b80156104455780601f1061041a57610100808354040283529160200191610445565b820191906000526020600020905b81548152906001019060200180831161042857829003601f168201915b50505050509080600501805461045a906129f5565b80601f0160208091040260200160405190810160405280929190818152602001828054610486906129f5565b80156104d35780601f106104a8576101008083540402835291602001916104d3565b820191906000526020600020905b8154815290600101906020018083116104b657829003601f168201915b5050505050908060060180546104e8906129f5565b80601f0160208091040260200160405190810160405280929190818152602001828054610514906129f5565b80156105615780601f1061053657610100808354040283529160200191610561565b820191906000526020600020905b81548152906001019060200180831161054457829003601f168201915b505050505090806007018054610576906129f5565b80601f01602080910402602001604051908101604052809291908181526020018280546105a2906129f5565b80156105ef5780601f106105c4576101008083540402835291602001916105ef565b820191906000526020600020905b8154815290600101906020018083116105d257829003601f168201915b5050505050908060080160009054906101000a900460ff1690806009015490508a565b8860028081111561064c577f4e487b7100000000000000000000000000000000000000000000000000000000600052602160045260246000fd5b600260009054906101000a900473ffffffffffffffffffffffffffffffffffffffff1673ffffffffffffffffffffffffffffffffffffffff16637ba20a4d836040518263ffffffff1660e01b81526004016106a791906126da565b60206040518083038186803b1580156106bf57600080fd5b505afa1580156106d3573d6000803e3d6000fd5b505050506040513d601f19601f820116820180604052508101906106f79190611d63565b600281111561072f577f4e487b7100000000000000000000000000000000000000000000000000000000600052602160045260246000fd5b1461076f576040517f08c379a0000000000000000000000000000000000000000000000000000000008152600401610766906127c9565b60405180910390fd5b60008a8a8a8a8a8a8a60405160200161078e9796959493929190612616565b60405160208183030381529060405280519060200120905060006107b182611933565b90506000808d6040516107c491906125ff565b9081526020016040518091039020826040516107e091906125ff565b908152602001604051809103902060000180546107fc906129f5565b90501461083e576040517f08c379a0000000000000000000000000000000000000000000000000000000008152600401610835906127e9565b60405180910390fd5b60006040518061014001604052808381526020018d600281111561088b577f4e487b7100000000000000000000000000000000000000000000000000000000600052602160045260246000fd5b81526020018c81526020018b81526020018a81526020018981526020018881526020018781526020016000885111151581526020018681525090508060008e6040516108d791906125ff565b9081526020016040518091039020836040516108f391906125ff565b9081526020016040518091039020600082015181600001908051906020019061091d929190611b8c565b5060208201518160010160006101000a81548160ff0219169083600281111561096f577f4e487b7100000000000000000000000000000000000000000000000000000000600052602160045260246000fd5b02179055506040820151816002019080519060200190610990929190611b8c565b5060608201518160030190805190602001906109ad929190611b8c565b5060808201518160040190805190602001906109ca929190611b8c565b5060a08201518160050190805190602001906109e7929190611b8c565b5060c0820151816006019080519060200190610a04929190611b8c565b5060e0820151816007019080519060200190610a21929190611b8c565b506101008201518160080160006101000a81548160ff021916908315150217905550610120820151816009015590505060018d604051610a6191906125ff565b908152602001604051809103902082908060018154018082558091505060019003906000526020600020016000909190919091509080519060200190610aa8929190611b8c565b5050505050505050505050505050565b610ac0611c12565b600083604051610ad091906125ff565b908152602001604051809103902082604051610aec91906125ff565b908152602001604051809103902060405180610140016040529081600082018054610b16906129f5565b80601f0160208091040260200160405190810160405280929190818152602001828054610b42906129f5565b8015610b8f5780601f10610b6457610100808354040283529160200191610b8f565b820191906000526020600020905b815481529060010190602001808311610b7257829003601f168201915b505050505081526020016001820160009054906101000a900460ff166002811115610be3577f4e487b7100000000000000000000000000000000000000000000000000000000600052602160045260246000fd5b6002811115610c1b577f4e487b7100000000000000000000000000000000000000000000000000000000600052602160045260246000fd5b8152602001600282018054610c2f906129f5565b80601f0160208091040260200160405190810160405280929190818152602001828054610c5b906129f5565b8015610ca85780601f10610c7d57610100808354040283529160200191610ca8565b820191906000526020600020905b815481529060010190602001808311610c8b57829003601f168201915b50505050508152602001600382018054610cc1906129f5565b80601f0160208091040260200160405190810160405280929190818152602001828054610ced906129f5565b8015610d3a5780601f10610d0f57610100808354040283529160200191610d3a565b820191906000526020600020905b815481529060010190602001808311610d1d57829003601f168201915b50505050508152602001600482018054610d53906129f5565b80601f0160208091040260200160405190810160405280929190818152602001828054610d7f906129f5565b8015610dcc5780601f10610da157610100808354040283529160200191610dcc565b820191906000526020600020905b815481529060010190602001808311610daf57829003601f168201915b50505050508152602001600582018054610de5906129f5565b80601f0160208091040260200160405190810160405280929190818152602001828054610e11906129f5565b8015610e5e5780601f10610e3357610100808354040283529160200191610e5e565b820191906000526020600020905b815481529060010190602001808311610e4157829003601f168201915b50505050508152602001600682018054610e77906129f5565b80601f0160208091040260200160405190810160405280929190818152602001828054610ea3906129f5565b8015610ef05780601f10610ec557610100808354040283529160200191610ef0565b820191906000526020600020905b815481529060010190602001808311610ed357829003601f168201915b50505050508152602001600782018054610f09906129f5565b80601f0160208091040260200160405190810160405280929190818152602001828054610f35906129f5565b8015610f825780601f10610f5757610100808354040283529160200191610f82565b820191906000526020600020905b815481529060010190602001808311610f6557829003601f168201915b505050505081526020016008820160009054906101000a900460ff16151515158152602001600982015481525050905092915050565b60008084604051610fc991906125ff565b908152602001604051809103902083604051610fe591906125ff565b90815260200160405180910390206000018054611001906129f5565b905011611043576040517f08c379a000000000000000000000000000000000000000000000000000000000815260040161103a90612809565b60405180910390fd5b8060008460405161105491906125ff565b90815260200160405180910390208360405161107091906125ff565b90815260200160405180910390206007019080519060200190611094929190611b8c565b5060016000846040516110a791906125ff565b9081526020016040518091039020836040516110c391906125ff565b908152602001604051809103902060080160006101000a81548160ff021916908315150217905550505050565b606060018260405161110291906125ff565b9081526020016040518091039020805480602002602001604051908101604052809291908181526020016000905b828210156111dc57838290600052602060002001805461114f906129f5565b80601f016020809104026020016040519081016040528092919081815260200182805461117b906129f5565b80156111c85780601f1061119d576101008083540402835291602001916111c8565b820191906000526020600020905b8154815290600101906020018083116111ab57829003601f168201915b505050505081526020019060010190611130565b505050509050919050565b600182805160208101820180518482526020830160208501208183528095505050505050818154811061121957600080fd5b90600052602060002001600091509150508054611235906129f5565b80601f0160208091040260200160405190810160405280929190818152602001828054611261906129f5565b80156112ae5780601f10611283576101008083540402835291602001916112ae565b820191906000526020600020905b81548152906001019060200180831161129157829003601f168201915b505050505081565b606060006001836040516112ca91906125ff565b90815260200160405180910390208054905067ffffffffffffffff81111561131b577f4e487b7100000000000000000000000000000000000000000000000000000000600052604160045260246000fd5b60405190808252806020026020018201604052801561135457816020015b611341611c12565b8152602001906001900390816113395790505b50905060005b60018460405161136a91906125ff565b9081526020016040518091039020805490508110156119295760008460405161139391906125ff565b90815260200160405180910390206001856040516113b191906125ff565b908152602001604051809103902082815481106113f7577f4e487b7100000000000000000000000000000000000000000000000000000000600052603260045260246000fd5b9060005260206000200160405161140e919061267f565b908152602001604051809103902060405180610140016040529081600082018054611438906129f5565b80601f0160208091040260200160405190810160405280929190818152602001828054611464906129f5565b80156114b15780601f10611486576101008083540402835291602001916114b1565b820191906000526020600020905b81548152906001019060200180831161149457829003601f168201915b505050505081526020016001820160009054906101000a900460ff166002811115611505577f4e487b7100000000000000000000000000000000000000000000000000000000600052602160045260246000fd5b600281111561153d577f4e487b7100000000000000000000000000000000000000000000000000000000600052602160045260246000fd5b8152602001600282018054611551906129f5565b80601f016020809104026020016040519081016040528092919081815260200182805461157d906129f5565b80156115ca5780601f1061159f576101008083540402835291602001916115ca565b820191906000526020600020905b8154815290600101906020018083116115ad57829003601f168201915b505050505081526020016003820180546115e3906129f5565b80601f016020809104026020016040519081016040528092919081815260200182805461160f906129f5565b801561165c5780601f106116315761010080835404028352916020019161165c565b820191906000526020600020905b81548152906001019060200180831161163f57829003601f168201915b50505050508152602001600482018054611675906129f5565b80601f01602080910402602001604051908101604052809291908181526020018280546116a1906129f5565b80156116ee5780601f106116c3576101008083540402835291602001916116ee565b820191906000526020600020905b8154815290600101906020018083116116d157829003601f168201915b50505050508152602001600582018054611707906129f5565b80601f0160208091040260200160405190810160405280929190818152602001828054611733906129f5565b80156117805780601f1061175557610100808354040283529160200191611780565b820191906000526020600020905b81548152906001019060200180831161176357829003601f168201915b50505050508152602001600682018054611799906129f5565b80601f01602080910402602001604051908101604052809291908181526020018280546117c5906129f5565b80156118125780601f106117e757610100808354040283529160200191611812565b820191906000526020600020905b8154815290600101906020018083116117f557829003601f168201915b5050505050815260200160078201805461182b906129f5565b80601f0160208091040260200160405190810160405280929190818152602001828054611857906129f5565b80156118a45780601f10611879576101008083540402835291602001916118a4565b820191906000526020600020905b81548152906001019060200180831161188757829003601f168201915b505050505081526020016008820160009054906101000a900460ff1615151515815260200160098201548152505082828151811061190b577f4e487b7100000000000000000000000000000000000000000000000000000000600052603260045260246000fd5b6020026020010181905250808061192190612a27565b91505061135a565b5080915050919050565b606060005b60208160ff161080156119b05750600060f81b838260ff1660208110611987577f4e487b7100000000000000000000000000000000000000000000000000000000600052603260045260246000fd5b1a60f81b7effffffffffffffffffffffffffffffffffffffffffffffffffffffffffffff191614155b156119c85780806119c090612a70565b915050611938565b60008160ff1667ffffffffffffffff811115611a0d577f4e487b7100000000000000000000000000000000000000000000000000000000600052604160045260246000fd5b6040519080825280601f01601f191660200182016040528015611a3f5781602001600182028036833780820191505090505b509050600091505b60208260ff16108015611abf5750600060f81b848360ff1660208110611a96577f4e487b7100000000000000000000000000000000000000000000000000000000600052603260045260246000fd5b1a60f81b7effffffffffffffffffffffffffffffffffffffffffffffffffffffffffffff191614155b15611b8257838260ff1660208110611b00577f4e487b7100000000000000000000000000000000000000000000000000000000600052603260045260246000fd5b1a60f81b818360ff1681518110611b40577f4e487b7100000000000000000000000000000000000000000000000000000000600052603260045260246000fd5b60200101907effffffffffffffffffffffffffffffffffffffffffffffffffffffffffffff1916908160001a9053508180611b7a90612a70565b925050611a47565b8092505050919050565b828054611b98906129f5565b90600052602060002090601f016020900481019282611bba5760008555611c01565b82601f10611bd357805160ff1916838001178555611c01565b82800160010185558215611c01579182015b82811115611c00578251825591602001919060010190611be5565b5b509050611c0e9190611c9f565b5090565b6040518061014001604052806060815260200160006002811115611c5f577f4e487b7100000000000000000000000000000000000000000000000000000000600052602160045260246000fd5b8152602001606081526020016060815260200160608152602001606081526020016060815260200160608152602001600015158152602001600081525090565b5b80821115611cb8576000816000905550600101611ca0565b5090565b6000611ccf611cca8461287c565b61284b565b905082815260208101848484011115611ce757600080fd5b611cf28482856129b3565b509392505050565b600081359050611d0981612b9a565b92915050565b600081519050611d1e81612baa565b92915050565b600082601f830112611d3557600080fd5b8135611d45848260208601611cbc565b91505092915050565b600081359050611d5d81612bba565b92915050565b600060208284031215611d7557600080fd5b6000611d8384828501611d0f565b91505092915050565b600060208284031215611d9e57600080fd5b600082013567ffffffffffffffff811115611db857600080fd5b611dc484828501611d24565b91505092915050565b60008060008060008060008060006101208a8c031215611dec57600080fd5b60008a013567ffffffffffffffff811115611e0657600080fd5b611e128c828d01611d24565b9950506020611e238c828d01611cfa565b98505060408a013567ffffffffffffffff811115611e4057600080fd5b611e4c8c828d01611d24565b97505060608a013567ffffffffffffffff811115611e6957600080fd5b611e758c828d01611d24565b96505060808a013567ffffffffffffffff811115611e9257600080fd5b611e9e8c828d01611d24565b95505060a08a013567ffffffffffffffff811115611ebb57600080fd5b611ec78c828d01611d24565b94505060c08a013567ffffffffffffffff811115611ee457600080fd5b611ef08c828d01611d24565b93505060e08a013567ffffffffffffffff811115611f0d57600080fd5b611f198c828d01611d24565b925050610100611f2b8c828d01611d4e565b9150509295985092959850929598565b60008060408385031215611f4e57600080fd5b600083013567ffffffffffffffff811115611f6857600080fd5b611f7485828601611d24565b925050602083013567ffffffffffffffff811115611f9157600080fd5b611f9d85828601611d24565b9150509250929050565b600080600060608486031215611fbc57600080fd5b600084013567ffffffffffffffff811115611fd657600080fd5b611fe286828701611d24565b935050602084013567ffffffffffffffff811115611fff57600080fd5b61200b86828701611d24565b925050604084013567ffffffffffffffff81111561202857600080fd5b61203486828701611d24565b9150509250925092565b6000806040838503121561205157600080fd5b600083013567ffffffffffffffff81111561206b57600080fd5b61207785828601611d24565b925050602061208885828601611d4e565b9150509250929050565b600061209e83836121f7565b905092915050565b60006120b283836123d9565b905092915050565b60006120c5826128e1565b6120cf818561291c565b9350836020820285016120e1856128ac565b8060005b8581101561211d57848403895281516120fe8582612092565b945061210983612902565b925060208a019950506001810190506120e5565b50829750879550505050505092915050565b600061213a826128ec565b612144818561292d565b935083602082028501612156856128bc565b8060005b85811015612192578484038952815161217385826120a6565b945061217e8361290f565b925060208a0199505060018101905061215a565b50829750879550505050505092915050565b6121ad8161296b565b82525050565b6121bc8161296b565b82525050565b6121cb816129a1565b82525050565b6121da816129a1565b82525050565b6121f16121ec826129a1565b612a9a565b82525050565b6000612202826128f7565b61220c818561293e565b935061221c8185602086016129c2565b61222581612b68565b840191505092915050565b600061223b826128f7565b612245818561294f565b93506122558185602086016129c2565b61225e81612b68565b840191505092915050565b6000612274826128f7565b61227e8185612960565b935061228e8185602086016129c2565b80840191505092915050565b600081546122a7816129f5565b6122b18186612960565b945060018216600081146122cc57600181146122dd57612310565b60ff19831686528186019350612310565b6122e6856128cc565b60005b83811015612308578154818901526001820191506020810190506122e9565b838801955050505b50505092915050565b6000612326600c8361294f565b91507f556e617574686f72697a656400000000000000000000000000000000000000006000830152602082019050919050565b600061236660178361294f565b91507f446f63756d656e7420616c7265616479206578697374730000000000000000006000830152602082019050919050565b60006123a660178361294f565b91507f446f63756d656e7420646f6573206e6f742065786973740000000000000000006000830152602082019050919050565b60006101408301600083015184820360008601526123f782826121f7565b915050602083015161240c60208601826121c2565b506040830151848203604086015261242482826121f7565b9150506060830151848203606086015261243e82826121f7565b9150506080830151848203608086015261245882826121f7565b91505060a083015184820360a086015261247282826121f7565b91505060c083015184820360c086015261248c82826121f7565b91505060e083015184820360e08601526124a682826121f7565b9150506101008301516124bd6101008601826121a4565b506101208301516124d26101208601826125e1565b508091505092915050565b60006101408301600083015184820360008601526124fb82826121f7565b915050602083015161251060208601826121c2565b506040830151848203604086015261252882826121f7565b9150506060830151848203606086015261254282826121f7565b9150506080830151848203608086015261255c82826121f7565b91505060a083015184820360a086015261257682826121f7565b91505060c083015184820360c086015261259082826121f7565b91505060e083015184820360e08601526125aa82826121f7565b9150506101008301516125c16101008601826121a4565b506101208301516125d66101208601826125e1565b508091505092915050565b6125ea8161298a565b82525050565b6125f98161298a565b82525050565b600061260b8284612269565b915081905092915050565b6000612622828a612269565b915061262e82896121e0565b60018201915061263e8288612269565b915061264a8287612269565b91506126568286612269565b91506126628285612269565b915061266e8284612269565b915081905098975050505050505050565b600061268b828461229a565b915081905092915050565b600060208201905081810360008301526126b081846120ba565b905092915050565b600060208201905081810360008301526126d2818461212f565b905092915050565b600060208201905081810360008301526126f48184612230565b905092915050565b6000610140820190508181036000830152612717818d612230565b9050612726602083018c6121d1565b8181036040830152612738818b612230565b9050818103606083015261274c818a612230565b905081810360808301526127608189612230565b905081810360a08301526127748188612230565b905081810360c08301526127888187612230565b905081810360e083015261279c8186612230565b90506127ac6101008301856121b3565b6127ba6101208301846125f0565b9b9a5050505050505050505050565b600060208201905081810360008301526127e281612319565b9050919050565b6000602082019050818103600083015261280281612359565b9050919050565b6000602082019050818103600083015261282281612399565b9050919050565b6000602082019050818103600083015261284381846124dd565b905092915050565b6000604051905081810181811067ffffffffffffffff8211171561287257612871612b39565b5b8060405250919050565b600067ffffffffffffffff82111561289757612896612b39565b5b601f19601f8301169050602081019050919050565b6000819050602082019050919050565b6000819050602082019050919050565b60008190508160005260206000209050919050565b600081519050919050565b600081519050919050565b600081519050919050565b6000602082019050919050565b6000602082019050919050565b600082825260208201905092915050565b600082825260208201905092915050565b600082825260208201905092915050565b600082825260208201905092915050565b600081905092915050565b60008115159050919050565b600081905061298582612b86565b919050565b6000819050919050565b600060ff82169050919050565b60006129ac82612977565b9050919050565b82818337600083830152505050565b60005b838110156129e05780820151818401526020810190506129c5565b838111156129ef576000848401525b50505050565b60006002820490506001821680612a0d57607f821691505b60208210811415612a2157612a20612b0a565b5b50919050565b6000612a328261298a565b91507fffffffffffffffffffffffffffffffffffffffffffffffffffffffffffffffff821415612a6557612a64612aac565b5b600182019050919050565b6000612a7b82612994565b915060ff821415612a8f57612a8e612aac565b5b600182019050919050565b6000612aa582612b79565b9050919050565b7f4e487b7100000000000000000000000000000000000000000000000000000000600052601160045260246000fd5b7f4e487b7100000000000000000000000000000000000000000000000000000000600052602160045260246000fd5b7f4e487b7100000000000000000000000000000000000000000000000000000000600052602260045260246000fd5b7f4e487b7100000000000000000000000000000000000000000000000000000000600052604160045260246000fd5b6000601f19601f8301169050919050565b60008160f81b9050919050565b60038110612b9757612b96612adb565b5b50565b60038110612ba757600080fd5b50565b60038110612bb757600080fd5b50565b612bc38161298a565b8114612bce57600080fd5b5056fea26469706673582212201a6fb44d46abb28466301944167bcd462fb3e560f3536d7ea66ca1779409509764736f6c63430008000033",
  "immutableReferences": {},
  "source": "// SPDX-License-Identifier: UNLICENSED\npragma solidity ^0.8.0;\n\nimport \"./UserManagement.sol\";\n\ncontract DocumentsManagement {\n    enum DocumentTypes {\n        Education,\n        GovtID,\n        Files\n    }\n    struct EmployeeDocument {\n        string documentHash;\n        DocumentTypes documentType;\n        string title;\n        string document_id;\n        string file_name;\n        string file_url;\n        string json_data;\n        string verified_by;\n        bool isVerified;\n        uint256 date;\n    }\n\n    mapping(string => mapping(string => EmployeeDocument)) public employeeDocuments; // email => (hash => EmployeeDocument)\n    mapping(string => string[]) public employeeDocumentHashes; // email => [hashes]\n\n    UserManagement userManagement;\n\n    constructor(address userManagementAddress) {\n        userManagement = UserManagement(userManagementAddress);\n    }\n\n    modifier isEmployee(string memory email) {\n        require(\n            userManagement.getUserType(email) ==\n                UserManagement.UserType.Employee,\n            \"Unauthorized\"\n        );\n        _;\n    }\n\n   // Function to add a new document for an employee\n    function addDocument(\n        string memory email,\n        DocumentTypes documentType,\n        string memory title,\n        string memory document_id,\n        string memory file_name,\n        string memory file_url,\n        string memory json_data,\n        string memory verified_by,\n        uint256 date\n    ) public isEmployee(email){\n        // Generate the document hash\n        bytes32 documentHash = keccak256(abi.encodePacked(\n            email, documentType, title, document_id, file_name, file_url, json_data\n        ));\n\n        string memory documentHashStr = _bytes32ToString(documentHash);\n\n        // Ensure the document does not already exist\n        require(bytes(employeeDocuments[email][documentHashStr].documentHash).length == 0, \"Document already exists\");\n\n        // Create the new document\n        EmployeeDocument memory newDocument = EmployeeDocument({\n            documentHash: documentHashStr,\n            documentType: documentType,\n            title: title,\n            document_id: document_id,\n            file_name: file_name,\n            file_url: file_url,\n            json_data: json_data,\n            verified_by: verified_by,\n            isVerified: (bytes(verified_by).length > 0), // If verified_by is not empty, the document is verified\n            date: date\n        });\n\n        // Store the document\n        employeeDocuments[email][documentHashStr] = newDocument;\n        employeeDocumentHashes[email].push(documentHashStr);\n    }\n\n    function verifyDocument(string memory email, string memory documentHash, string memory verified_by) public {\n        // Ensure the document exists\n        require(bytes(employeeDocuments[email][documentHash].documentHash).length > 0, \"Document does not exist\");\n\n        // Update the document\n        employeeDocuments[email][documentHash].verified_by = verified_by;\n        employeeDocuments[email][documentHash].isVerified = true;\n    }\n\n    // Function to get a document by email and hash\n    function getDocument(string memory email, string memory documentHash) public view returns (EmployeeDocument memory) {\n        return employeeDocuments[email][documentHash];\n    }\n\n    // Function to get all document hashes for an employee\n    function getDocumentHashes(string memory email) public view returns (string[] memory) {\n        return employeeDocumentHashes[email];\n    }\n\n    function getAllDocuments(string memory email) public view returns (EmployeeDocument[] memory){\n        EmployeeDocument[] memory documents = new EmployeeDocument[](employeeDocumentHashes[email].length);\n        for(uint i = 0; i < employeeDocumentHashes[email].length; i++){\n            documents[i] = employeeDocuments[email][employeeDocumentHashes[email][i]];\n        }\n        return documents;\n    }\n\n    // Helper function to convert bytes32 to string\n    function _bytes32ToString(bytes32 _bytes32) private pure returns (string memory) {\n        uint8 i = 0;\n        while(i < 32 && _bytes32[i] != 0) {\n            i++;\n        }\n        bytes memory bytesArray = new bytes(i);\n        for (i = 0; i < 32 && _bytes32[i] != 0; i++) {\n            bytesArray[i] = _bytes32[i];\n        }\n        return string(bytesArray);\n    }\n}",
  "sourcePath": "/Users/hchauhan/Downloads/verified-hire FastAPI/contracts/DocumentsManagement.sol",
  "compiler": {
    "name": "solc",
    "version": "0.8.0+commit.c7dfd78e.Emscripten.clang"
  },
  "schemaVersion": "3.4.16",
  "updatedAt": "2024-06-03T20:18:50.689Z",
  "networkType": "ethereum",
  "devdoc": {
    "kind": "dev",
    "methods": {},
    "version": 1
  },
  "userdoc": {
    "kind": "user",
    "methods": {},
    "version": 1
  }
}