{
  "contractName": "EmploymentManagement",
  "abi": [
    {
      "inputs": [
        {
          "internalType": "address",
          "name": "userManagementAddress",
          "type": "address"
        }
      ],
      "stateMutability": "nonpayable",
      "type": "constructor"
    },
    {
      "anonymous": false,
      "inputs": [
        {
          "indexed": false,
          "internalType": "string",
          "name": "email",
          "type": "string"
        },
        {
          "indexed": false,
          "internalType": "string",
          "name": "organization",
          "type": "string"
        },
        {
          "indexed": false,
          "internalType": "string",
          "name": "position",
          "type": "string"
        },
        {
          "indexed": false,
          "internalType": "enum EmploymentManagement.Employment_Status",
          "name": "status",
          "type": "uint8"
        },
        {
          "indexed": false,
          "internalType": "uint256",
          "name": "date",
          "type": "uint256"
        }
      ],
      "name": "EmploymentEvent",
      "type": "event"
    },
    {
      "inputs": [
        {
          "internalType": "string",
          "name": "",
          "type": "string"
        }
      ],
      "name": "currentEmployment",
      "outputs": [
        {
          "internalType": "string",
          "name": "organization",
          "type": "string"
        },
        {
          "internalType": "uint256",
          "name": "startDate",
          "type": "uint256"
        },
        {
          "internalType": "uint256",
          "name": "endDate",
          "type": "uint256"
        },
        {
          "internalType": "string",
          "name": "position",
          "type": "string"
        },
        {
          "internalType": "bool",
          "name": "active",
          "type": "bool"
        }
      ],
      "stateMutability": "view",
      "type": "function",
      "constant": true
    },
    {
      "inputs": [
        {
          "internalType": "string",
          "name": "",
          "type": "string"
        },
        {
          "internalType": "uint256",
          "name": "",
          "type": "uint256"
        }
      ],
      "name": "employmentHistories",
      "outputs": [
        {
          "internalType": "string",
          "name": "organization",
          "type": "string"
        },
        {
          "internalType": "uint256",
          "name": "actdate",
          "type": "uint256"
        },
        {
          "internalType": "string",
          "name": "position",
          "type": "string"
        },
        {
          "internalType": "enum EmploymentManagement.Employment_Status",
          "name": "status",
          "type": "uint8"
        },
        {
          "internalType": "string",
          "name": "comments",
          "type": "string"
        },
        {
          "internalType": "bool",
          "name": "isVerified",
          "type": "bool"
        }
      ],
      "stateMutability": "view",
      "type": "function",
      "constant": true
    },
    {
      "inputs": [
        {
          "internalType": "string",
          "name": "email",
          "type": "string"
        },
        {
          "internalType": "string",
          "name": "organization",
          "type": "string"
        },
        {
          "internalType": "string",
          "name": "position",
          "type": "string"
        },
        {
          "internalType": "uint256",
          "name": "startDate",
          "type": "uint256"
        },
        {
          "internalType": "string",
          "name": "comments",
          "type": "string"
        },
        {
          "internalType": "bool",
          "name": "isVerified",
          "type": "bool"
        }
      ],
      "name": "joinCompany",
      "outputs": [],
      "stateMutability": "nonpayable",
      "type": "function"
    },
    {
      "inputs": [
        {
          "internalType": "string",
          "name": "email",
          "type": "string"
        },
        {
          "internalType": "string",
          "name": "organization",
          "type": "string"
        },
        {
          "internalType": "string",
          "name": "newPosition",
          "type": "string"
        },
        {
          "internalType": "uint256",
          "name": "date",
          "type": "uint256"
        },
        {
          "internalType": "string",
          "name": "comments",
          "type": "string"
        },
        {
          "internalType": "bool",
          "name": "isVerified",
          "type": "bool"
        }
      ],
      "name": "promoteEmployee",
      "outputs": [],
      "stateMutability": "nonpayable",
      "type": "function"
    },
    {
      "inputs": [
        {
          "internalType": "string",
          "name": "email",
          "type": "string"
        },
        {
          "internalType": "string",
          "name": "organization",
          "type": "string"
        },
        {
          "internalType": "uint256",
          "name": "date",
          "type": "uint256"
        },
        {
          "internalType": "enum EmploymentManagement.Employment_Status",
          "name": "status",
          "type": "uint8"
        },
        {
          "internalType": "string",
          "name": "comments",
          "type": "string"
        },
        {
          "internalType": "bool",
          "name": "isVerified",
          "type": "bool"
        }
      ],
      "name": "endEmployment",
      "outputs": [],
      "stateMutability": "nonpayable",
      "type": "function"
    },
    {
      "inputs": [
        {
          "internalType": "string",
          "name": "email",
          "type": "string"
        }
      ],
      "name": "getCurrentEmployment",
      "outputs": [
        {
          "components": [
            {
              "internalType": "string",
              "name": "organization",
              "type": "string"
            },
            {
              "internalType": "uint256",
              "name": "startDate",
              "type": "uint256"
            },
            {
              "internalType": "uint256",
              "name": "endDate",
              "type": "uint256"
            },
            {
              "internalType": "string",
              "name": "position",
              "type": "string"
            },
            {
              "internalType": "bool",
              "name": "active",
              "type": "bool"
            }
          ],
          "internalType": "struct EmploymentManagement.EmploymentDetails",
          "name": "",
          "type": "tuple"
        }
      ],
      "stateMutability": "view",
      "type": "function",
      "constant": true
    },
    {
      "inputs": [
        {
          "internalType": "string",
          "name": "email",
          "type": "string"
        }
      ],
      "name": "getEmploymentHistory",
      "outputs": [
        {
          "components": [
            {
              "internalType": "string",
              "name": "organization",
              "type": "string"
            },
            {
              "internalType": "uint256",
              "name": "actdate",
              "type": "uint256"
            },
            {
              "internalType": "string",
              "name": "position",
              "type": "string"
            },
            {
              "internalType": "enum EmploymentManagement.Employment_Status",
              "name": "status",
              "type": "uint8"
            },
            {
              "internalType": "string",
              "name": "comments",
              "type": "string"
            },
            {
              "internalType": "bool",
              "name": "isVerified",
              "type": "bool"
            }
          ],
          "internalType": "struct EmploymentManagement.EmploymentHistory[]",
          "name": "",
          "type": "tuple[]"
        }
      ],
      "stateMutability": "view",
      "type": "function",
      "constant": true
    }
  ],
  "bytecode": "0x60806040523480156200001157600080fd5b50604051620023ae380380620023ae833981810160405281019062000037919062000096565b80600260006101000a81548173ffffffffffffffffffffffffffffffffffffffff021916908373ffffffffffffffffffffffffffffffffffffffff1602179055505062000110565b6000815190506200009081620000f6565b92915050565b600060208284031215620000a957600080fd5b6000620000b9848285016200007f565b91505092915050565b6000620000cf82620000d6565b9050919050565b600073ffffffffffffffffffffffffffffffffffffffff82169050919050565b6200010181620000c2565b81146200010d57600080fd5b50565b61228e80620001206000396000f3fe608060405234801561001057600080fd5b506004361061007d5760003560e01c80638a0395981161005b5780638a039598146100ea578063bf3696e71461011f578063dbb0d8dc1461013b578063e6d360831461016b5761007d565b806328e886cf14610082578063306f14d71461009e5780633e35cd25146100ce575b600080fd5b61009c60048036038101906100979190611897565b61019f565b005b6100b860048036038101906100b3919061176d565b61064a565b6040516100c59190611d2d565b60405180910390f35b6100e860048036038101906100e391906117ae565b610929565b005b61010460048036038101906100ff9190611968565b610d11565b60405161011696959493929190611ea9565b60405180910390f35b610139600480360381019061013491906117ae565b610f32565b005b6101556004803603810190610150919061176d565b6112c0565b6040516101629190611fa0565b60405180910390f35b6101856004803603810190610180919061176d565b61144b565b604051610196959493929190611f1f565b60405180910390f35b856002808111156101d9577f4e487b7100000000000000000000000000000000000000000000000000000000600052602160045260246000fd5b600260009054906101000a900473ffffffffffffffffffffffffffffffffffffffff1673ffffffffffffffffffffffffffffffffffffffff16637ba20a4d836040518263ffffffff1660e01b81526004016102349190611d4f565b60206040518083038186803b15801561024c57600080fd5b505afa158015610260573d6000803e3d6000fd5b505050506040513d601f19601f820116820180604052508101906102849190611744565b60028111156102bc577f4e487b7100000000000000000000000000000000000000000000000000000000600052602160045260246000fd5b146102fc576040517f08c379a00000000000000000000000000000000000000000000000000000000081526004016102f390611f80565b60405180910390fd5b6000808860405161030d9190611d16565b90815260200160405180910390209050868160000190805190602001906103359291906115b4565b5085816002018190555060008160040160006101000a81548160ff02191690831515021790555060018860405161036c9190611d16565b90815260200160405180910390206040518060c0016040528083600001805461039490612126565b80601f01602080910402602001604051908101604052809291908181526020018280546103c090612126565b801561040d5780601f106103e25761010080835404028352916020019161040d565b820191906000526020600020905b8154815290600101906020018083116103f057829003601f168201915b5050505050815260200188815260200183600301805461042c90612126565b80601f016020809104026020016040519081016040528092919081815260200182805461045890612126565b80156104a55780601f1061047a576101008083540402835291602001916104a5565b820191906000526020600020905b81548152906001019060200180831161048857829003601f168201915b505050505081526020018760038111156104e8577f4e487b7100000000000000000000000000000000000000000000000000000000600052602160045260246000fd5b81526020018681526020018515158152509080600181540180825580915050600190039060005260206000209060060201600090919091909150600082015181600001908051906020019061053e9291906115b4565b506020820151816001015560408201518160020190805190602001906105659291906115b4565b5060608201518160030160006101000a81548160ff021916908360038111156105b7577f4e487b7100000000000000000000000000000000000000000000000000000000600052602160045260246000fd5b021790555060808201518160040190805190602001906105d89291906115b4565b5060a08201518160050160006101000a81548160ff02191690831515021790555050507f070f77abdd000e93da15ce8e6083fa4f0520f86994d244a8aac1feacf5244ed2888260000183600301888a604051610638959493929190611e41565b60405180910390a15050505050505050565b606060018260405161065c9190611d16565b9081526020016040518091039020805480602002602001604051908101604052809291908181526020016000905b8282101561091e57838290600052602060002090600602016040518060c00160405290816000820180546106bd90612126565b80601f01602080910402602001604051908101604052809291908181526020018280546106e990612126565b80156107365780601f1061070b57610100808354040283529160200191610736565b820191906000526020600020905b81548152906001019060200180831161071957829003601f168201915b505050505081526020016001820154815260200160028201805461075990612126565b80601f016020809104026020016040519081016040528092919081815260200182805461078590612126565b80156107d25780601f106107a7576101008083540402835291602001916107d2565b820191906000526020600020905b8154815290600101906020018083116107b557829003601f168201915b505050505081526020016003820160009054906101000a900460ff166003811115610826577f4e487b7100000000000000000000000000000000000000000000000000000000600052602160045260246000fd5b600381111561085e577f4e487b7100000000000000000000000000000000000000000000000000000000600052602160045260246000fd5b815260200160048201805461087290612126565b80601f016020809104026020016040519081016040528092919081815260200182805461089e90612126565b80156108eb5780601f106108c0576101008083540402835291602001916108eb565b820191906000526020600020905b8154815290600101906020018083116108ce57829003601f168201915b505050505081526020016005820160009054906101000a900460ff1615151515815250508152602001906001019061068a565b505050509050919050565b85600280811115610963577f4e487b7100000000000000000000000000000000000000000000000000000000600052602160045260246000fd5b600260009054906101000a900473ffffffffffffffffffffffffffffffffffffffff1673ffffffffffffffffffffffffffffffffffffffff16637ba20a4d836040518263ffffffff1660e01b81526004016109be9190611d4f565b60206040518083038186803b1580156109d657600080fd5b505afa1580156109ea573d6000803e3d6000fd5b505050506040513d601f19601f82011682018060405250810190610a0e9190611744565b6002811115610a46577f4e487b7100000000000000000000000000000000000000000000000000000000600052602160045260246000fd5b14610a86576040517f08c379a0000000000000000000000000000000000000000000000000000000008152600401610a7d90611f80565b60405180910390fd5b6040518060a001604052808781526020018581526020016000815260200186815260200160011515815250600088604051610ac19190611d16565b90815260200160405180910390206000820151816000019080519060200190610aeb9291906115b4565b5060208201518160010155604082015181600201556060820151816003019080519060200190610b1c9291906115b4565b5060808201518160040160006101000a81548160ff021916908315150217905550905050600187604051610b509190611d16565b90815260200160405180910390206040518060c0016040528088815260200186815260200187815260200160006003811115610bb5577f4e487b7100000000000000000000000000000000000000000000000000000000600052602160045260246000fd5b815260200185815260200184151581525090806001815401808255809150506001900390600052602060002090600602016000909190919091506000820151816000019080519060200190610c0b9291906115b4565b50602082015181600101556040820151816002019080519060200190610c329291906115b4565b5060608201518160030160006101000a81548160ff02191690836003811115610c84577f4e487b7100000000000000000000000000000000000000000000000000000000600052602160045260246000fd5b02179055506080820151816004019080519060200190610ca59291906115b4565b5060a08201518160050160006101000a81548160ff02191690831515021790555050507f070f77abdd000e93da15ce8e6083fa4f0520f86994d244a8aac1feacf5244ed2878787600088604051610d00959493929190611d71565b60405180910390a150505050505050565b6001828051602081018201805184825260208301602085012081835280955050505050508181548110610d4357600080fd5b906000526020600020906006020160009150915050806000018054610d6790612126565b80601f0160208091040260200160405190810160405280929190818152602001828054610d9390612126565b8015610de05780601f10610db557610100808354040283529160200191610de0565b820191906000526020600020905b815481529060010190602001808311610dc357829003601f168201915b505050505090806001015490806002018054610dfb90612126565b80601f0160208091040260200160405190810160405280929190818152602001828054610e2790612126565b8015610e745780601f10610e4957610100808354040283529160200191610e74565b820191906000526020600020905b815481529060010190602001808311610e5757829003601f168201915b5050505050908060030160009054906101000a900460ff1690806004018054610e9c90612126565b80601f0160208091040260200160405190810160405280929190818152602001828054610ec890612126565b8015610f155780601f10610eea57610100808354040283529160200191610f15565b820191906000526020600020905b815481529060010190602001808311610ef857829003601f168201915b5050505050908060050160009054906101000a900460ff16905086565b85600280811115610f6c577f4e487b7100000000000000000000000000000000000000000000000000000000600052602160045260246000fd5b600260009054906101000a900473ffffffffffffffffffffffffffffffffffffffff1673ffffffffffffffffffffffffffffffffffffffff16637ba20a4d836040518263ffffffff1660e01b8152600401610fc79190611d4f565b60206040518083038186803b158015610fdf57600080fd5b505afa158015610ff3573d6000803e3d6000fd5b505050506040513d601f19601f820116820180604052508101906110179190611744565b600281111561104f577f4e487b7100000000000000000000000000000000000000000000000000000000600052602160045260246000fd5b1461108f576040517f08c379a000000000000000000000000000000000000000000000000000000000815260040161108690611f80565b60405180910390fd5b600080886040516110a09190611d16565b908152602001604051809103902090506001886040516110c09190611d16565b90815260200160405180910390206040518060c0016040528089815260200187815260200188815260200160016003811115611125577f4e487b7100000000000000000000000000000000000000000000000000000000600052602160045260246000fd5b81526020018681526020018515158152509080600181540180825580915050600190039060005260206000209060060201600090919091909150600082015181600001908051906020019061117b9291906115b4565b506020820151816001015560408201518160020190805190602001906111a29291906115b4565b5060608201518160030160006101000a81548160ff021916908360038111156111f4577f4e487b7100000000000000000000000000000000000000000000000000000000600052602160045260246000fd5b021790555060808201518160040190805190602001906112159291906115b4565b5060a08201518160050160006101000a81548160ff0219169083151502179055505050868160000190805190602001906112509291906115b4565b50858160030190805190602001906112699291906115b4565b508481600101819055507f070f77abdd000e93da15ce8e6083fa4f0520f86994d244a8aac1feacf5244ed28882600001886001896040516112ae959493929190611dd9565b60405180910390a15050505050505050565b6112c861163a565b6000826040516112d89190611d16565b90815260200160405180910390206040518060a001604052908160008201805461130190612126565b80601f016020809104026020016040519081016040528092919081815260200182805461132d90612126565b801561137a5780601f1061134f5761010080835404028352916020019161137a565b820191906000526020600020905b81548152906001019060200180831161135d57829003601f168201915b5050505050815260200160018201548152602001600282015481526020016003820180546113a790612126565b80601f01602080910402602001604051908101604052809291908181526020018280546113d390612126565b80156114205780601f106113f557610100808354040283529160200191611420565b820191906000526020600020905b81548152906001019060200180831161140357829003601f168201915b505050505081526020016004820160009054906101000a900460ff1615151515815250509050919050565b60008180516020810182018051848252602083016020850120818352809550505050505060009150905080600001805461148490612126565b80601f01602080910402602001604051908101604052809291908181526020018280546114b090612126565b80156114fd5780601f106114d2576101008083540402835291602001916114fd565b820191906000526020600020905b8154815290600101906020018083116114e057829003601f168201915b50505050509080600101549080600201549080600301805461151e90612126565b80601f016020809104026020016040519081016040528092919081815260200182805461154a90612126565b80156115975780601f1061156c57610100808354040283529160200191611597565b820191906000526020600020905b81548152906001019060200180831161157a57829003601f168201915b5050505050908060040160009054906101000a900460ff16905085565b8280546115c090612126565b90600052602060002090601f0160209004810192826115e25760008555611629565b82601f106115fb57805160ff1916838001178555611629565b82800160010185558215611629579182015b8281111561162857825182559160200191906001019061160d565b5b509050611636919061166b565b5090565b6040518060a00160405280606081526020016000815260200160008152602001606081526020016000151581525090565b5b8082111561168457600081600090555060010161166c565b5090565b600061169b61169684611ff3565b611fc2565b9050828152602081018484840111156116b357600080fd5b6116be8482856120e4565b509392505050565b6000813590506116d58161220a565b92915050565b6000813590506116ea81612221565b92915050565b6000815190506116ff81612231565b92915050565b600082601f83011261171657600080fd5b8135611726848260208601611688565b91505092915050565b60008135905061173e81612241565b92915050565b60006020828403121561175657600080fd5b6000611764848285016116f0565b91505092915050565b60006020828403121561177f57600080fd5b600082013567ffffffffffffffff81111561179957600080fd5b6117a584828501611705565b91505092915050565b60008060008060008060c087890312156117c757600080fd5b600087013567ffffffffffffffff8111156117e157600080fd5b6117ed89828a01611705565b965050602087013567ffffffffffffffff81111561180a57600080fd5b61181689828a01611705565b955050604087013567ffffffffffffffff81111561183357600080fd5b61183f89828a01611705565b945050606061185089828a0161172f565b935050608087013567ffffffffffffffff81111561186d57600080fd5b61187989828a01611705565b92505060a061188a89828a016116c6565b9150509295509295509295565b60008060008060008060c087890312156118b057600080fd5b600087013567ffffffffffffffff8111156118ca57600080fd5b6118d689828a01611705565b965050602087013567ffffffffffffffff8111156118f357600080fd5b6118ff89828a01611705565b955050604061191089828a0161172f565b945050606061192189828a016116db565b935050608087013567ffffffffffffffff81111561193e57600080fd5b61194a89828a01611705565b92505060a061195b89828a016116c6565b9150509295509295509295565b6000806040838503121561197b57600080fd5b600083013567ffffffffffffffff81111561199557600080fd5b6119a185828601611705565b92505060206119b28582860161172f565b9150509250929050565b60006119c88383611c61565b905092915050565b60006119db82612048565b6119e5818561206b565b9350836020820285016119f785612023565b8060005b85811015611a335784840389528151611a1485826119bc565b9450611a1f8361205e565b925060208a019950506001810190506119fb565b50829750879550505050505092915050565b611a4e816120a9565b82525050565b611a5d816120a9565b82525050565b611a6c816120d2565b82525050565b611a7b816120d2565b82525050565b6000611a8c82612053565b611a96818561207c565b9350611aa68185602086016120f3565b611aaf816121e5565b840191505092915050565b6000611ac582612053565b611acf818561208d565b9350611adf8185602086016120f3565b611ae8816121e5565b840191505092915050565b6000611afe82612053565b611b08818561209e565b9350611b188185602086016120f3565b80840191505092915050565b60008154611b3181612126565b611b3b818661208d565b94506001821660008114611b565760018114611b6857611b9b565b60ff1983168652602086019350611b9b565b611b7185612033565b60005b83811015611b9357815481890152600182019150602081019050611b74565b808801955050505b50505092915050565b6000611bb1600c8361208d565b91507f556e617574686f72697a656400000000000000000000000000000000000000006000830152602082019050919050565b600060a0830160008301518482036000860152611c018282611a81565b9150506020830151611c166020860182611cf8565b506040830151611c296040860182611cf8565b5060608301518482036060860152611c418282611a81565b9150506080830151611c566080860182611a45565b508091505092915050565b600060c0830160008301518482036000860152611c7e8282611a81565b9150506020830151611c936020860182611cf8565b5060408301518482036040860152611cab8282611a81565b9150506060830151611cc06060860182611a63565b5060808301518482036080860152611cd88282611a81565b91505060a0830151611ced60a0860182611a45565b508091505092915050565b611d01816120c8565b82525050565b611d10816120c8565b82525050565b6000611d228284611af3565b915081905092915050565b60006020820190508181036000830152611d4781846119d0565b905092915050565b60006020820190508181036000830152611d698184611aba565b905092915050565b600060a0820190508181036000830152611d8b8188611aba565b90508181036020830152611d9f8187611aba565b90508181036040830152611db38186611aba565b9050611dc26060830185611a72565b611dcf6080830184611d07565b9695505050505050565b600060a0820190508181036000830152611df38188611aba565b90508181036020830152611e078187611b24565b90508181036040830152611e1b8186611aba565b9050611e2a6060830185611a72565b611e376080830184611d07565b9695505050505050565b600060a0820190508181036000830152611e5b8188611aba565b90508181036020830152611e6f8187611b24565b90508181036040830152611e838186611b24565b9050611e926060830185611a72565b611e9f6080830184611d07565b9695505050505050565b600060c0820190508181036000830152611ec38189611aba565b9050611ed26020830188611d07565b8181036040830152611ee48187611aba565b9050611ef36060830186611a72565b8181036080830152611f058185611aba565b9050611f1460a0830184611a54565b979650505050505050565b600060a0820190508181036000830152611f398188611aba565b9050611f486020830187611d07565b611f556040830186611d07565b8181036060830152611f678185611aba565b9050611f766080830184611a54565b9695505050505050565b60006020820190508181036000830152611f9981611ba4565b9050919050565b60006020820190508181036000830152611fba8184611be4565b905092915050565b6000604051905081810181811067ffffffffffffffff82111715611fe957611fe86121b6565b5b8060405250919050565b600067ffffffffffffffff82111561200e5761200d6121b6565b5b601f19601f8301169050602081019050919050565b6000819050602082019050919050565b60008190508160005260206000209050919050565b600081519050919050565b600081519050919050565b6000602082019050919050565b600082825260208201905092915050565b600082825260208201905092915050565b600082825260208201905092915050565b600081905092915050565b60008115159050919050565b60008190506120c3826121f6565b919050565b6000819050919050565b60006120dd826120b5565b9050919050565b82818337600083830152505050565b60005b838110156121115780820151818401526020810190506120f6565b83811115612120576000848401525b50505050565b6000600282049050600182168061213e57607f821691505b6020821081141561215257612151612187565b5b50919050565b7f4e487b7100000000000000000000000000000000000000000000000000000000600052602160045260246000fd5b7f4e487b7100000000000000000000000000000000000000000000000000000000600052602260045260246000fd5b7f4e487b7100000000000000000000000000000000000000000000000000000000600052604160045260246000fd5b6000601f19601f8301169050919050565b6004811061220757612206612158565b5b50565b612213816120a9565b811461221e57600080fd5b50565b6004811061222e57600080fd5b50565b6003811061223e57600080fd5b50565b61224a816120c8565b811461225557600080fd5b5056fea2646970667358221220839435effad41593c18e97e7ddc7f7d07117347075112856bc13f8ee541dc38a64736f6c63430008000033",
  "immutableReferences": {},
  "source": "// SPDX-License-Identifier: UNLICENSED\npragma solidity ^0.8.0;\n\nimport \"./UserManagement.sol\";\n\ncontract EmploymentManagement {\n    enum Employment_Status {\n        Joined,\n        Promoted,\n        Resigned,\n        Retired\n    }\n    struct EmploymentDetails {\n        string organization;\n        uint256 startDate;\n        uint256 endDate;\n        string position;\n        bool active;\n    }\n\n    struct EmploymentHistory {\n        string organization;\n        uint256 actdate;\n        string position;\n        Employment_Status status;\n        string comments;\n        bool isVerified;\n    }\n\n    mapping(string => EmploymentDetails) public currentEmployment;\n    mapping(string => EmploymentHistory[]) public employmentHistories;\n    \n    event EmploymentEvent(\n        string email,\n        string organization,\n        string position,\n        Employment_Status status,\n        uint256 date\n    );\n\n    UserManagement userManagement;\n\n    constructor(address userManagementAddress) {\n        userManagement = UserManagement(userManagementAddress);\n    }\n\n    modifier isEmployee(string memory email) {\n        require(\n            userManagement.getUserType(email) == UserManagement.UserType.Employee,\n            \"Unauthorized\"\n        );\n        _;\n    }\n\n    function joinCompany(\n        string memory email,\n        string memory organization,\n        string memory position,\n        uint256 startDate,\n        string memory comments,\n        bool isVerified\n    ) public isEmployee(email) {\n        // require(\n        //     !currentEmployment[email].active,\n        //     \"Employee is already employed\"\n        // );\n\n        currentEmployment[email] = EmploymentDetails({\n            organization: organization,\n            startDate: startDate,\n            endDate: 0,\n            position: position,\n            active: true\n        });\n\n        employmentHistories[email].push(\n            EmploymentHistory({\n                organization: organization,\n                actdate: startDate,\n                position: position,\n                status: Employment_Status.Joined,\n                comments: comments,\n                isVerified: isVerified\n            })\n        );\n\n        emit EmploymentEvent(\n            email,\n            organization,\n            position,\n            Employment_Status.Joined,\n            startDate\n        );\n    }\n\n    function promoteEmployee(\n        string memory email,\n        string memory organization,\n        string memory newPosition,\n        uint256 date,\n        string memory comments,\n        bool isVerified\n    ) public isEmployee(email) {\n        EmploymentDetails storage details = currentEmployment[email];\n\n        employmentHistories[email].push(\n            EmploymentHistory({\n                organization: organization,\n                actdate: date,\n                position: newPosition,\n                status: Employment_Status.Promoted,\n                comments: comments,\n                isVerified: isVerified\n            })\n        );\n\n        details.organization = organization;\n        details.position = newPosition;\n        details.startDate = date;\n\n        emit EmploymentEvent(\n            email,\n            details.organization,\n            newPosition,\n            Employment_Status.Promoted,\n            date\n        );\n    }\n\n    function endEmployment(\n        string memory email,\n        string memory organization,\n        uint256 date,\n        Employment_Status status,\n        string memory comments,\n        bool isVerified\n    ) public isEmployee(email) {\n        EmploymentDetails storage details = currentEmployment[email];\n        details.organization = organization;\n        details.endDate = date;\n        details.active = false;\n\n        employmentHistories[email].push(\n            EmploymentHistory({\n                organization: details.organization,\n                actdate: date,\n                position: details.position,\n                status: status,\n                comments: comments,\n                isVerified: isVerified\n            })\n        );\n\n        emit EmploymentEvent(\n            email,\n            details.organization,\n            details.position,\n            status,\n            date\n        );\n    }\n\n    function getCurrentEmployment(\n        string memory email\n    ) public view returns (EmploymentDetails memory) {\n        return currentEmployment[email];\n    }\n\n    function getEmploymentHistory(\n        string memory email\n    ) public view returns (EmploymentHistory[] memory) {\n        return employmentHistories[email];\n    }\n}",
  "sourcePath": "/Users/hchauhan/Downloads/verified-hire FastAPI/contracts/EmploymentManagement.sol",
  "compiler": {
    "name": "solc",
    "version": "0.8.0+commit.c7dfd78e.Emscripten.clang"
  },
  "schemaVersion": "3.4.16",
  "updatedAt": "2024-06-03T20:18:50.666Z",
  "networkType": "ethereum",
  "devdoc": {
    "kind": "dev",
    "methods": {},
    "version": 1
  },
  "userdoc": {
    "kind": "user",
    "methods": {},
    "version": 1
  }
}