{
  "contractName": "EmployeeManagement",
  "abi": [
    {
      "inputs": [
        {
          "internalType": "address",
          "name": "userManagementAddress",
          "type": "address"
        },
        {
          "internalType": "address",
          "name": "documentsManagementAddress",
          "type": "address"
        },
        {
          "internalType": "address",
          "name": "employmentManagementAddress",
          "type": "address"
        },
        {
          "internalType": "address",
          "name": "skillsManagementAddress",
          "type": "address"
        }
      ],
      "stateMutability": "nonpayable",
      "type": "constructor"
    },
    {
      "inputs": [
        {
          "internalType": "string",
          "name": "",
          "type": "string"
        },
        {
          "internalType": "string",
          "name": "",
          "type": "string"
        }
      ],
      "name": "employeeAccessKeys",
      "outputs": [
        {
          "internalType": "bool",
          "name": "isActive",
          "type": "bool"
        },
        {
          "internalType": "string",
          "name": "lastUsedBy",
          "type": "string"
        }
      ],
      "stateMutability": "view",
      "type": "function",
      "constant": true
    },
    {
      "inputs": [
        {
          "internalType": "string",
          "name": "",
          "type": "string"
        },
        {
          "internalType": "uint256",
          "name": "",
          "type": "uint256"
        }
      ],
      "name": "employeeAccessKeysList",
      "outputs": [
        {
          "internalType": "string",
          "name": "",
          "type": "string"
        }
      ],
      "stateMutability": "view",
      "type": "function",
      "constant": true
    },
    {
      "inputs": [
        {
          "internalType": "string",
          "name": "email",
          "type": "string"
        }
      ],
      "name": "getEmployeeProfile",
      "outputs": [
        {
          "components": [
            {
              "components": [
                {
                  "internalType": "string",
                  "name": "name",
                  "type": "string"
                },
                {
                  "internalType": "string",
                  "name": "email",
                  "type": "string"
                },
                {
                  "internalType": "enum UserManagement.Gender",
                  "name": "gender",
                  "type": "uint8"
                },
                {
                  "internalType": "string",
                  "name": "phone",
                  "type": "string"
                },
                {
                  "internalType": "enum UserManagement.UserType",
                  "name": "userType",
                  "type": "uint8"
                }
              ],
              "internalType": "struct UserManagement.User",
              "name": "User",
              "type": "tuple"
            },
            {
              "components": [
                {
                  "internalType": "string",
                  "name": "documentHash",
                  "type": "string"
                },
                {
                  "internalType": "enum DocumentsManagement.DocumentTypes",
                  "name": "documentType",
                  "type": "uint8"
                },
                {
                  "internalType": "string",
                  "name": "title",
                  "type": "string"
                },
                {
                  "internalType": "string",
                  "name": "document_id",
                  "type": "string"
                },
                {
                  "internalType": "string",
                  "name": "file_name",
                  "type": "string"
                },
                {
                  "internalType": "string",
                  "name": "file_url",
                  "type": "string"
                },
                {
                  "internalType": "string",
                  "name": "json_data",
                  "type": "string"
                },
                {
                  "internalType": "string",
                  "name": "verified_by",
                  "type": "string"
                },
                {
                  "internalType": "bool",
                  "name": "isVerified",
                  "type": "bool"
                },
                {
                  "internalType": "uint256",
                  "name": "date",
                  "type": "uint256"
                }
              ],
              "internalType": "struct DocumentsManagement.EmployeeDocument[]",
              "name": "Documents",
              "type": "tuple[]"
            },
            {
              "components": [
                {
                  "internalType": "string",
                  "name": "organization",
                  "type": "string"
                },
                {
                  "internalType": "uint256",
                  "name": "startDate",
                  "type": "uint256"
                },
                {
                  "internalType": "uint256",
                  "name": "endDate",
                  "type": "uint256"
                },
                {
                  "internalType": "string",
                  "name": "position",
                  "type": "string"
                },
                {
                  "internalType": "bool",
                  "name": "active",
                  "type": "bool"
                }
              ],
              "internalType": "struct EmploymentManagement.EmploymentDetails",
              "name": "EmployementCurrent",
              "type": "tuple"
            },
            {
              "components": [
                {
                  "internalType": "string",
                  "name": "organization",
                  "type": "string"
                },
                {
                  "internalType": "uint256",
                  "name": "actdate",
                  "type": "uint256"
                },
                {
                  "internalType": "string",
                  "name": "position",
                  "type": "string"
                },
                {
                  "internalType": "enum EmploymentManagement.Employment_Status",
                  "name": "status",
                  "type": "uint8"
                },
                {
                  "internalType": "string",
                  "name": "comments",
                  "type": "string"
                },
                {
                  "internalType": "bool",
                  "name": "isVerified",
                  "type": "bool"
                }
              ],
              "internalType": "struct EmploymentManagement.EmploymentHistory[]",
              "name": "EmployementHistory",
              "type": "tuple[]"
            },
            {
              "components": [
                {
                  "internalType": "string",
                  "name": "skill",
                  "type": "string"
                },
                {
                  "internalType": "int256",
                  "name": "avgscore",
                  "type": "int256"
                },
                {
                  "components": [
                    {
                      "internalType": "int256",
                      "name": "score",
                      "type": "int256"
                    },
                    {
                      "internalType": "string",
                      "name": "verified_by",
                      "type": "string"
                    },
                    {
                      "internalType": "bool",
                      "name": "isVerified",
                      "type": "bool"
                    },
                    {
                      "internalType": "uint256",
                      "name": "date",
                      "type": "uint256"
                    }
                  ],
                  "internalType": "struct SkillsManagement.SkillsVotes[]",
                  "name": "votes",
                  "type": "tuple[]"
                }
              ],
              "internalType": "struct SkillsManagement.AllSkillsResponse[]",
              "name": "EmployeeSkills",
              "type": "tuple[]"
            }
          ],
          "internalType": "struct EmployeeManagement.EmployeeProfile",
          "name": "",
          "type": "tuple"
        }
      ],
      "stateMutability": "view",
      "type": "function",
      "constant": true
    },
    {
      "inputs": [
        {
          "internalType": "string",
          "name": "email",
          "type": "string"
        }
      ],
      "name": "addAccessKey",
      "outputs": [],
      "stateMutability": "nonpayable",
      "type": "function"
    },
    {
      "inputs": [
        {
          "internalType": "string",
          "name": "email",
          "type": "string"
        },
        {
          "internalType": "string",
          "name": "accessKey",
          "type": "string"
        }
      ],
      "name": "disableAccessKey",
      "outputs": [],
      "stateMutability": "nonpayable",
      "type": "function"
    },
    {
      "inputs": [
        {
          "internalType": "string",
          "name": "email",
          "type": "string"
        },
        {
          "internalType": "string",
          "name": "accessKey",
          "type": "string"
        },
        {
          "internalType": "string",
          "name": "used_by",
          "type": "string"
        }
      ],
      "name": "AccessKeyIsActive",
      "outputs": [
        {
          "internalType": "bool",
          "name": "",
          "type": "bool"
        }
      ],
      "stateMutability": "nonpayable",
      "type": "function"
    }
  ],
  "bytecode": "0x60806040523480156200001157600080fd5b5060405162002fe138038062002fe183398181016040528101906200003791906200015c565b83600260006101000a81548173ffffffffffffffffffffffffffffffffffffffff021916908373ffffffffffffffffffffffffffffffffffffffff16021790555082600360006101000a81548173ffffffffffffffffffffffffffffffffffffffff021916908373ffffffffffffffffffffffffffffffffffffffff16021790555081600460006101000a81548173ffffffffffffffffffffffffffffffffffffffff021916908373ffffffffffffffffffffffffffffffffffffffff16021790555080600560006101000a81548173ffffffffffffffffffffffffffffffffffffffff021916908373ffffffffffffffffffffffffffffffffffffffff1602179055505050505062000216565b6000815190506200015681620001fc565b92915050565b600080600080608085870312156200017357600080fd5b6000620001838782880162000145565b9450506020620001968782880162000145565b9350506040620001a98782880162000145565b9250506060620001bc8782880162000145565b91505092959194509250565b6000620001d582620001dc565b9050919050565b600073ffffffffffffffffffffffffffffffffffffffff82169050919050565b6200020781620001c8565b81146200021357600080fd5b50565b612dbb80620002266000396000f3fe608060405234801561001057600080fd5b50600436106100625760003560e01c80632c1579bb146100675780635fb4e0ae14610083578063858594e3146100b3578063bd66a123146100e4578063d87c828d14610114578063eb9c61c514610144575b600080fd5b610081600480360381019061007c9190611d97565b610160565b005b61009d60048036038101906100989190611e9a565b6103a1565b6040516100aa91906127c9565b60405180910390f35b6100cd60048036038101906100c89190611d97565b610470565b6040516100db929190612799565b60405180910390f35b6100fe60048036038101906100f99190611e03565b610562565b60405161010b919061277e565b60405180910390f35b61012e60048036038101906101299190611d56565b6107f2565b60405161013b919061282b565b60405180910390f35b61015e60048036038101906101599190611d56565b610d0f565b005b8160028081111561019a577f4e487b7100000000000000000000000000000000000000000000000000000000600052602160045260246000fd5b600260009054906101000a900473ffffffffffffffffffffffffffffffffffffffff1673ffffffffffffffffffffffffffffffffffffffff16637ba20a4d836040518263ffffffff1660e01b81526004016101f591906127c9565b60206040518083038186803b15801561020d57600080fd5b505afa158015610221573d6000803e3d6000fd5b505050506040513d601f19601f820116820180604052508101906102459190611d2d565b600281111561027d577f4e487b7100000000000000000000000000000000000000000000000000000000600052602160045260246000fd5b146102bd576040517f08c379a00000000000000000000000000000000000000000000000000000000081526004016102b4906127eb565b60405180910390fd5b6000836040516102cd919061272e565b9081526020016040518091039020826040516102e9919061272e565b908152602001604051809103902060000160009054906101000a900460ff16610347576040517f08c379a000000000000000000000000000000000000000000000000000000000815260040161033e9061280b565b60405180910390fd5b60008084604051610358919061272e565b908152602001604051809103902083604051610374919061272e565b908152602001604051809103902060000160006101000a81548160ff021916908315150217905550505050565b60018280516020810182018051848252602083016020850120818352809550505050505081815481106103d357600080fd5b906000526020600020016000915091505080546103ef90612b7d565b80601f016020809104026020016040519081016040528092919081815260200182805461041b90612b7d565b80156104685780601f1061043d57610100808354040283529160200191610468565b820191906000526020600020905b81548152906001019060200180831161044b57829003601f168201915b505050505081565b60008280516020810182018051848252602083016020850120818352809550505050505081805160208101820180518482526020830160208501208183528095505050505050600091509150508060000160009054906101000a900460ff16908060010180546104df90612b7d565b80601f016020809104026020016040519081016040528092919081815260200182805461050b90612b7d565b80156105585780601f1061052d57610100808354040283529160200191610558565b820191906000526020600020905b81548152906001019060200180831161053b57829003601f168201915b5050505050905082565b60008360028081111561059e577f4e487b7100000000000000000000000000000000000000000000000000000000600052602160045260246000fd5b600260009054906101000a900473ffffffffffffffffffffffffffffffffffffffff1673ffffffffffffffffffffffffffffffffffffffff16637ba20a4d836040518263ffffffff1660e01b81526004016105f991906127c9565b60206040518083038186803b15801561061157600080fd5b505afa158015610625573d6000803e3d6000fd5b505050506040513d601f19601f820116820180604052508101906106499190611d2d565b6002811115610681577f4e487b7100000000000000000000000000000000000000000000000000000000600052602160045260246000fd5b146106c1576040517f08c379a00000000000000000000000000000000000000000000000000000000081526004016106b8906127eb565b60405180910390fd5b6000856040516106d1919061272e565b9081526020016040518091039020846040516106ed919061272e565b908152602001604051809103902060000160009054906101000a900460ff1661074b576040517f08c379a00000000000000000000000000000000000000000000000000000000081526004016107429061280b565b60405180910390fd5b8260008660405161075c919061272e565b908152602001604051809103902085604051610778919061272e565b9081526020016040518091039020600101908051906020019061079c929190611206565b506000856040516107ad919061272e565b9081526020016040518091039020846040516107c9919061272e565b908152602001604051809103902060000160009054906101000a900460ff169150509392505050565b6107fa61128c565b81600280811115610834577f4e487b7100000000000000000000000000000000000000000000000000000000600052602160045260246000fd5b600260009054906101000a900473ffffffffffffffffffffffffffffffffffffffff1673ffffffffffffffffffffffffffffffffffffffff16637ba20a4d836040518263ffffffff1660e01b815260040161088f91906127c9565b60206040518083038186803b1580156108a757600080fd5b505afa1580156108bb573d6000803e3d6000fd5b505050506040513d601f19601f820116820180604052508101906108df9190611d2d565b6002811115610917577f4e487b7100000000000000000000000000000000000000000000000000000000600052602160045260246000fd5b14610957576040517f08c379a000000000000000000000000000000000000000000000000000000000815260040161094e906127eb565b60405180910390fd5b6000600260009054906101000a900473ffffffffffffffffffffffffffffffffffffffff1673ffffffffffffffffffffffffffffffffffffffff166331feb671856040518263ffffffff1660e01b81526004016109b491906127c9565b60006040518083038186803b1580156109cc57600080fd5b505afa1580156109e0573d6000803e3d6000fd5b505050506040513d6000823e3d601f19601f82011682018060405250810190610a099190611f2f565b90506000600360009054906101000a900473ffffffffffffffffffffffffffffffffffffffff1673ffffffffffffffffffffffffffffffffffffffff1663e283ee2d866040518263ffffffff1660e01b8152600401610a6891906127c9565b60006040518083038186803b158015610a8057600080fd5b505afa158015610a94573d6000803e3d6000fd5b505050506040513d6000823e3d601f19601f82011682018060405250810190610abd9190611cab565b90506000600460009054906101000a900473ffffffffffffffffffffffffffffffffffffffff1673ffffffffffffffffffffffffffffffffffffffff1663dbb0d8dc876040518263ffffffff1660e01b8152600401610b1c91906127c9565b60006040518083038186803b158015610b3457600080fd5b505afa158015610b48573d6000803e3d6000fd5b505050506040513d6000823e3d601f19601f82011682018060405250810190610b719190611eee565b90506000600460009054906101000a900473ffffffffffffffffffffffffffffffffffffffff1673ffffffffffffffffffffffffffffffffffffffff1663306f14d7886040518263ffffffff1660e01b8152600401610bd091906127c9565b60006040518083038186803b158015610be857600080fd5b505afa158015610bfc573d6000803e3d6000fd5b505050506040513d6000823e3d601f19601f82011682018060405250810190610c259190611cec565b90506000600560009054906101000a900473ffffffffffffffffffffffffffffffffffffffff1673ffffffffffffffffffffffffffffffffffffffff16632369fecc896040518263ffffffff1660e01b8152600401610c8491906127c9565b60006040518083038186803b158015610c9c57600080fd5b505afa158015610cb0573d6000803e3d6000fd5b505050506040513d6000823e3d601f19601f82011682018060405250810190610cd99190611c6a565b90506040518060a00160405280868152602001858152602001848152602001838152602001828152509650505050505050919050565b80600280811115610d49577f4e487b7100000000000000000000000000000000000000000000000000000000600052602160045260246000fd5b600260009054906101000a900473ffffffffffffffffffffffffffffffffffffffff1673ffffffffffffffffffffffffffffffffffffffff16637ba20a4d836040518263ffffffff1660e01b8152600401610da491906127c9565b60206040518083038186803b158015610dbc57600080fd5b505afa158015610dd0573d6000803e3d6000fd5b505050506040513d601f19601f82011682018060405250810190610df49190611d2d565b6002811115610e2c577f4e487b7100000000000000000000000000000000000000000000000000000000600052602160045260246000fd5b14610e6c576040517f08c379a0000000000000000000000000000000000000000000000000000000008152600401610e63906127eb565b60405180910390fd5b6000424484604051602001610e8393929190612745565b6040516020818303038152906040528051906020012090506000610ea682610fad565b90506000604051806040016040528060011515815260200160405180602001604052806000815250815250905080600086604051610ee4919061272e565b908152602001604051809103902083604051610f00919061272e565b908152602001604051809103902060008201518160000160006101000a81548160ff0219169083151502179055506020820151816001019080519060200190610f4a929190611206565b50905050600185604051610f5e919061272e565b908152602001604051809103902082908060018154018082558091505060019003906000526020600020016000909190919091509080519060200190610fa5929190611206565b505050505050565b606060005b60208160ff1610801561102a5750600060f81b838260ff1660208110611001577f4e487b7100000000000000000000000000000000000000000000000000000000600052603260045260246000fd5b1a60f81b7effffffffffffffffffffffffffffffffffffffffffffffffffffffffffffff191614155b1561104257808061103a90612baf565b915050610fb2565b60008160ff1667ffffffffffffffff811115611087577f4e487b7100000000000000000000000000000000000000000000000000000000600052604160045260246000fd5b6040519080825280601f01601f1916602001820160405280156110b95781602001600182028036833780820191505090505b509050600091505b60208260ff161080156111395750600060f81b848360ff1660208110611110577f4e487b7100000000000000000000000000000000000000000000000000000000600052603260045260246000fd5b1a60f81b7effffffffffffffffffffffffffffffffffffffffffffffffffffffffffffff191614155b156111fc57838260ff166020811061117a577f4e487b7100000000000000000000000000000000000000000000000000000000600052603260045260246000fd5b1a60f81b818360ff16815181106111ba577f4e487b7100000000000000000000000000000000000000000000000000000000600052603260045260246000fd5b60200101907effffffffffffffffffffffffffffffffffffffffffffffffffffffffffffff1916908160001a90535081806111f490612baf565b9250506110c1565b8092505050919050565b82805461121290612b7d565b90600052602060002090601f016020900481019282611234576000855561127b565b82601f1061124d57805160ff191683800117855561127b565b8280016001018555821561127b579182015b8281111561127a57825182559160200191906001019061125f565b5b50905061128891906112c7565b5090565b6040518060a0016040528061129f6112e4565b8152602001606081526020016112b3611383565b815260200160608152602001606081525090565b5b808211156112e05760008160009055506001016112c8565b5090565b6040518060a00160405280606081526020016060815260200160006002811115611337577f4e487b7100000000000000000000000000000000000000000000000000000000600052602160045260246000fd5b8152602001606081526020016000600281111561137d577f4e487b7100000000000000000000000000000000000000000000000000000000600052602160045260246000fd5b81525090565b6040518060a00160405280606081526020016000815260200160008152602001606081526020016000151581525090565b60006113c76113c28461287e565b61284d565b9050808382526020820190508260005b8581101561140757815185016113ed888261171e565b8452602084019350602083019250506001810190506113d7565b5050509392505050565b600061142461141f846128aa565b61284d565b9050808382526020820190508260005b85811015611464578151850161144a88826117ae565b845260208401935060208301925050600181019050611434565b5050509392505050565b600061148161147c846128d6565b61284d565b9050808382526020820190508260005b858110156114c157815185016114a78882611a00565b845260208401935060208301925050600181019050611491565b5050509392505050565b60006114de6114d984612902565b61284d565b9050808382526020820190508260005b8581101561151e57815185016115048882611ae4565b8452602084019350602083019250506001810190506114ee565b5050509392505050565b600061153b6115368461292e565b61284d565b90508281526020810184848401111561155357600080fd5b61155e848285612b3b565b509392505050565b60006115796115748461292e565b61284d565b90508281526020810184848401111561159157600080fd5b61159c848285612b4a565b509392505050565b600082601f8301126115b557600080fd5b81516115c58482602086016113b4565b91505092915050565b600082601f8301126115df57600080fd5b81516115ef848260208601611411565b91505092915050565b600082601f83011261160957600080fd5b815161161984826020860161146e565b91505092915050565b600082601f83011261163357600080fd5b81516116438482602086016114cb565b91505092915050565b60008151905061165b81612d00565b92915050565b60008151905061167081612d17565b92915050565b60008151905061168581612d27565b92915050565b60008151905061169a81612d37565b92915050565b6000815190506116af81612d47565b92915050565b6000815190506116c481612d57565b92915050565b600082601f8301126116db57600080fd5b81356116eb848260208601611528565b91505092915050565b600082601f83011261170557600080fd5b8151611715848260208601611566565b91505092915050565b60006060828403121561173057600080fd5b61173a606061284d565b9050600082015167ffffffffffffffff81111561175657600080fd5b611762848285016116f4565b6000830152506020611776848285016116b5565b602083015250604082015167ffffffffffffffff81111561179657600080fd5b6117a284828501611622565b60408301525092915050565b600061014082840312156117c157600080fd5b6117cc61014061284d565b9050600082015167ffffffffffffffff8111156117e857600080fd5b6117f4848285016116f4565b600083015250602061180884828501611661565b602083015250604082015167ffffffffffffffff81111561182857600080fd5b611834848285016116f4565b604083015250606082015167ffffffffffffffff81111561185457600080fd5b611860848285016116f4565b606083015250608082015167ffffffffffffffff81111561188057600080fd5b61188c848285016116f4565b60808301525060a082015167ffffffffffffffff8111156118ac57600080fd5b6118b8848285016116f4565b60a08301525060c082015167ffffffffffffffff8111156118d857600080fd5b6118e4848285016116f4565b60c08301525060e082015167ffffffffffffffff81111561190457600080fd5b611910848285016116f4565b60e0830152506101006119258482850161164c565b6101008301525061012061193b84828501611c55565b6101208301525092915050565b600060a0828403121561195a57600080fd5b61196460a061284d565b9050600082015167ffffffffffffffff81111561198057600080fd5b61198c848285016116f4565b60008301525060206119a084828501611c55565b60208301525060406119b484828501611c55565b604083015250606082015167ffffffffffffffff8111156119d457600080fd5b6119e0848285016116f4565b60608301525060806119f48482850161164c565b60808301525092915050565b600060c08284031215611a1257600080fd5b611a1c60c061284d565b9050600082015167ffffffffffffffff811115611a3857600080fd5b611a44848285016116f4565b6000830152506020611a5884828501611c55565b602083015250604082015167ffffffffffffffff811115611a7857600080fd5b611a84848285016116f4565b6040830152506060611a9884828501611676565b606083015250608082015167ffffffffffffffff811115611ab857600080fd5b611ac4848285016116f4565b60808301525060a0611ad88482850161164c565b60a08301525092915050565b600060808284031215611af657600080fd5b611b00608061284d565b90506000611b10848285016116b5565b600083015250602082015167ffffffffffffffff811115611b3057600080fd5b611b3c848285016116f4565b6020830152506040611b508482850161164c565b6040830152506060611b6484828501611c55565b60608301525092915050565b600060a08284031215611b8257600080fd5b611b8c60a061284d565b9050600082015167ffffffffffffffff811115611ba857600080fd5b611bb4848285016116f4565b600083015250602082015167ffffffffffffffff811115611bd457600080fd5b611be0848285016116f4565b6020830152506040611bf48482850161168b565b604083015250606082015167ffffffffffffffff811115611c1457600080fd5b611c20848285016116f4565b6060830152506080611c34848285016116a0565b60808301525092915050565b600081359050611c4f81612d6e565b92915050565b600081519050611c6481612d6e565b92915050565b600060208284031215611c7c57600080fd5b600082015167ffffffffffffffff811115611c9657600080fd5b611ca2848285016115a4565b91505092915050565b600060208284031215611cbd57600080fd5b600082015167ffffffffffffffff811115611cd757600080fd5b611ce3848285016115ce565b91505092915050565b600060208284031215611cfe57600080fd5b600082015167ffffffffffffffff811115611d1857600080fd5b611d24848285016115f8565b91505092915050565b600060208284031215611d3f57600080fd5b6000611d4d848285016116a0565b91505092915050565b600060208284031215611d6857600080fd5b600082013567ffffffffffffffff811115611d8257600080fd5b611d8e848285016116ca565b91505092915050565b60008060408385031215611daa57600080fd5b600083013567ffffffffffffffff811115611dc457600080fd5b611dd0858286016116ca565b925050602083013567ffffffffffffffff811115611ded57600080fd5b611df9858286016116ca565b9150509250929050565b600080600060608486031215611e1857600080fd5b600084013567ffffffffffffffff811115611e3257600080fd5b611e3e868287016116ca565b935050602084013567ffffffffffffffff811115611e5b57600080fd5b611e67868287016116ca565b925050604084013567ffffffffffffffff811115611e8457600080fd5b611e90868287016116ca565b9150509250925092565b60008060408385031215611ead57600080fd5b600083013567ffffffffffffffff811115611ec757600080fd5b611ed3858286016116ca565b9250506020611ee485828601611c40565b9150509250929050565b600060208284031215611f0057600080fd5b600082015167ffffffffffffffff811115611f1a57600080fd5b611f2684828501611948565b91505092915050565b600060208284031215611f4157600080fd5b600082015167ffffffffffffffff811115611f5b57600080fd5b611f6784828501611b70565b91505092915050565b6000611f7c8383612320565b905092915050565b6000611f908383612377565b905092915050565b6000611fa4838361258a565b905092915050565b6000611fb88383612621565b905092915050565b6000611fcb8261299e565b611fd58185612a09565b935083602082028501611fe78561295e565b8060005b8581101561202357848403895281516120048582611f70565b945061200f836129d5565b925060208a01995050600181019050611feb565b50829750879550505050505092915050565b6000612040826129a9565b61204a8185612a1a565b93508360208202850161205c8561296e565b8060005b8581101561209857848403895281516120798582611f84565b9450612084836129e2565b925060208a01995050600181019050612060565b50829750879550505050505092915050565b60006120b5826129b4565b6120bf8185612a2b565b9350836020820285016120d18561297e565b8060005b8581101561210d57848403895281516120ee8582611f98565b94506120f9836129ef565b925060208a019950506001810190506120d5565b50829750879550505050505092915050565b600061212a826129bf565b6121348185612a3c565b9350836020820285016121468561298e565b8060005b8581101561218257848403895281516121638582611fac565b945061216e836129fc565b925060208a0199505060018101905061214a565b50829750879550505050505092915050565b61219d81612a7a565b82525050565b6121ac81612a7a565b82525050565b6121bb81612af3565b82525050565b6121ca81612b05565b82525050565b6121d981612b17565b82525050565b6121e881612b29565b82525050565b6121f781612ad2565b82525050565b6000612208826129ca565b6122128185612a4d565b9350612222818560208601612b4a565b61222b81612c9f565b840191505092915050565b6000612241826129ca565b61224b8185612a5e565b935061225b818560208601612b4a565b61226481612c9f565b840191505092915050565b600061227a826129ca565b6122848185612a6f565b9350612294818560208601612b4a565b80840191505092915050565b60006122ad600c83612a5e565b91507f556e617574686f72697a656400000000000000000000000000000000000000006000830152602082019050919050565b60006122ed601883612a5e565b91507f416363657373206b6579206973206e6f742061637469766500000000000000006000830152602082019050919050565b6000606083016000830151848203600086015261233d82826121fd565b915050602083015161235260208601826121ee565b506040830151848203604086015261236a828261211f565b9150508091505092915050565b600061014083016000830151848203600086015261239582826121fd565b91505060208301516123aa60208601826121b2565b50604083015184820360408601526123c282826121fd565b915050606083015184820360608601526123dc82826121fd565b915050608083015184820360808601526123f682826121fd565b91505060a083015184820360a086015261241082826121fd565b91505060c083015184820360c086015261242a82826121fd565b91505060e083015184820360e086015261244482826121fd565b91505061010083015161245b610100860182612194565b50610120830151612470610120860182612708565b508091505092915050565b600060a08301600083015184820360008601526124988282612684565b915050602083015184820360208601526124b28282612035565b915050604083015184820360408601526124cc828261250d565b915050606083015184820360608601526124e682826120aa565b915050608083015184820360808601526125008282611fc0565b9150508091505092915050565b600060a083016000830151848203600086015261252a82826121fd565b915050602083015161253f6020860182612708565b5060408301516125526040860182612708565b506060830151848203606086015261256a82826121fd565b915050608083015161257f6080860182612194565b508091505092915050565b600060c08301600083015184820360008601526125a782826121fd565b91505060208301516125bc6020860182612708565b50604083015184820360408601526125d482826121fd565b91505060608301516125e960608601826121c1565b506080830151848203608086015261260182826121fd565b91505060a083015161261660a0860182612194565b508091505092915050565b600060808301600083015161263960008601826121ee565b506020830151848203602086015261265182826121fd565b91505060408301516126666040860182612194565b5060608301516126796060860182612708565b508091505092915050565b600060a08301600083015184820360008601526126a182826121fd565b915050602083015184820360208601526126bb82826121fd565b91505060408301516126d060408601826121d0565b50606083015184820360608601526126e882826121fd565b91505060808301516126fd60808601826121df565b508091505092915050565b61271181612adc565b82525050565b61272861272382612adc565b612bd9565b82525050565b600061273a828461226f565b915081905092915050565b60006127518286612717565b6020820191506127618285612717565b602082019150612771828461226f565b9150819050949350505050565b600060208201905061279360008301846121a3565b92915050565b60006040820190506127ae60008301856121a3565b81810360208301526127c08184612236565b90509392505050565b600060208201905081810360008301526127e38184612236565b905092915050565b60006020820190508181036000830152612804816122a0565b9050919050565b60006020820190508181036000830152612824816122e0565b9050919050565b60006020820190508181036000830152612845818461247b565b905092915050565b6000604051905081810181811067ffffffffffffffff8211171561287457612873612c70565b5b8060405250919050565b600067ffffffffffffffff82111561289957612898612c70565b5b602082029050602081019050919050565b600067ffffffffffffffff8211156128c5576128c4612c70565b5b602082029050602081019050919050565b600067ffffffffffffffff8211156128f1576128f0612c70565b5b602082029050602081019050919050565b600067ffffffffffffffff82111561291d5761291c612c70565b5b602082029050602081019050919050565b600067ffffffffffffffff82111561294957612948612c70565b5b601f19601f8301169050602081019050919050565b6000819050602082019050919050565b6000819050602082019050919050565b6000819050602082019050919050565b6000819050602082019050919050565b600081519050919050565b600081519050919050565b600081519050919050565b600081519050919050565b600081519050919050565b6000602082019050919050565b6000602082019050919050565b6000602082019050919050565b6000602082019050919050565b600082825260208201905092915050565b600082825260208201905092915050565b600082825260208201905092915050565b600082825260208201905092915050565b600082825260208201905092915050565b600082825260208201905092915050565b600081905092915050565b60008115159050919050565b6000819050612a9482612cb0565b919050565b6000819050612aa782612cc4565b919050565b6000819050612aba82612cd8565b919050565b6000819050612acd82612cec565b919050565b6000819050919050565b6000819050919050565b600060ff82169050919050565b6000612afe82612a86565b9050919050565b6000612b1082612a99565b9050919050565b6000612b2282612aac565b9050919050565b6000612b3482612abf565b9050919050565b82818337600083830152505050565b60005b83811015612b68578082015181840152602081019050612b4d565b83811115612b77576000848401525b50505050565b60006002820490506001821680612b9557607f821691505b60208210811415612ba957612ba8612c41565b5b50919050565b6000612bba82612ae6565b915060ff821415612bce57612bcd612be3565b5b600182019050919050565b6000819050919050565b7f4e487b7100000000000000000000000000000000000000000000000000000000600052601160045260246000fd5b7f4e487b7100000000000000000000000000000000000000000000000000000000600052602160045260246000fd5b7f4e487b7100000000000000000000000000000000000000000000000000000000600052602260045260246000fd5b7f4e487b7100000000000000000000000000000000000000000000000000000000600052604160045260246000fd5b6000601f19601f8301169050919050565b60038110612cc157612cc0612c12565b5b50565b60048110612cd557612cd4612c12565b5b50565b60038110612ce957612ce8612c12565b5b50565b60038110612cfd57612cfc612c12565b5b50565b612d0981612a7a565b8114612d1457600080fd5b50565b60038110612d2457600080fd5b50565b60048110612d3457600080fd5b50565b60038110612d4457600080fd5b50565b60038110612d5457600080fd5b50565b612d6081612ad2565b8114612d6b57600080fd5b50565b612d7781612adc565b8114612d8257600080fd5b5056fea2646970667358221220cbbfc99ed9746f9148ab701f17ff8ba7277bc87eb65650cec9a85f3dd9c7736e64736f6c63430008000033",
  "immutableReferences": {},
  "source": "// SPDX-License-Identifier: UNLICENSED\npragma solidity ^0.8.0;\n\nimport \"./UserManagement.sol\";\nimport \"./DocumentsManagement.sol\";\nimport \"./EmploymentManagement.sol\";\nimport \"./SkillsManagement.sol\";\n\ncontract EmployeeManagement {\n    struct access_keys {\n        bool isActive;\n        string lastUsedBy;\n    }\n\n    mapping(string => mapping(string => access_keys)) public employeeAccessKeys; // email => (accessKey => access_keys)\n    mapping(string => string[]) public employeeAccessKeysList;\n\n    UserManagement userManagement;\n    DocumentsManagement documentsManagement;\n    EmploymentManagement employmentManagement;\n    SkillsManagement skillsManagement;\n\n    constructor(address userManagementAddress, address documentsManagementAddress, address employmentManagementAddress, address skillsManagementAddress){\n        userManagement = UserManagement(userManagementAddress);\n        documentsManagement = DocumentsManagement(documentsManagementAddress);\n        employmentManagement = EmploymentManagement(employmentManagementAddress);\n        skillsManagement = SkillsManagement(skillsManagementAddress);\n    }\n\n    modifier isEmployee(string memory email) {\n        require(\n            userManagement.getUserType(email) ==\n                UserManagement.UserType.Employee,\n            \"Unauthorized\"\n        );\n        _;\n    }\n\n    struct EmployeeProfile {\n        UserManagement.User User;\n        DocumentsManagement.EmployeeDocument[] Documents;\n        EmploymentManagement.EmploymentDetails EmployementCurrent;\n        EmploymentManagement.EmploymentHistory[] EmployementHistory;\n        SkillsManagement.AllSkillsResponse[]        EmployeeSkills;\n    }\n    \n    function getEmployeeProfile(\n        string memory email\n    ) public isEmployee(email) view returns (EmployeeProfile memory) {\n        UserManagement.User memory user = userManagement.getUser(email);\n        DocumentsManagement.EmployeeDocument[] memory documents = documentsManagement.getAllDocuments(email);\n        EmploymentManagement.EmploymentDetails memory employmentCurrent = employmentManagement.getCurrentEmployment(email);\n        EmploymentManagement.EmploymentHistory[] memory employmentHistory = employmentManagement.getEmploymentHistory(email);\n        SkillsManagement.AllSkillsResponse[] memory employeeSkills = skillsManagement.getSkills(email);\n        return EmployeeProfile(\n            user,\n            documents,\n            employmentCurrent,\n            employmentHistory,\n            employeeSkills\n        );\n    }\n\n    function addAccessKey(string memory email) public isEmployee(email) {\n        // generate random 8-10 digit string\n        bytes32 accessKey = keccak256(\n            abi.encodePacked(block.timestamp, block.difficulty, email)\n        );\n        string memory accessKeyStr = _bytes32ToString(accessKey);\n\n        access_keys memory newAccessKey = access_keys(true, \"\");\n\n        employeeAccessKeys[email][accessKeyStr] = newAccessKey;\n        employeeAccessKeysList[email].push(accessKeyStr);\n    }\n\n    function disableAccessKey(\n        string memory email,\n        string memory accessKey\n    ) public isEmployee(email) {\n        require(\n            employeeAccessKeys[email][accessKey].isActive,\n            \"Access key is not active\"\n        );\n        employeeAccessKeys[email][accessKey].isActive = false;\n    }\n\n    function AccessKeyIsActive(\n        string memory email,\n        string memory accessKey,\n        string memory used_by\n    ) public isEmployee(email) returns (bool) {\n        require(\n            employeeAccessKeys[email][accessKey].isActive,\n            \"Access key is not active\"\n        );\n        employeeAccessKeys[email][accessKey].lastUsedBy = used_by;\n        return employeeAccessKeys[email][accessKey].isActive;\n    }\n\n    function _bytes32ToString(\n        bytes32 _bytes32\n    ) private pure returns (string memory) {\n        uint8 i = 0;\n        while (i < 32 && _bytes32[i] != 0) {\n            i++;\n        }\n        bytes memory bytesArray = new bytes(i);\n        for (i = 0; i < 32 && _bytes32[i] != 0; i++) {\n            bytesArray[i] = _bytes32[i];\n        }\n        return string(bytesArray);\n    }\n}\n",
  "sourcePath": "/Users/hchauhan/Downloads/verified-hire FastAPI/contracts/EmployeeManagement.sol",
  "compiler": {
    "name": "solc",
    "version": "0.8.0+commit.c7dfd78e.Emscripten.clang"
  },
  "schemaVersion": "3.4.16",
  "updatedAt": "2024-05-24T20:41:51.900Z",
  "networkType": "ethereum",
  "devdoc": {
    "kind": "dev",
    "methods": {},
    "version": 1
  },
  "userdoc": {
    "kind": "user",
    "methods": {},
    "version": 1
  }
}