{
  "contractName": "SkillsManagement",
  "abi": [
    {
      "inputs": [
        {
          "internalType": "address",
          "name": "userManagementAddress",
          "type": "address"
        }
      ],
      "stateMutability": "nonpayable",
      "type": "constructor"
    },
    {
      "inputs": [
        {
          "internalType": "string",
          "name": "",
          "type": "string"
        },
        {
          "internalType": "uint256",
          "name": "",
          "type": "uint256"
        }
      ],
      "name": "employeeSkills",
      "outputs": [
        {
          "internalType": "string",
          "name": "",
          "type": "string"
        }
      ],
      "stateMutability": "view",
      "type": "function",
      "constant": true
    },
    {
      "inputs": [
        {
          "internalType": "string",
          "name": "",
          "type": "string"
        },
        {
          "internalType": "string",
          "name": "",
          "type": "string"
        },
        {
          "internalType": "uint256",
          "name": "",
          "type": "uint256"
        }
      ],
      "name": "employeeSkillsScore",
      "outputs": [
        {
          "internalType": "int256",
          "name": "score",
          "type": "int256"
        },
        {
          "internalType": "string",
          "name": "verified_by",
          "type": "string"
        },
        {
          "internalType": "bool",
          "name": "isVerified",
          "type": "bool"
        },
        {
          "internalType": "uint256",
          "name": "date",
          "type": "uint256"
        }
      ],
      "stateMutability": "view",
      "type": "function",
      "constant": true
    },
    {
      "inputs": [
        {
          "internalType": "string",
          "name": "email",
          "type": "string"
        },
        {
          "internalType": "string",
          "name": "skill",
          "type": "string"
        },
        {
          "internalType": "int256",
          "name": "score",
          "type": "int256"
        },
        {
          "internalType": "string",
          "name": "verified_by",
          "type": "string"
        }
      ],
      "name": "addSkill",
      "outputs": [],
      "stateMutability": "nonpayable",
      "type": "function"
    },
    {
      "inputs": [
        {
          "internalType": "string",
          "name": "email",
          "type": "string"
        },
        {
          "internalType": "string",
          "name": "skill",
          "type": "string"
        }
      ],
      "name": "getSkillScore",
      "outputs": [
        {
          "internalType": "int256",
          "name": "",
          "type": "int256"
        }
      ],
      "stateMutability": "view",
      "type": "function",
      "constant": true
    },
    {
      "inputs": [
        {
          "internalType": "string",
          "name": "email",
          "type": "string"
        }
      ],
      "name": "getSkills",
      "outputs": [
        {
          "components": [
            {
              "internalType": "string",
              "name": "skill",
              "type": "string"
            },
            {
              "internalType": "int256",
              "name": "avgscore",
              "type": "int256"
            },
            {
              "components": [
                {
                  "internalType": "int256",
                  "name": "score",
                  "type": "int256"
                },
                {
                  "internalType": "string",
                  "name": "verified_by",
                  "type": "string"
                },
                {
                  "internalType": "bool",
                  "name": "isVerified",
                  "type": "bool"
                },
                {
                  "internalType": "uint256",
                  "name": "date",
                  "type": "uint256"
                }
              ],
              "internalType": "struct SkillsManagement.SkillsVotes[]",
              "name": "votes",
              "type": "tuple[]"
            }
          ],
          "internalType": "struct SkillsManagement.AllSkillsResponse[]",
          "name": "",
          "type": "tuple[]"
        }
      ],
      "stateMutability": "view",
      "type": "function",
      "constant": true
    }
  ],
  "bytecode": "0x60806040523480156200001157600080fd5b5060405162001eda38038062001eda833981810160405281019062000037919062000096565b80600260006101000a81548173ffffffffffffffffffffffffffffffffffffffff021916908373ffffffffffffffffffffffffffffffffffffffff1602179055505062000110565b6000815190506200009081620000f6565b92915050565b600060208284031215620000a957600080fd5b6000620000b9848285016200007f565b91505092915050565b6000620000cf82620000d6565b9050919050565b600073ffffffffffffffffffffffffffffffffffffffff82169050919050565b6200010181620000c2565b81146200010d57600080fd5b50565b611dba80620001206000396000f3fe608060405234801561001057600080fd5b50600436106100575760003560e01c80632369fecc1461005c57806347052e651461008c5780638384c0a7146100bf5780639f9a3b10146100ef578063a036aad41461010b575b600080fd5b61007660048036038101906100719190611234565b61013b565b604051610083919061186a565b60405180910390f35b6100a660048036038101906100a1919061138c565b610689565b6040516100b694939291906118a7565b60405180910390f35b6100d960048036038101906100d49190611275565b6107a4565b6040516100e6919061188c565b60405180910390f35b610109600480360381019061010491906112e1565b610969565b005b6101256004803603810190610120919061140b565b610fd1565b60405161013291906118f3565b60405180910390f35b6060600060018360405161014f9190611827565b90815260200160405180910390208054905067ffffffffffffffff8111156101a0577f4e487b7100000000000000000000000000000000000000000000000000000000600052604160045260246000fd5b6040519080825280602002602001820160405280156101d957816020015b6101c66110a0565b8152602001906001900390816101be5790505b50905060005b6001846040516101ef9190611827565b90815260200160405180910390208054905081101561067f576001846040516102189190611827565b9081526020016040518091039020818154811061025e577f4e487b7100000000000000000000000000000000000000000000000000000000600052603260045260246000fd5b90600052602060002001805461027390611bb5565b80601f016020809104026020016040519081016040528092919081815260200182805461029f90611bb5565b80156102ec5780601f106102c1576101008083540402835291602001916102ec565b820191906000526020600020905b8154815290600101906020018083116102cf57829003601f168201915b505050505082828151811061032a577f4e487b7100000000000000000000000000000000000000000000000000000000600052603260045260246000fd5b60200260200101516000018190525061042b8460018660405161034d9190611827565b90815260200160405180910390208381548110610393577f4e487b7100000000000000000000000000000000000000000000000000000000600052603260045260246000fd5b9060005260206000200180546103a890611bb5565b80601f01602080910402602001604051908101604052809291908181526020018280546103d490611bb5565b80156104215780601f106103f657610100808354040283529160200191610421565b820191906000526020600020905b81548152906001019060200180831161040457829003601f168201915b50505050506107a4565b828281518110610464577f4e487b7100000000000000000000000000000000000000000000000000000000600052603260045260246000fd5b602002602001015160200181815250506000846040516104849190611827565b90815260200160405180910390206001856040516104a29190611827565b908152602001604051809103902082815481106104e8577f4e487b7100000000000000000000000000000000000000000000000000000000600052603260045260246000fd5b906000526020600020016040516104ff919061183e565b9081526020016040518091039020805480602002602001604051908101604052809291908181526020016000905b8282101561062057838290600052602060002090600402016040518060800160405290816000820154815260200160018201805461056a90611bb5565b80601f016020809104026020016040519081016040528092919081815260200182805461059690611bb5565b80156105e35780601f106105b8576101008083540402835291602001916105e3565b820191906000526020600020905b8154815290600101906020018083116105c657829003601f168201915b505050505081526020016002820160009054906101000a900460ff161515151581526020016003820154815250508152602001906001019061052d565b5050505082828151811061065d577f4e487b7100000000000000000000000000000000000000000000000000000000600052603260045260246000fd5b602002602001015160400181905250808061067790611c30565b9150506101df565b5080915050919050565b6000838051602081018201805184825260208301602085012081835280955050505050508280516020810182018051848252602083016020850120818352809550505050505081815481106106dd57600080fd5b9060005260206000209060040201600092509250505080600001549080600101805461070890611bb5565b80601f016020809104026020016040519081016040528092919081815260200182805461073490611bb5565b80156107815780601f1061075657610100808354040283529160200191610781565b820191906000526020600020905b81548152906001019060200180831161076457829003601f168201915b5050505050908060020160009054906101000a900460ff16908060030154905084565b600080600090506000805b6000866040516107bf9190611827565b9081526020016040518091039020856040516107db9190611827565b90815260200160405180910390208054905081101561093d576000866040516108049190611827565b9081526020016040518091039020856040516108209190611827565b90815260200160405180910390208181548110610866577f4e487b7100000000000000000000000000000000000000000000000000000000600052603260045260246000fd5b906000526020600020906004020160020160009054906101000a900460ff161561092a5760008660405161089a9190611827565b9081526020016040518091039020856040516108b69190611827565b908152602001604051809103902081815481106108fc577f4e487b7100000000000000000000000000000000000000000000000000000000600052603260045260246000fd5b906000526020600020906004020160000154836109199190611a55565b9250818061092690611be7565b9250505b808061093590611c30565b9150506107af565b50600081141561095257600092505050610963565b808261095e9190611ae9565b925050505b92915050565b836002808111156109a3577f4e487b7100000000000000000000000000000000000000000000000000000000600052602160045260246000fd5b600260009054906101000a900473ffffffffffffffffffffffffffffffffffffffff1673ffffffffffffffffffffffffffffffffffffffff16637ba20a4d836040518263ffffffff1660e01b81526004016109fe91906118f3565b60206040518083038186803b158015610a1657600080fd5b505afa158015610a2a573d6000803e3d6000fd5b505050506040513d601f19601f82011682018060405250810190610a4e919061120b565b6002811115610a86577f4e487b7100000000000000000000000000000000000000000000000000000000600052602160045260246000fd5b14610ac6576040517f08c379a0000000000000000000000000000000000000000000000000000000008152600401610abd90611915565b60405180910390fd5b6000808087604051610ad89190611827565b908152602001604051809103902086604051610af49190611827565b9081526020016040518091039020805490501480610b5b5750604051602001610b1c90611855565b6040516020818303038152906040528051906020012083604051602001610b439190611827565b60405160208183030381529060405280519060200120145b15610c3f57600086604051610b709190611827565b908152602001604051809103902085604051610b8c9190611827565b90815260200160405180910390206040518060800160405280868152602001858152602001600115158152602001428152509080600181540180825580915050600190039060005260206000209060040201600090919091909150600082015181600001556020820151816001019080519060200190610c0d9291906110c1565b5060408201518160020160006101000a81548160ff021916908315150217905550606082015181600301555050610e65565b60009050600083604051602001610c569190611827565b60405160208183030381529060405280519060200120905060005b600088604051610c819190611827565b908152602001604051809103902087604051610c9d9190611827565b908152602001604051809103902080549050811015610d825781600089604051610cc79190611827565b908152602001604051809103902088604051610ce39190611827565b90815260200160405180910390208281548110610d29577f4e487b7100000000000000000000000000000000000000000000000000000000600052603260045260246000fd5b9060005260206000209060040201600101604051602001610d4a919061183e565b604051602081830303815290604052805190602001201415610d6f5760019250610d82565b8080610d7a90611c30565b915050610c71565b5081610e6357600087604051610d989190611827565b908152602001604051809103902086604051610db49190611827565b90815260200160405180910390206040518060800160405280878152602001868152602001600115158152602001428152509080600181540180825580915050600190039060005260206000209060040201600090919091909150600082015181600001556020820151816001019080519060200190610e359291906110c1565b5060408201518160020160006101000a81548160ff0219169083151502179055506060820151816003015550505b505b60009050600085604051602001610e7c9190611827565b60405160208183030381529060405280519060200120905060005b600188604051610ea79190611827565b908152602001604051809103902080549050811015610f695781600189604051610ed19190611827565b90815260200160405180910390208281548110610f17577f4e487b7100000000000000000000000000000000000000000000000000000000600052603260045260246000fd5b90600052602060002001604051602001610f31919061183e565b604051602081830303815290604052805190602001201415610f565760019250610f69565b8080610f6190611c30565b915050610e97565b5081610fc857600187604051610f7f9190611827565b908152602001604051809103902086908060018154018082558091505060019003906000526020600020016000909190919091509080519060200190610fc69291906110c1565b505b50505050505050565b600182805160208101820180518482526020830160208501208183528095505050505050818154811061100357600080fd5b9060005260206000200160009150915050805461101f90611bb5565b80601f016020809104026020016040519081016040528092919081815260200182805461104b90611bb5565b80156110985780601f1061106d57610100808354040283529160200191611098565b820191906000526020600020905b81548152906001019060200180831161107b57829003601f168201915b505050505081565b60405180606001604052806060815260200160008152602001606081525090565b8280546110cd90611bb5565b90600052602060002090601f0160209004810192826110ef5760008555611136565b82601f1061110857805160ff1916838001178555611136565b82800160010185558215611136579182015b8281111561113557825182559160200191906001019061111a565b5b5090506111439190611147565b5090565b5b80821115611160576000816000905550600101611148565b5090565b600061117761117284611966565b611935565b90508281526020810184848401111561118f57600080fd5b61119a848285611b73565b509392505050565b6000815190506111b181611d46565b92915050565b6000813590506111c681611d56565b92915050565b600082601f8301126111dd57600080fd5b81356111ed848260208601611164565b91505092915050565b60008135905061120581611d6d565b92915050565b60006020828403121561121d57600080fd5b600061122b848285016111a2565b91505092915050565b60006020828403121561124657600080fd5b600082013567ffffffffffffffff81111561126057600080fd5b61126c848285016111cc565b91505092915050565b6000806040838503121561128857600080fd5b600083013567ffffffffffffffff8111156112a257600080fd5b6112ae858286016111cc565b925050602083013567ffffffffffffffff8111156112cb57600080fd5b6112d7858286016111cc565b9150509250929050565b600080600080608085870312156112f757600080fd5b600085013567ffffffffffffffff81111561131157600080fd5b61131d878288016111cc565b945050602085013567ffffffffffffffff81111561133a57600080fd5b611346878288016111cc565b9350506040611357878288016111b7565b925050606085013567ffffffffffffffff81111561137457600080fd5b611380878288016111cc565b91505092959194509250565b6000806000606084860312156113a157600080fd5b600084013567ffffffffffffffff8111156113bb57600080fd5b6113c7868287016111cc565b935050602084013567ffffffffffffffff8111156113e457600080fd5b6113f0868287016111cc565b9250506040611401868287016111f6565b9150509250925092565b6000806040838503121561141e57600080fd5b600083013567ffffffffffffffff81111561143857600080fd5b611444858286016111cc565b9250506020611455858286016111f6565b9150509250929050565b600061146b838361174f565b905092915050565b600061147f83836117a6565b905092915050565b6000611492826119cb565b61149c8185611a06565b9350836020820285016114ae85611996565b8060005b858110156114ea57848403895281516114cb858261145f565b94506114d6836119ec565b925060208a019950506001810190506114b2565b50829750879550505050505092915050565b6000611507826119d6565b6115118185611a17565b935083602082028501611523856119a6565b8060005b8581101561155f57848403895281516115408582611473565b945061154b836119f9565b925060208a01995050600181019050611527565b50829750879550505050505092915050565b61157a81611b53565b82525050565b61158981611b53565b82525050565b61159881611b5f565b82525050565b6115a781611b5f565b82525050565b60006115b8826119e1565b6115c28185611a28565b93506115d2818560208601611b82565b6115db81611d35565b840191505092915050565b60006115f1826119e1565b6115fb8185611a39565b935061160b818560208601611b82565b61161481611d35565b840191505092915050565b600061162a826119e1565b6116348185611a4a565b9350611644818560208601611b82565b80840191505092915050565b6000815461165d81611bb5565b6116678186611a4a565b945060018216600081146116825760018114611693576116c6565b60ff198316865281860193506116c6565b61169c856119b6565b60005b838110156116be5781548189015260018201915060208101905061169f565b838801955050505b50505092915050565b60006116dc600c83611a39565b91507f556e617574686f72697a656400000000000000000000000000000000000000006000830152602082019050919050565b600061171c600683611a4a565b91507f53797374656d00000000000000000000000000000000000000000000000000006000830152600682019050919050565b6000606083016000830151848203600086015261176c82826115ad565b9150506020830151611781602086018261158f565b506040830151848203604086015261179982826114fc565b9150508091505092915050565b60006080830160008301516117be600086018261158f565b50602083015184820360208601526117d682826115ad565b91505060408301516117eb6040860182611571565b5060608301516117fe6060860182611809565b508091505092915050565b61181281611b69565b82525050565b61182181611b69565b82525050565b6000611833828461161f565b915081905092915050565b600061184a8284611650565b915081905092915050565b60006118608261170f565b9150819050919050565b600060208201905081810360008301526118848184611487565b905092915050565b60006020820190506118a1600083018461159e565b92915050565b60006080820190506118bc600083018761159e565b81810360208301526118ce81866115e6565b90506118dd6040830185611580565b6118ea6060830184611818565b95945050505050565b6000602082019050818103600083015261190d81846115e6565b905092915050565b6000602082019050818103600083015261192e816116cf565b9050919050565b6000604051905081810181811067ffffffffffffffff8211171561195c5761195b611d06565b5b8060405250919050565b600067ffffffffffffffff82111561198157611980611d06565b5b601f19601f8301169050602081019050919050565b6000819050602082019050919050565b6000819050602082019050919050565b60008190508160005260206000209050919050565b600081519050919050565b600081519050919050565b600081519050919050565b6000602082019050919050565b6000602082019050919050565b600082825260208201905092915050565b600082825260208201905092915050565b600082825260208201905092915050565b600082825260208201905092915050565b600081905092915050565b6000611a6082611b5f565b9150611a6b83611b5f565b9250817f7fffffffffffffffffffffffffffffffffffffffffffffffffffffffffffffff03831360008312151615611aa657611aa5611c79565b5b817f8000000000000000000000000000000000000000000000000000000000000000038312600083121615611ade57611add611c79565b5b828201905092915050565b6000611af482611b5f565b9150611aff83611b5f565b925082611b0f57611b0e611ca8565b5b600160000383147f800000000000000000000000000000000000000000000000000000000000000083141615611b4857611b47611c79565b5b828205905092915050565b60008115159050919050565b6000819050919050565b6000819050919050565b82818337600083830152505050565b60005b83811015611ba0578082015181840152602081019050611b85565b83811115611baf576000848401525b50505050565b60006002820490506001821680611bcd57607f821691505b60208210811415611be157611be0611cd7565b5b50919050565b6000611bf282611b5f565b91507f7fffffffffffffffffffffffffffffffffffffffffffffffffffffffffffffff821415611c2557611c24611c79565b5b600182019050919050565b6000611c3b82611b69565b91507fffffffffffffffffffffffffffffffffffffffffffffffffffffffffffffffff821415611c6e57611c6d611c79565b5b600182019050919050565b7f4e487b7100000000000000000000000000000000000000000000000000000000600052601160045260246000fd5b7f4e487b7100000000000000000000000000000000000000000000000000000000600052601260045260246000fd5b7f4e487b7100000000000000000000000000000000000000000000000000000000600052602260045260246000fd5b7f4e487b7100000000000000000000000000000000000000000000000000000000600052604160045260246000fd5b6000601f19601f8301169050919050565b60038110611d5357600080fd5b50565b611d5f81611b5f565b8114611d6a57600080fd5b50565b611d7681611b69565b8114611d8157600080fd5b5056fea264697066735822122017df9316da4ead11a2767ee4d85ee82850b3b130c0467c96f527b79aef7490b164736f6c63430008000033",
  "immutableReferences": {},
  "source": "// SPDX-License-Identifier: UNLICENSED\npragma solidity ^0.8.0;\n\nimport \"./UserManagement.sol\";\n\ncontract SkillsManagement {\n    struct SkillsVotes {\n        int score; // 0 - 10\n        string verified_by;\n        bool isVerified;\n        uint256 date;\n    }\n\n    mapping(string => mapping(string => SkillsVotes[])) public employeeSkillsScore; // email => (skill => Votes[])\n    mapping(string => string[]) public employeeSkills;\n\n    UserManagement userManagement;\n\n    constructor(address userManagementAddress) {\n        userManagement = UserManagement(userManagementAddress);\n    }\n\n    modifier isEmployee(string memory email) {\n        require(\n            userManagement.getUserType(email) ==\n                UserManagement.UserType.Employee,\n            \"Unauthorized\"\n        );\n        _;\n    }\n\n    // Function to add a new Skill for an employee\n    function addSkill(\n        string memory email,\n        string memory skill,\n        int score,\n        string memory verified_by\n    ) public isEmployee(email) {\n        bool skillExists = false;\n\n        if (employeeSkillsScore[email][skill].length == 0 || keccak256(abi.encodePacked(verified_by)) == keccak256(abi.encodePacked(\"System\"))) {\n            employeeSkillsScore[email][skill].push(SkillsVotes({\n                score: score,\n                verified_by: verified_by,\n                isVerified: true,\n                date: block.timestamp\n            }));\n        } else {\n            skillExists = false;\n            bytes32 verifiedByHash = keccak256(abi.encodePacked(verified_by));\n            for (uint256 i = 0; i < employeeSkillsScore[email][skill].length; i++) {\n                if (keccak256(abi.encodePacked(employeeSkillsScore[email][skill][i].verified_by)) == verifiedByHash) {\n                    skillExists = true;\n                    break;\n                }\n            }\n            if (!skillExists) {\n                employeeSkillsScore[email][skill].push(SkillsVotes({\n                    score: score,\n                    verified_by: verified_by,\n                    isVerified: true,\n                    date: block.timestamp\n                }));\n            }\n        }\n\n        skillExists = false;\n        bytes32 skillHash = keccak256(abi.encodePacked(skill));\n        for (uint256 i = 0; i < employeeSkills[email].length; i++) {\n            if (keccak256(abi.encodePacked(employeeSkills[email][i])) == skillHash) {\n                skillExists = true;\n                break;\n            }\n        }\n        if (!skillExists) {\n            employeeSkills[email].push(skill);\n        }\n    }\n\n    // Function to get the average score of a skill\n    function getSkillScore(string memory email, string memory skill) public view returns (int) {\n        int totalScore = 0;\n        int totalVotes = 0;\n        for (uint256 i = 0; i < employeeSkillsScore[email][skill].length; i++) {\n            if (employeeSkillsScore[email][skill][i].isVerified) {\n                totalScore += employeeSkillsScore[email][skill][i].score;\n                totalVotes++;\n            }\n        }\n        if (totalVotes == 0) {\n            return 0;\n        }\n        return totalScore / totalVotes;\n    }\n\n    struct AllSkillsResponse {\n        string skill;\n        int avgscore;\n        SkillsVotes[] votes;\n    }\n\n    // Function to return all skills with average and their votes\n    function getSkills(string memory email) public view returns (AllSkillsResponse[] memory) {\n        AllSkillsResponse[] memory response = new AllSkillsResponse[](employeeSkills[email].length);\n        for (uint256 i = 0; i < employeeSkills[email].length; i++) {\n            response[i].skill = employeeSkills[email][i];\n            response[i].avgscore = getSkillScore(email, employeeSkills[email][i]);\n            response[i].votes = employeeSkillsScore[email][employeeSkills[email][i]];\n        }\n        return response;\n    }\n}",
  "sourcePath": "/Users/hchauhan/Downloads/verified-hire FastAPI/contracts/SkillsManagement.sol",
  "compiler": {
    "name": "solc",
    "version": "0.8.0+commit.c7dfd78e.Emscripten.clang"
  },
  "schemaVersion": "3.4.16",
  "updatedAt": "2024-05-24T20:41:51.872Z",
  "networkType": "ethereum",
  "devdoc": {
    "kind": "dev",
    "methods": {},
    "version": 1
  },
  "userdoc": {
    "kind": "user",
    "methods": {},
    "version": 1
  }
}