{
  "contractName": "UserManagement",
  "abi": [
    {
      "anonymous": false,
      "inputs": [
        {
          "indexed": false,
          "internalType": "string",
          "name": "email",
          "type": "string"
        },
        {
          "indexed": false,
          "internalType": "int256",
          "name": "previousBalance",
          "type": "int256"
        },
        {
          "indexed": false,
          "internalType": "int256",
          "name": "newBalance",
          "type": "int256"
        },
        {
          "indexed": false,
          "internalType": "string",
          "name": "txnComment",
          "type": "string"
        },
        {
          "indexed": false,
          "internalType": "uint256",
          "name": "timestamp",
          "type": "uint256"
        },
        {
          "indexed": false,
          "internalType": "string",
          "name": "updatedBy",
          "type": "string"
        }
      ],
      "name": "CreditsUpdated",
      "type": "event"
    },
    {
      "anonymous": false,
      "inputs": [
        {
          "indexed": false,
          "internalType": "string",
          "name": "email",
          "type": "string"
        },
        {
          "indexed": false,
          "internalType": "string",
          "name": "name",
          "type": "string"
        },
        {
          "indexed": false,
          "internalType": "enum UserManagement.UserType",
          "name": "userType",
          "type": "uint8"
        },
        {
          "indexed": false,
          "internalType": "uint256",
          "name": "timestamp",
          "type": "uint256"
        }
      ],
      "name": "NewUserRegistered",
      "type": "event"
    },
    {
      "anonymous": false,
      "inputs": [
        {
          "indexed": false,
          "internalType": "string",
          "name": "email",
          "type": "string"
        },
        {
          "indexed": false,
          "internalType": "enum UserManagement.UserStatus",
          "name": "previousStatus",
          "type": "uint8"
        },
        {
          "indexed": false,
          "internalType": "enum UserManagement.UserStatus",
          "name": "newStatus",
          "type": "uint8"
        },
        {
          "indexed": false,
          "internalType": "uint256",
          "name": "timestamp",
          "type": "uint256"
        },
        {
          "indexed": false,
          "internalType": "string",
          "name": "reason",
          "type": "string"
        },
        {
          "indexed": false,
          "internalType": "string",
          "name": "updatedBy",
          "type": "string"
        }
      ],
      "name": "StatusChanged",
      "type": "event"
    },
    {
      "inputs": [
        {
          "internalType": "uint256",
          "name": "",
          "type": "uint256"
        }
      ],
      "name": "registeredUserEmails",
      "outputs": [
        {
          "internalType": "string",
          "name": "",
          "type": "string"
        }
      ],
      "stateMutability": "view",
      "type": "function",
      "constant": true
    },
    {
      "inputs": [
        {
          "internalType": "string",
          "name": "",
          "type": "string"
        },
        {
          "internalType": "uint256",
          "name": "",
          "type": "uint256"
        }
      ],
      "name": "userCreditHistory",
      "outputs": [
        {
          "internalType": "int256",
          "name": "previousBalance",
          "type": "int256"
        },
        {
          "internalType": "int256",
          "name": "creditChange",
          "type": "int256"
        },
        {
          "internalType": "int256",
          "name": "newBalance",
          "type": "int256"
        },
        {
          "internalType": "string",
          "name": "txnComment",
          "type": "string"
        },
        {
          "internalType": "string",
          "name": "updatedBy",
          "type": "string"
        },
        {
          "internalType": "uint256",
          "name": "updateTimestamp",
          "type": "uint256"
        }
      ],
      "stateMutability": "view",
      "type": "function",
      "constant": true
    },
    {
      "inputs": [
        {
          "internalType": "string",
          "name": "",
          "type": "string"
        }
      ],
      "name": "userCurrentAddress",
      "outputs": [
        {
          "internalType": "string",
          "name": "",
          "type": "string"
        }
      ],
      "stateMutability": "view",
      "type": "function",
      "constant": true
    },
    {
      "inputs": [
        {
          "internalType": "string",
          "name": "",
          "type": "string"
        }
      ],
      "name": "userCurrentCredits",
      "outputs": [
        {
          "internalType": "int256",
          "name": "",
          "type": "int256"
        }
      ],
      "stateMutability": "view",
      "type": "function",
      "constant": true
    },
    {
      "inputs": [
        {
          "internalType": "string",
          "name": "",
          "type": "string"
        }
      ],
      "name": "userCurrentStatus",
      "outputs": [
        {
          "internalType": "enum UserManagement.UserStatus",
          "name": "",
          "type": "uint8"
        }
      ],
      "stateMutability": "view",
      "type": "function",
      "constant": true
    },
    {
      "inputs": [
        {
          "internalType": "string",
          "name": "",
          "type": "string"
        }
      ],
      "name": "userDetails",
      "outputs": [
        {
          "internalType": "string",
          "name": "name",
          "type": "string"
        },
        {
          "internalType": "string",
          "name": "email",
          "type": "string"
        },
        {
          "internalType": "enum UserManagement.Gender",
          "name": "gender",
          "type": "uint8"
        },
        {
          "internalType": "string",
          "name": "phone",
          "type": "string"
        },
        {
          "internalType": "enum UserManagement.UserType",
          "name": "userType",
          "type": "uint8"
        }
      ],
      "stateMutability": "view",
      "type": "function",
      "constant": true
    },
    {
      "inputs": [
        {
          "internalType": "string",
          "name": "",
          "type": "string"
        }
      ],
      "name": "userPasswords",
      "outputs": [
        {
          "internalType": "string",
          "name": "",
          "type": "string"
        }
      ],
      "stateMutability": "view",
      "type": "function",
      "constant": true
    },
    {
      "inputs": [
        {
          "internalType": "string",
          "name": "",
          "type": "string"
        }
      ],
      "name": "userProfilePic",
      "outputs": [
        {
          "internalType": "string",
          "name": "",
          "type": "string"
        }
      ],
      "stateMutability": "view",
      "type": "function",
      "constant": true
    },
    {
      "inputs": [
        {
          "internalType": "string",
          "name": "",
          "type": "string"
        }
      ],
      "name": "userSessions",
      "outputs": [
        {
          "internalType": "string",
          "name": "email",
          "type": "string"
        },
        {
          "internalType": "uint256",
          "name": "loginTime",
          "type": "uint256"
        },
        {
          "internalType": "uint256",
          "name": "logoutTime",
          "type": "uint256"
        },
        {
          "internalType": "bool",
          "name": "isSessionActive",
          "type": "bool"
        }
      ],
      "stateMutability": "view",
      "type": "function",
      "constant": true
    },
    {
      "inputs": [
        {
          "internalType": "string",
          "name": "",
          "type": "string"
        },
        {
          "internalType": "uint256",
          "name": "",
          "type": "uint256"
        }
      ],
      "name": "userStatusHistory",
      "outputs": [
        {
          "internalType": "enum UserManagement.UserStatus",
          "name": "status",
          "type": "uint8"
        },
        {
          "internalType": "uint256",
          "name": "timestamp",
          "type": "uint256"
        },
        {
          "internalType": "string",
          "name": "reason",
          "type": "string"
        },
        {
          "internalType": "string",
          "name": "updatedBy",
          "type": "string"
        }
      ],
      "stateMutability": "view",
      "type": "function",
      "constant": true
    },
    {
      "inputs": [
        {
          "internalType": "string",
          "name": "name",
          "type": "string"
        },
        {
          "internalType": "string",
          "name": "email",
          "type": "string"
        },
        {
          "internalType": "enum UserManagement.Gender",
          "name": "gender",
          "type": "uint8"
        },
        {
          "internalType": "string",
          "name": "phone",
          "type": "string"
        },
        {
          "internalType": "enum UserManagement.UserType",
          "name": "userType",
          "type": "uint8"
        },
        {
          "internalType": "string",
          "name": "password",
          "type": "string"
        }
      ],
      "name": "registerUser",
      "outputs": [],
      "stateMutability": "nonpayable",
      "type": "function"
    },
    {
      "inputs": [
        {
          "internalType": "string",
          "name": "email",
          "type": "string"
        }
      ],
      "name": "doesUserExist",
      "outputs": [
        {
          "internalType": "bool",
          "name": "",
          "type": "bool"
        }
      ],
      "stateMutability": "view",
      "type": "function",
      "constant": true
    },
    {
      "inputs": [],
      "name": "listAllUsers",
      "outputs": [
        {
          "components": [
            {
              "internalType": "string",
              "name": "name",
              "type": "string"
            },
            {
              "internalType": "string",
              "name": "email",
              "type": "string"
            },
            {
              "internalType": "enum UserManagement.Gender",
              "name": "gender",
              "type": "uint8"
            },
            {
              "internalType": "string",
              "name": "phone",
              "type": "string"
            },
            {
              "internalType": "enum UserManagement.UserType",
              "name": "userType",
              "type": "uint8"
            }
          ],
          "internalType": "struct UserManagement.User[]",
          "name": "",
          "type": "tuple[]"
        }
      ],
      "stateMutability": "view",
      "type": "function",
      "constant": true
    },
    {
      "inputs": [
        {
          "internalType": "string",
          "name": "email",
          "type": "string"
        }
      ],
      "name": "getUser",
      "outputs": [
        {
          "components": [
            {
              "internalType": "string",
              "name": "name",
              "type": "string"
            },
            {
              "internalType": "string",
              "name": "email",
              "type": "string"
            },
            {
              "internalType": "enum UserManagement.Gender",
              "name": "gender",
              "type": "uint8"
            },
            {
              "internalType": "string",
              "name": "phone",
              "type": "string"
            },
            {
              "internalType": "enum UserManagement.UserType",
              "name": "userType",
              "type": "uint8"
            }
          ],
          "internalType": "struct UserManagement.User",
          "name": "",
          "type": "tuple"
        }
      ],
      "stateMutability": "view",
      "type": "function",
      "constant": true
    },
    {
      "inputs": [
        {
          "internalType": "string",
          "name": "email",
          "type": "string"
        },
        {
          "internalType": "string",
          "name": "password",
          "type": "string"
        },
        {
          "internalType": "string",
          "name": "session_id",
          "type": "string"
        },
        {
          "internalType": "enum UserManagement.UserType",
          "name": "role",
          "type": "uint8"
        }
      ],
      "name": "login",
      "outputs": [
        {
          "internalType": "bool",
          "name": "",
          "type": "bool"
        }
      ],
      "stateMutability": "nonpayable",
      "type": "function"
    },
    {
      "inputs": [
        {
          "internalType": "string",
          "name": "email",
          "type": "string"
        }
      ],
      "name": "getUserProfile",
      "outputs": [
        {
          "components": [
            {
              "components": [
                {
                  "internalType": "string",
                  "name": "name",
                  "type": "string"
                },
                {
                  "internalType": "string",
                  "name": "email",
                  "type": "string"
                },
                {
                  "internalType": "enum UserManagement.Gender",
                  "name": "gender",
                  "type": "uint8"
                },
                {
                  "internalType": "string",
                  "name": "phone",
                  "type": "string"
                },
                {
                  "internalType": "enum UserManagement.UserType",
                  "name": "userType",
                  "type": "uint8"
                }
              ],
              "internalType": "struct UserManagement.User",
              "name": "User",
              "type": "tuple"
            },
            {
              "components": [
                {
                  "internalType": "enum UserManagement.UserStatus",
                  "name": "status",
                  "type": "uint8"
                },
                {
                  "internalType": "uint256",
                  "name": "timestamp",
                  "type": "uint256"
                },
                {
                  "internalType": "string",
                  "name": "reason",
                  "type": "string"
                },
                {
                  "internalType": "string",
                  "name": "updatedBy",
                  "type": "string"
                }
              ],
              "internalType": "struct UserManagement.StatusHistory[]",
              "name": "history_status",
              "type": "tuple[]"
            },
            {
              "components": [
                {
                  "internalType": "int256",
                  "name": "previousBalance",
                  "type": "int256"
                },
                {
                  "internalType": "int256",
                  "name": "creditChange",
                  "type": "int256"
                },
                {
                  "internalType": "int256",
                  "name": "newBalance",
                  "type": "int256"
                },
                {
                  "internalType": "string",
                  "name": "txnComment",
                  "type": "string"
                },
                {
                  "internalType": "string",
                  "name": "updatedBy",
                  "type": "string"
                },
                {
                  "internalType": "uint256",
                  "name": "updateTimestamp",
                  "type": "uint256"
                }
              ],
              "internalType": "struct UserManagement.CreditHistory[]",
              "name": "history_credit",
              "type": "tuple[]"
            }
          ],
          "internalType": "struct UserManagement.Profile",
          "name": "",
          "type": "tuple"
        }
      ],
      "stateMutability": "view",
      "type": "function",
      "constant": true
    },
    {
      "inputs": [
        {
          "internalType": "string",
          "name": "session_id",
          "type": "string"
        }
      ],
      "name": "logout",
      "outputs": [],
      "stateMutability": "nonpayable",
      "type": "function"
    },
    {
      "inputs": [
        {
          "internalType": "string",
          "name": "session_id",
          "type": "string"
        }
      ],
      "name": "isSessionActive",
      "outputs": [
        {
          "internalType": "bool",
          "name": "",
          "type": "bool"
        }
      ],
      "stateMutability": "view",
      "type": "function",
      "constant": true
    },
    {
      "inputs": [
        {
          "internalType": "string",
          "name": "session_id",
          "type": "string"
        }
      ],
      "name": "sessionData",
      "outputs": [
        {
          "internalType": "string",
          "name": "",
          "type": "string"
        }
      ],
      "stateMutability": "view",
      "type": "function",
      "constant": true
    },
    {
      "inputs": [
        {
          "internalType": "string",
          "name": "email",
          "type": "string"
        },
        {
          "internalType": "string",
          "name": "name",
          "type": "string"
        },
        {
          "internalType": "enum UserManagement.Gender",
          "name": "gender",
          "type": "uint8"
        },
        {
          "internalType": "string",
          "name": "phone",
          "type": "string"
        },
        {
          "internalType": "enum UserManagement.UserType",
          "name": "userType",
          "type": "uint8"
        }
      ],
      "name": "updateUserDetails",
      "outputs": [],
      "stateMutability": "nonpayable",
      "type": "function"
    },
    {
      "inputs": [
        {
          "internalType": "string",
          "name": "email",
          "type": "string"
        },
        {
          "internalType": "string",
          "name": "newPassword",
          "type": "string"
        }
      ],
      "name": "changePassword",
      "outputs": [],
      "stateMutability": "nonpayable",
      "type": "function"
    },
    {
      "inputs": [
        {
          "internalType": "string",
          "name": "email",
          "type": "string"
        },
        {
          "internalType": "string",
          "name": "reason",
          "type": "string"
        },
        {
          "internalType": "string",
          "name": "updatedBy",
          "type": "string"
        }
      ],
      "name": "deactivateUser",
      "outputs": [],
      "stateMutability": "nonpayable",
      "type": "function"
    },
    {
      "inputs": [
        {
          "internalType": "string",
          "name": "email",
          "type": "string"
        },
        {
          "internalType": "string",
          "name": "reason",
          "type": "string"
        },
        {
          "internalType": "string",
          "name": "updatedBy",
          "type": "string"
        }
      ],
      "name": "activateUser",
      "outputs": [],
      "stateMutability": "nonpayable",
      "type": "function"
    },
    {
      "inputs": [
        {
          "internalType": "string",
          "name": "email",
          "type": "string"
        }
      ],
      "name": "getCurrentStatus",
      "outputs": [
        {
          "internalType": "enum UserManagement.UserStatus",
          "name": "",
          "type": "uint8"
        }
      ],
      "stateMutability": "view",
      "type": "function",
      "constant": true
    },
    {
      "inputs": [
        {
          "internalType": "string",
          "name": "email",
          "type": "string"
        }
      ],
      "name": "getStatusHistory",
      "outputs": [
        {
          "components": [
            {
              "internalType": "enum UserManagement.UserStatus",
              "name": "status",
              "type": "uint8"
            },
            {
              "internalType": "uint256",
              "name": "timestamp",
              "type": "uint256"
            },
            {
              "internalType": "string",
              "name": "reason",
              "type": "string"
            },
            {
              "internalType": "string",
              "name": "updatedBy",
              "type": "string"
            }
          ],
          "internalType": "struct UserManagement.StatusHistory[]",
          "name": "",
          "type": "tuple[]"
        }
      ],
      "stateMutability": "view",
      "type": "function",
      "constant": true
    },
    {
      "inputs": [
        {
          "internalType": "string",
          "name": "email",
          "type": "string"
        },
        {
          "internalType": "string",
          "name": "newAddress",
          "type": "string"
        }
      ],
      "name": "updateAddress",
      "outputs": [],
      "stateMutability": "nonpayable",
      "type": "function"
    },
    {
      "inputs": [
        {
          "internalType": "string",
          "name": "email",
          "type": "string"
        }
      ],
      "name": "getCurrentAddress",
      "outputs": [
        {
          "internalType": "string",
          "name": "",
          "type": "string"
        }
      ],
      "stateMutability": "view",
      "type": "function",
      "constant": true
    },
    {
      "inputs": [
        {
          "internalType": "string",
          "name": "email",
          "type": "string"
        },
        {
          "internalType": "string",
          "name": "filename",
          "type": "string"
        }
      ],
      "name": "updateProfilePic",
      "outputs": [],
      "stateMutability": "nonpayable",
      "type": "function"
    },
    {
      "inputs": [
        {
          "internalType": "string",
          "name": "email",
          "type": "string"
        }
      ],
      "name": "getProfilePic",
      "outputs": [
        {
          "internalType": "string",
          "name": "",
          "type": "string"
        }
      ],
      "stateMutability": "view",
      "type": "function",
      "constant": true
    },
    {
      "inputs": [
        {
          "internalType": "string",
          "name": "email",
          "type": "string"
        },
        {
          "internalType": "int256",
          "name": "credits",
          "type": "int256"
        },
        {
          "internalType": "string",
          "name": "txnComment",
          "type": "string"
        },
        {
          "internalType": "string",
          "name": "updatedBy",
          "type": "string"
        }
      ],
      "name": "updateCredits",
      "outputs": [],
      "stateMutability": "nonpayable",
      "type": "function"
    },
    {
      "inputs": [
        {
          "internalType": "string",
          "name": "email",
          "type": "string"
        }
      ],
      "name": "getUserCredits",
      "outputs": [
        {
          "internalType": "int256",
          "name": "",
          "type": "int256"
        }
      ],
      "stateMutability": "view",
      "type": "function",
      "constant": true
    },
    {
      "inputs": [
        {
          "internalType": "string",
          "name": "email",
          "type": "string"
        }
      ],
      "name": "getCreditHistory",
      "outputs": [
        {
          "components": [
            {
              "internalType": "int256",
              "name": "previousBalance",
              "type": "int256"
            },
            {
              "internalType": "int256",
              "name": "creditChange",
              "type": "int256"
            },
            {
              "internalType": "int256",
              "name": "newBalance",
              "type": "int256"
            },
            {
              "internalType": "string",
              "name": "txnComment",
              "type": "string"
            },
            {
              "internalType": "string",
              "name": "updatedBy",
              "type": "string"
            },
            {
              "internalType": "uint256",
              "name": "updateTimestamp",
              "type": "uint256"
            }
          ],
          "internalType": "struct UserManagement.CreditHistory[]",
          "name": "",
          "type": "tuple[]"
        }
      ],
      "stateMutability": "view",
      "type": "function",
      "constant": true
    },
    {
      "inputs": [
        {
          "internalType": "string",
          "name": "email",
          "type": "string"
        }
      ],
      "name": "getUserType",
      "outputs": [
        {
          "internalType": "enum UserManagement.UserType",
          "name": "",
          "type": "uint8"
        }
      ],
      "stateMutability": "view",
      "type": "function",
      "constant": true
    }
  ],
  "bytecode": "0x608060405234801561001057600080fd5b50614f00806100206000396000f3fe608060405234801561001057600080fd5b50600436106101fb5760003560e01c806383181e721161011a578063bcf26770116100ad578063dcbbeac81161007c578063dcbbeac8146106ac578063e6b58e5f146106c8578063e9c38dc9146106f8578063ec13eac11461072d578063fdad612214610749576101fb565b8063bcf2677014610600578063c2de9ab214610630578063c62fa25c14610660578063cca55dff14610690576101fb565b80639262d280116100e95780639262d2801461053d5780639c80298014610570578063a81203b6146105a0578063a8c954e7146105d0576101fb565b806383181e721461049157806384a83662146104c157806384cb7cec146104dd57806384d5d0fd1461050d576101fb565b80634cbee813116101925780637ba20a4d116101615780637ba20a4d146103f95780637be1bb1b146104295780637ecfabaf146104595780637ef94cdd14610475576101fb565b80634cbee8131461034a5780635a06a7181461036657806372cc7743146103965780637483271a146103c6576101fb565b806331feb671116101ce57806331feb6711461028657806334a62273146102b65780633d2b7a89146102e6578063465ca6641461031a576101fb565b8063024084c3146102005780630c90d010146102305780630d7087e91461024c57806330567e6d1461026a575b600080fd5b61021a60048036038101906102159190613852565b610779565b604051610227919061458d565b60405180910390f35b61024a60048036038101906102459190613893565b6109ab565b005b610254610bbb565b60405161026191906145af565b60405180910390f35b610284600480360381019061027f9190613b52565b610fe0565b005b6102a0600480360381019061029b9190613852565b611064565b6040516102ad91906149f6565b60405180910390f35b6102d060048036038101906102cb9190613852565b611360565b6040516102dd91906146ff565b60405180910390f35b61030060048036038101906102fb9190613852565b611416565b60405161031195949392919061480d565b60405180910390f35b610334600480360381019061032f9190613852565b611614565b60405161034191906146ff565b60405180910390f35b610364600480360381019061035f9190613852565b6116c4565b005b610380600480360381019061037b9190613ce8565b611795565b60405161038d91906146ff565b60405180910390f35b6103b060048036038101906103ab9190613852565b611841565b6040516103bd919061456b565b60405180910390f35b6103e060048036038101906103db9190613c94565b611a0a565b6040516103f09493929190614607565b60405180910390f35b610413600480360381019061040e9190613852565b611b8a565b604051610420919061465a565b60405180910390f35b610443600480360381019061043e9190613852565b611bc1565b60405161045091906145ec565b60405180910390f35b610473600480360381019061046e9190613a69565b611bf6565b005b61048f600480360381019061048a9190613b52565b6120d2565b005b6104ab60048036038101906104a69190613852565b612156565b6040516104b891906146ff565b60405180910390f35b6104db60048036038101906104d6919061393e565b612206565b005b6104f760048036038101906104f29190613852565b61235d565b60405161050491906145d1565b60405180910390f35b61052760048036038101906105229190613852565b612397565b6040516105349190614675565b60405180910390f35b61055760048036038101906105529190613852565b6123bf565b60405161056794939291906148c8565b60405180910390f35b61058a60048036038101906105859190613852565b61249a565b60405161059791906145d1565b60405180910390f35b6105ba60048036038101906105b59190613852565b6124d2565b6040516105c791906149d4565b60405180910390f35b6105ea60048036038101906105e59190613852565b61251a565b6040516105f79190614675565b60405180910390f35b61061a60048036038101906106159190613852565b612548565b60405161062791906146ff565b60405180910390f35b61064a60048036038101906106459190613852565b6125fe565b60405161065791906146ff565b60405180910390f35b61067a60048036038101906106759190613852565b61271f565b60405161068791906145ec565b60405180910390f35b6106aa60048036038101906106a5919061393e565b612755565b005b6106c660048036038101906106c191906139aa565b6127fe565b005b6106e260048036038101906106dd9190613be9565b6129c1565b6040516106ef91906145d1565b60405180910390f35b610712600480360381019061070d9190613c94565b612d0b565b60405161072496959493929190614690565b60405180910390f35b6107476004803603810190610742919061393e565b612e8a565b005b610763600480360381019061075e9190613852565b612f33565b60405161077091906146ff565b60405180910390f35b606060038260405161078b919061453d565b9081526020016040518091039020805480602002602001604051908101604052809291908181526020016000905b828210156109a057838290600052602060002090600402016040518060800160405290816000820160009054906101000a900460ff166002811115610827577f4e487b7100000000000000000000000000000000000000000000000000000000600052602160045260246000fd5b600281111561085f577f4e487b7100000000000000000000000000000000000000000000000000000000600052602160045260246000fd5b81526020016001820154815260200160028201805461087d90614cf8565b80601f01602080910402602001604051908101604052809291908181526020018280546108a990614cf8565b80156108f65780601f106108cb576101008083540402835291602001916108f6565b820191906000526020600020905b8154815290600101906020018083116108d957829003601f168201915b5050505050815260200160038201805461090f90614cf8565b80601f016020809104026020016040519081016040528092919081815260200182805461093b90614cf8565b80156109885780601f1061095d57610100808354040283529160200191610988565b820191906000526020600020905b81548152906001019060200180831161096b57829003601f168201915b505050505081525050815260200190600101906107b9565b505050509050919050565b83600080826040516109bd919061453d565b908152602001604051809103902060010180546109d990614cf8565b90501415610a1c576040517f08c379a0000000000000000000000000000000000000000000000000000000008152600401610a1390614954565b60405180910390fd5b8460016002811115610a57577f4e487b7100000000000000000000000000000000000000000000000000000000600052602160045260246000fd5b600082604051610a67919061453d565b908152602001604051809103902060040160009054906101000a900460ff166002811115610abe577f4e487b7100000000000000000000000000000000000000000000000000000000600052602160045260246000fd5b1480610b68575060006002811115610aff577f4e487b7100000000000000000000000000000000000000000000000000000000600052602160045260246000fd5b600082604051610b0f919061453d565b908152602001604051809103902060040160009054906101000a900460ff166002811115610b66577f4e487b7100000000000000000000000000000000000000000000000000000000600052602160045260246000fd5b145b610ba7576040517f08c379a0000000000000000000000000000000000000000000000000000000008152600401610b9e90614934565b60405180910390fd5b610bb386868686612fe9565b505050505050565b60606000600980549050905060008167ffffffffffffffff811115610c09577f4e487b7100000000000000000000000000000000000000000000000000000000600052604160045260246000fd5b604051908082528060200260200182016040528015610c4257816020015b610c2f61362d565b815260200190600190039081610c275790505b50905060005b82811015610fd757600060098281548110610c8c577f4e487b7100000000000000000000000000000000000000000000000000000000600052603260045260246000fd5b90600052602060002001604051610ca39190614554565b90815260200160405180910390206040518060a0016040529081600082018054610ccc90614cf8565b80601f0160208091040260200160405190810160405280929190818152602001828054610cf890614cf8565b8015610d455780601f10610d1a57610100808354040283529160200191610d45565b820191906000526020600020905b815481529060010190602001808311610d2857829003601f168201915b50505050508152602001600182018054610d5e90614cf8565b80601f0160208091040260200160405190810160405280929190818152602001828054610d8a90614cf8565b8015610dd75780601f10610dac57610100808354040283529160200191610dd7565b820191906000526020600020905b815481529060010190602001808311610dba57829003601f168201915b505050505081526020016002820160009054906101000a900460ff166002811115610e2b577f4e487b7100000000000000000000000000000000000000000000000000000000600052602160045260246000fd5b6002811115610e63577f4e487b7100000000000000000000000000000000000000000000000000000000600052602160045260246000fd5b8152602001600382018054610e7790614cf8565b80601f0160208091040260200160405190810160405280929190818152602001828054610ea390614cf8565b8015610ef05780601f10610ec557610100808354040283529160200191610ef0565b820191906000526020600020905b815481529060010190602001808311610ed357829003601f168201915b505050505081526020016004820160009054906101000a900460ff166002811115610f44577f4e487b7100000000000000000000000000000000000000000000000000000000600052602160045260246000fd5b6002811115610f7c577f4e487b7100000000000000000000000000000000000000000000000000000000600052602160045260246000fd5b81525050828281518110610fb9577f4e487b7100000000000000000000000000000000000000000000000000000000600052603260045260246000fd5b60200260200101819052508080610fcf90614d2a565b915050610c48565b50809250505090565b8260008082604051610ff2919061453d565b9081526020016040518091039020600101805461100e90614cf8565b90501415611051576040517f08c379a000000000000000000000000000000000000000000000000000000000815260040161104890614954565b60405180910390fd5b61105e846002858561339b565b50505050565b61106c61362d565b60008260405161107c919061453d565b90815260200160405180910390206040518060a00160405290816000820180546110a590614cf8565b80601f01602080910402602001604051908101604052809291908181526020018280546110d190614cf8565b801561111e5780601f106110f35761010080835404028352916020019161111e565b820191906000526020600020905b81548152906001019060200180831161110157829003601f168201915b5050505050815260200160018201805461113790614cf8565b80601f016020809104026020016040519081016040528092919081815260200182805461116390614cf8565b80156111b05780601f10611185576101008083540402835291602001916111b0565b820191906000526020600020905b81548152906001019060200180831161119357829003601f168201915b505050505081526020016002820160009054906101000a900460ff166002811115611204577f4e487b7100000000000000000000000000000000000000000000000000000000600052602160045260246000fd5b600281111561123c577f4e487b7100000000000000000000000000000000000000000000000000000000600052602160045260246000fd5b815260200160038201805461125090614cf8565b80601f016020809104026020016040519081016040528092919081815260200182805461127c90614cf8565b80156112c95780601f1061129e576101008083540402835291602001916112c9565b820191906000526020600020905b8154815290600101906020018083116112ac57829003601f168201915b505050505081526020016004820160009054906101000a900460ff16600281111561131d577f4e487b7100000000000000000000000000000000000000000000000000000000600052602160045260246000fd5b6002811115611355577f4e487b7100000000000000000000000000000000000000000000000000000000600052602160045260246000fd5b815250509050919050565b600681805160208101820180518482526020830160208501208183528095505050505050600091509050805461139590614cf8565b80601f01602080910402602001604051908101604052809291908181526020018280546113c190614cf8565b801561140e5780601f106113e35761010080835404028352916020019161140e565b820191906000526020600020905b8154815290600101906020018083116113f157829003601f168201915b505050505081565b60008180516020810182018051848252602083016020850120818352809550505050505060009150905080600001805461144f90614cf8565b80601f016020809104026020016040519081016040528092919081815260200182805461147b90614cf8565b80156114c85780601f1061149d576101008083540402835291602001916114c8565b820191906000526020600020905b8154815290600101906020018083116114ab57829003601f168201915b5050505050908060010180546114dd90614cf8565b80601f016020809104026020016040519081016040528092919081815260200182805461150990614cf8565b80156115565780601f1061152b57610100808354040283529160200191611556565b820191906000526020600020905b81548152906001019060200180831161153957829003601f168201915b5050505050908060020160009054906101000a900460ff169080600301805461157e90614cf8565b80601f01602080910402602001604051908101604052809291908181526020018280546115aa90614cf8565b80156115f75780601f106115cc576101008083540402835291602001916115f7565b820191906000526020600020905b8154815290600101906020018083116115da57829003601f168201915b5050505050908060040160009054906101000a900460ff16905085565b6060600682604051611626919061453d565b9081526020016040518091039020805461163f90614cf8565b80601f016020809104026020016040519081016040528092919081815260200182805461166b90614cf8565b80156116b85780601f1061168d576101008083540402835291602001916116b8565b820191906000526020600020905b81548152906001019060200180831161169b57829003601f168201915b50505050509050919050565b6008816040516116d4919061453d565b908152602001604051809103902060030160009054906101000a900460ff16611732576040517f08c379a000000000000000000000000000000000000000000000000000000000815260040161172990614914565b60405180910390fd5b42600882604051611743919061453d565b908152602001604051809103902060020181905550600060088260405161176a919061453d565b908152602001604051809103902060030160006101000a81548160ff02191690831515021790555050565b600981815481106117a557600080fd5b9060005260206000200160009150905080546117c090614cf8565b80601f01602080910402602001604051908101604052809291908181526020018280546117ec90614cf8565b80156118395780601f1061180e57610100808354040283529160200191611839565b820191906000526020600020905b81548152906001019060200180831161181c57829003601f168201915b505050505081565b6060600582604051611853919061453d565b9081526020016040518091039020805480602002602001604051908101604052809291908181526020016000905b828210156119ff57838290600052602060002090600602016040518060c00160405290816000820154815260200160018201548152602001600282015481526020016003820180546118d290614cf8565b80601f01602080910402602001604051908101604052809291908181526020018280546118fe90614cf8565b801561194b5780601f106119205761010080835404028352916020019161194b565b820191906000526020600020905b81548152906001019060200180831161192e57829003601f168201915b5050505050815260200160048201805461196490614cf8565b80601f016020809104026020016040519081016040528092919081815260200182805461199090614cf8565b80156119dd5780601f106119b2576101008083540402835291602001916119dd565b820191906000526020600020905b8154815290600101906020018083116119c057829003601f168201915b5050505050815260200160058201548152505081526020019060010190611881565b505050509050919050565b6003828051602081018201805184825260208301602085012081835280955050505050508181548110611a3c57600080fd5b9060005260206000209060040201600091509150508060000160009054906101000a900460ff1690806001015490806002018054611a7990614cf8565b80601f0160208091040260200160405190810160405280929190818152602001828054611aa590614cf8565b8015611af25780601f10611ac757610100808354040283529160200191611af2565b820191906000526020600020905b815481529060010190602001808311611ad557829003601f168201915b505050505090806003018054611b0790614cf8565b80601f0160208091040260200160405190810160405280929190818152602001828054611b3390614cf8565b8015611b805780601f10611b5557610100808354040283529160200191611b80565b820191906000526020600020905b815481529060010190602001808311611b6357829003601f168201915b5050505050905084565b60008082604051611b9b919061453d565b908152602001604051809103902060040160009054906101000a900460ff169050919050565b6000600182604051611bd3919061453d565b908152602001604051809103902060009054906101000a900460ff169050919050565b60008086604051611c07919061453d565b90815260200160405180910390206001018054611c2390614cf8565b905014611c65576040517f08c379a0000000000000000000000000000000000000000000000000000000008152600401611c5c90614974565b60405180910390fd5b60006040518060a00160405280888152602001878152602001866002811115611cb7577f4e487b7100000000000000000000000000000000000000000000000000000000600052602160045260246000fd5b8152602001858152602001846002811115611cfb577f4e487b7100000000000000000000000000000000000000000000000000000000600052602160045260246000fd5b815250905080600087604051611d11919061453d565b90815260200160405180910390206000820151816000019080519060200190611d3b9291906136cc565b506020820151816001019080519060200190611d589291906136cc565b5060408201518160020160006101000a81548160ff02191690836002811115611daa577f4e487b7100000000000000000000000000000000000000000000000000000000600052602160045260246000fd5b02179055506060820151816003019080519060200190611dcb9291906136cc565b5060808201518160040160006101000a81548160ff02191690836002811115611e1d577f4e487b7100000000000000000000000000000000000000000000000000000000600052602160045260246000fd5b02179055509050506000600187604051611e37919061453d565b908152602001604051809103902060006101000a81548160ff02191690836002811115611e8d577f4e487b7100000000000000000000000000000000000000000000000000000000600052602160045260246000fd5b021790555081600287604051611ea3919061453d565b90815260200160405180910390209080519060200190611ec49291906136cc565b506000600487604051611ed7919061453d565b908152602001604051809103902081905550600986908060018154018082558091505060019003906000526020600020016000909190919091509080519060200190611f249291906136cc565b50611f9c8660006040518060400160405280600f81526020017f55736572207265676973746572656400000000000000000000000000000000008152506040518060400160405280600681526020017f53797374656d000000000000000000000000000000000000000000000000000081525061339b565b600280811115611fd5577f4e487b7100000000000000000000000000000000000000000000000000000000600052602160045260246000fd5b83600281111561200e577f4e487b7100000000000000000000000000000000000000000000000000000000600052602160045260246000fd5b1461208c5761208b866103e86040518060400160405280601281526020017f526567697374726174696f6e20426f6e757300000000000000000000000000008152506040518060400160405280600681526020017f53797374656d0000000000000000000000000000000000000000000000000000815250612fe9565b5b7fa299623a416ba1425eec97922b7f739daa6e9d512d3ced8ac2774e5cc6b48fe8868885426040516120c19493929190614875565b60405180910390a150505050505050565b82600080826040516120e4919061453d565b9081526020016040518091039020600101805461210090614cf8565b90501415612143576040517f08c379a000000000000000000000000000000000000000000000000000000000815260040161213a90614954565b60405180910390fd5b612150846001858561339b565b50505050565b6060600782604051612168919061453d565b9081526020016040518091039020805461218190614cf8565b80601f01602080910402602001604051908101604052809291908181526020018280546121ad90614cf8565b80156121fa5780601f106121cf576101008083540402835291602001916121fa565b820191906000526020600020905b8154815290600101906020018083116121dd57829003601f168201915b50505050509050919050565b8160008082604051612218919061453d565b9081526020016040518091039020600101805461223490614cf8565b90501415612277576040517f08c379a000000000000000000000000000000000000000000000000000000000815260040161226e90614954565b60405180910390fd5b82604051602001612288919061453d565b604051602081830303815290604052805190602001206000846040516122ae919061453d565b90815260200160405180910390206001016040516020016122cf9190614554565b6040516020818303038152906040528051906020012014612325576040517f08c379a000000000000000000000000000000000000000000000000000000000815260040161231c90614934565b60405180910390fd5b81600284604051612336919061453d565b908152602001604051809103902090805190602001906123579291906136cc565b50505050565b600080600083604051612370919061453d565b9081526020016040518091039020600101805461238c90614cf8565b905014159050919050565b60006004826040516123a9919061453d565b9081526020016040518091039020549050919050565b6008818051602081018201805184825260208301602085012081835280955050505050506000915090508060000180546123f890614cf8565b80601f016020809104026020016040519081016040528092919081815260200182805461242490614cf8565b80156124715780601f1061244657610100808354040283529160200191612471565b820191906000526020600020905b81548152906001019060200180831161245457829003601f168201915b5050505050908060010154908060020154908060030160009054906101000a900460ff16905084565b60006008826040516124ac919061453d565b908152602001604051809103902060030160009054906101000a900460ff169050919050565b6124da613752565b60006124e583611064565b9050604051806060016040528082815260200161250185610779565b815260200161250f85611841565b815250915050919050565b6004818051602081018201805184825260208301602085012081835280955050505050506000915090505481565b600281805160208101820180518482526020830160208501208183528095505050505050600091509050805461257d90614cf8565b80601f01602080910402602001604051908101604052809291908181526020018280546125a990614cf8565b80156125f65780601f106125cb576101008083540402835291602001916125f6565b820191906000526020600020905b8154815290600101906020018083116125d957829003601f168201915b505050505081565b6060600882604051612610919061453d565b908152602001604051809103902060030160009054906101000a900460ff1661266e576040517f08c379a000000000000000000000000000000000000000000000000000000000815260040161266590614914565b60405180910390fd5b60088260405161267e919061453d565b9081526020016040518091039020600001805461269a90614cf8565b80601f01602080910402602001604051908101604052809291908181526020018280546126c690614cf8565b80156127135780601f106126e857610100808354040283529160200191612713565b820191906000526020600020905b8154815290600101906020018083116126f657829003601f168201915b50505050509050919050565b6001818051602081018201805184825260208301602085012081835280955050505050506000915054906101000a900460ff1681565b8160008082604051612767919061453d565b9081526020016040518091039020600101805461278390614cf8565b905014156127c6576040517f08c379a00000000000000000000000000000000000000000000000000000000081526004016127bd90614954565b60405180910390fd5b816007846040516127d7919061453d565b908152602001604051809103902090805190602001906127f89291906136cc565b50505050565b8460008082604051612810919061453d565b9081526020016040518091039020600101805461282c90614cf8565b9050141561286f576040517f08c379a000000000000000000000000000000000000000000000000000000000815260040161286690614954565b60405180910390fd5b84600087604051612880919061453d565b908152602001604051809103902060000190805190602001906128a49291906136cc565b50836000876040516128b6919061453d565b908152602001604051809103902060020160006101000a81548160ff0219169083600281111561290f577f4e487b7100000000000000000000000000000000000000000000000000000000600052602160045260246000fd5b021790555082600087604051612925919061453d565b908152602001604051809103902060030190805190602001906129499291906136cc565b508160008760405161295b919061453d565b908152602001604051809103902060040160006101000a81548160ff021916908360028111156129b4577f4e487b7100000000000000000000000000000000000000000000000000000000600052602160045260246000fd5b0217905550505050505050565b600084600080826040516129d5919061453d565b908152602001604051809103902060010180546129f190614cf8565b90501415612a34576040517f08c379a0000000000000000000000000000000000000000000000000000000008152600401612a2b90614954565b60405180910390fd5b84604051602001612a45919061453d565b60405160208183030381529060405280519060200120600287604051612a6b919061453d565b9081526020016040518091039020604051602001612a899190614554565b6040516020818303038152906040528051906020012014612adf576040517f08c379a0000000000000000000000000000000000000000000000000000000008152600401612ad690614994565b60405180910390fd5b60016002811115612b19577f4e487b7100000000000000000000000000000000000000000000000000000000600052602160045260246000fd5b600187604051612b29919061453d565b908152602001604051809103902060009054906101000a900460ff166002811115612b7d577f4e487b7100000000000000000000000000000000000000000000000000000000600052602160045260246000fd5b14612bbd576040517f08c379a0000000000000000000000000000000000000000000000000000000008152600401612bb4906149b4565b60405180910390fd5b826002811115612bf6577f4e487b7100000000000000000000000000000000000000000000000000000000600052602160045260246000fd5b600087604051612c06919061453d565b908152602001604051809103902060040160009054906101000a900460ff166002811115612c5d577f4e487b7100000000000000000000000000000000000000000000000000000000600052602160045260246000fd5b14612c6757600080fd5b60405180608001604052808781526020014281526020016000815260200160011515815250600885604051612c9c919061453d565b90815260200160405180910390206000820151816000019080519060200190612cc69291906136cc565b50602082015181600101556040820151816002015560608201518160030160006101000a81548160ff0219169083151502179055509050506001915050949350505050565b6005828051602081018201805184825260208301602085012081835280955050505050508181548110612d3d57600080fd5b906000526020600020906006020160009150915050806000015490806001015490806002015490806003018054612d7390614cf8565b80601f0160208091040260200160405190810160405280929190818152602001828054612d9f90614cf8565b8015612dec5780601f10612dc157610100808354040283529160200191612dec565b820191906000526020600020905b815481529060010190602001808311612dcf57829003601f168201915b505050505090806004018054612e0190614cf8565b80601f0160208091040260200160405190810160405280929190818152602001828054612e2d90614cf8565b8015612e7a5780601f10612e4f57610100808354040283529160200191612e7a565b820191906000526020600020905b815481529060010190602001808311612e5d57829003601f168201915b5050505050908060050154905086565b8160008082604051612e9c919061453d565b90815260200160405180910390206001018054612eb890614cf8565b90501415612efb576040517f08c379a0000000000000000000000000000000000000000000000000000000008152600401612ef290614954565b60405180910390fd5b81600684604051612f0c919061453d565b90815260200160405180910390209080519060200190612f2d9291906136cc565b50505050565b6007818051602081018201805184825260208301602085012081835280955050505050506000915090508054612f6890614cf8565b80601f0160208091040260200160405190810160405280929190818152602001828054612f9490614cf8565b8015612fe15780601f10612fb657610100808354040283529160200191612fe1565b820191906000526020600020905b815481529060010190602001808311612fc457829003601f168201915b505050505081565b8360008082604051612ffb919061453d565b9081526020016040518091039020600101805461301790614cf8565b9050141561305a576040517f08c379a000000000000000000000000000000000000000000000000000000000815260040161305190614954565b60405180910390fd5b8460016002811115613095577f4e487b7100000000000000000000000000000000000000000000000000000000600052602160045260246000fd5b6000826040516130a5919061453d565b908152602001604051809103902060040160009054906101000a900460ff1660028111156130fc577f4e487b7100000000000000000000000000000000000000000000000000000000600052602160045260246000fd5b14806131a657506000600281111561313d577f4e487b7100000000000000000000000000000000000000000000000000000000600052602160045260246000fd5b60008260405161314d919061453d565b908152602001604051809103902060040160009054906101000a900460ff1660028111156131a4577f4e487b7100000000000000000000000000000000000000000000000000000000600052602160045260246000fd5b145b6131e5576040517f08c379a00000000000000000000000000000000000000000000000000000000081526004016131dc90614934565b60405180910390fd5b60006004876040516131f7919061453d565b908152602001604051809103902054905085600488604051613219919061453d565b908152602001604051809103902060008282546132369190614b93565b9250508190555060058760405161324d919061453d565b90815260200160405180910390206040518060c0016040528083815260200188815260200160048a604051613282919061453d565b908152602001604051809103902054815260200187815260200186815260200142815250908060018154018082558091505060019003906000526020600020906006020160009091909190915060008201518160000155602082015181600101556040820151816002015560608201518160030190805190602001906133099291906136cc565b5060808201518160040190805190602001906133269291906136cc565b5060a0820151816005015550507fa06c2868fb4656b047bb8b9d13301beda04d5532d548b7a48b0d82d194567156878260048a604051613366919061453d565b90815260200160405180910390205488428960405161338a96959493929190614797565b60405180910390a150505050505050565b83600080826040516133ad919061453d565b908152602001604051809103902060010180546133c990614cf8565b9050141561340c576040517f08c379a000000000000000000000000000000000000000000000000000000000815260040161340390614954565b60405180910390fd5b600060018660405161341e919061453d565b908152602001604051809103902060009054906101000a900460ff1690508460018760405161344d919061453d565b908152602001604051809103902060006101000a81548160ff021916908360028111156134a3577f4e487b7100000000000000000000000000000000000000000000000000000000600052602160045260246000fd5b02179055506003866040516134b8919061453d565b9081526020016040518091039020604051806080016040528087600281111561350a577f4e487b7100000000000000000000000000000000000000000000000000000000600052602160045260246000fd5b815260200142815260200186815260200185815250908060018154018082558091505060019003906000526020600020906004020160009091909190915060008201518160000160006101000a81548160ff02191690836002811115613599577f4e487b7100000000000000000000000000000000000000000000000000000000600052602160045260246000fd5b02179055506020820151816001015560408201518160020190805190602001906135c49291906136cc565b5060608201518160030190805190602001906135e19291906136cc565b5050507f86b47447744503ad5e3b7e12b7139271482713c4119ad2e28450609b3c227e9f86828742888860405161361d96959493929190614721565b60405180910390a1505050505050565b6040518060a00160405280606081526020016060815260200160006002811115613680577f4e487b7100000000000000000000000000000000000000000000000000000000600052602160045260246000fd5b815260200160608152602001600060028111156136c6577f4e487b7100000000000000000000000000000000000000000000000000000000600052602160045260246000fd5b81525090565b8280546136d890614cf8565b90600052602060002090601f0160209004810192826136fa5760008555613741565b82601f1061371357805160ff1916838001178555613741565b82800160010185558215613741579182015b82811115613740578251825591602001919060010190613725565b5b50905061374e9190613779565b5090565b604051806060016040528061376561362d565b815260200160608152602001606081525090565b5b8082111561379257600081600090555060010161377a565b5090565b60006137a96137a484614a49565b614a18565b9050828152602081018484840111156137c157600080fd5b6137cc848285614cb6565b509392505050565b6000813590506137e381614e7c565b92915050565b6000813590506137f881614e8c565b92915050565b60008135905061380d81614e9c565b92915050565b600082601f83011261382457600080fd5b8135613834848260208601613796565b91505092915050565b60008135905061384c81614eb3565b92915050565b60006020828403121561386457600080fd5b600082013567ffffffffffffffff81111561387e57600080fd5b61388a84828501613813565b91505092915050565b600080600080608085870312156138a957600080fd5b600085013567ffffffffffffffff8111156138c357600080fd5b6138cf87828801613813565b94505060206138e0878288016137fe565b935050604085013567ffffffffffffffff8111156138fd57600080fd5b61390987828801613813565b925050606085013567ffffffffffffffff81111561392657600080fd5b61393287828801613813565b91505092959194509250565b6000806040838503121561395157600080fd5b600083013567ffffffffffffffff81111561396b57600080fd5b61397785828601613813565b925050602083013567ffffffffffffffff81111561399457600080fd5b6139a085828601613813565b9150509250929050565b600080600080600060a086880312156139c257600080fd5b600086013567ffffffffffffffff8111156139dc57600080fd5b6139e888828901613813565b955050602086013567ffffffffffffffff811115613a0557600080fd5b613a1188828901613813565b9450506040613a22888289016137d4565b935050606086013567ffffffffffffffff811115613a3f57600080fd5b613a4b88828901613813565b9250506080613a5c888289016137e9565b9150509295509295909350565b60008060008060008060c08789031215613a8257600080fd5b600087013567ffffffffffffffff811115613a9c57600080fd5b613aa889828a01613813565b965050602087013567ffffffffffffffff811115613ac557600080fd5b613ad189828a01613813565b9550506040613ae289828a016137d4565b945050606087013567ffffffffffffffff811115613aff57600080fd5b613b0b89828a01613813565b9350506080613b1c89828a016137e9565b92505060a087013567ffffffffffffffff811115613b3957600080fd5b613b4589828a01613813565b9150509295509295509295565b600080600060608486031215613b6757600080fd5b600084013567ffffffffffffffff811115613b8157600080fd5b613b8d86828701613813565b935050602084013567ffffffffffffffff811115613baa57600080fd5b613bb686828701613813565b925050604084013567ffffffffffffffff811115613bd357600080fd5b613bdf86828701613813565b9150509250925092565b60008060008060808587031215613bff57600080fd5b600085013567ffffffffffffffff811115613c1957600080fd5b613c2587828801613813565b945050602085013567ffffffffffffffff811115613c4257600080fd5b613c4e87828801613813565b935050604085013567ffffffffffffffff811115613c6b57600080fd5b613c7787828801613813565b9250506060613c88878288016137e9565b91505092959194509250565b60008060408385031215613ca757600080fd5b600083013567ffffffffffffffff811115613cc157600080fd5b613ccd85828601613813565b9250506020613cde8582860161383d565b9150509250929050565b600060208284031215613cfa57600080fd5b6000613d088482850161383d565b91505092915050565b6000613d1d83836142bf565b905092915050565b6000613d3183836143ad565b905092915050565b6000613d458383614417565b905092915050565b6000613d5882614abe565b613d628185614b11565b935083602082028501613d7485614a79565b8060005b85811015613db05784840389528151613d918582613d11565b9450613d9c83614aea565b925060208a01995050600181019050613d78565b50829750879550505050505092915050565b6000613dcd82614abe565b613dd78185614b22565b935083602082028501613de985614a79565b8060005b85811015613e255784840389528151613e068582613d11565b9450613e1183614aea565b925060208a01995050600181019050613ded565b50829750879550505050505092915050565b6000613e4282614ac9565b613e4c8185614b33565b935083602082028501613e5e85614a89565b8060005b85811015613e9a5784840389528151613e7b8582613d25565b9450613e8683614af7565b925060208a01995050600181019050613e62565b50829750879550505050505092915050565b6000613eb782614ac9565b613ec18185614b44565b935083602082028501613ed385614a89565b8060005b85811015613f0f5784840389528151613ef08582613d25565b9450613efb83614af7565b925060208a01995050600181019050613ed7565b50829750879550505050505092915050565b6000613f2c82614ad4565b613f368185614b55565b935083602082028501613f4885614a99565b8060005b85811015613f845784840389528151613f658582613d39565b9450613f7083614b04565b925060208a01995050600181019050613f4c565b50829750879550505050505092915050565b613f9f81614c27565b82525050565b613fae81614c80565b82525050565b613fbd81614c80565b82525050565b613fcc81614c92565b82525050565b613fdb81614c92565b82525050565b613fea81614ca4565b82525050565b613ff981614ca4565b82525050565b61400881614c6c565b82525050565b61401781614c6c565b82525050565b600061402882614adf565b6140328185614b66565b9350614042818560208601614cc5565b61404b81614e2f565b840191505092915050565b600061406182614adf565b61406b8185614b77565b935061407b818560208601614cc5565b61408481614e2f565b840191505092915050565b600061409a82614adf565b6140a48185614b88565b93506140b4818560208601614cc5565b80840191505092915050565b600081546140cd81614cf8565b6140d78186614b88565b945060018216600081146140f2576001811461410357614136565b60ff19831686528186019350614136565b61410c85614aa9565b60005b8381101561412e5781548189015260018201915060208101905061410f565b838801955050505b50505092915050565b600061414c601a83614b77565b91507f53657373696f6e20616c7265616479206c6f67676564206f75740000000000006000830152602082019050919050565b600061418c600c83614b77565b91507f556e617574686f72697a656400000000000000000000000000000000000000006000830152602082019050919050565b60006141cc601383614b77565b91507f55736572206e6f742072656769737465726564000000000000000000000000006000830152602082019050919050565b600061420c601783614b77565b91507f5573657220616c726561647920726567697374657265640000000000000000006000830152602082019050919050565b600061424c601083614b77565b91507f496e76616c69642070617373776f7264000000000000000000000000000000006000830152602082019050919050565b600061428c601183614b77565b91507f55736572206e6f7420617070726f7665640000000000000000000000000000006000830152602082019050919050565b600060c0830160008301516142d76000860182613fff565b5060208301516142ea6020860182613fff565b5060408301516142fd6040860182613fff565b5060608301518482036060860152614315828261401d565b9150506080830151848203608086015261432f828261401d565b91505060a083015161434460a086018261451f565b508091505092915050565b6000606083016000830151848203600086015261436c8282614417565b915050602083015184820360208601526143868282613e37565b915050604083015184820360408601526143a08282613d4d565b9150508091505092915050565b60006080830160008301516143c56000860182613fc3565b5060208301516143d8602086018261451f565b50604083015184820360408601526143f0828261401d565b9150506060830151848203606086015261440a828261401d565b9150508091505092915050565b600060a0830160008301518482036000860152614434828261401d565b9150506020830151848203602086015261444e828261401d565b91505060408301516144636040860182613fa5565b506060830151848203606086015261447b828261401d565b91505060808301516144906080860182613fe1565b508091505092915050565b600060a08301600083015184820360008601526144b8828261401d565b915050602083015184820360208601526144d2828261401d565b91505060408301516144e76040860182613fa5565b50606083015184820360608601526144ff828261401d565b91505060808301516145146080860182613fe1565b508091505092915050565b61452881614c76565b82525050565b61453781614c76565b82525050565b6000614549828461408f565b915081905092915050565b600061456082846140c0565b915081905092915050565b600060208201905081810360008301526145858184613dc2565b905092915050565b600060208201905081810360008301526145a78184613eac565b905092915050565b600060208201905081810360008301526145c98184613f21565b905092915050565b60006020820190506145e66000830184613f96565b92915050565b60006020820190506146016000830184613fd2565b92915050565b600060808201905061461c6000830187613fd2565b614629602083018661452e565b818103604083015261463b8185614056565b9050818103606083015261464f8184614056565b905095945050505050565b600060208201905061466f6000830184613ff0565b92915050565b600060208201905061468a600083018461400e565b92915050565b600060c0820190506146a5600083018961400e565b6146b2602083018861400e565b6146bf604083018761400e565b81810360608301526146d18186614056565b905081810360808301526146e58185614056565b90506146f460a083018461452e565b979650505050505050565b600060208201905081810360008301526147198184614056565b905092915050565b600060c082019050818103600083015261473b8189614056565b905061474a6020830188613fd2565b6147576040830187613fd2565b614764606083018661452e565b81810360808301526147768185614056565b905081810360a083015261478a8184614056565b9050979650505050505050565b600060c08201905081810360008301526147b18189614056565b90506147c0602083018861400e565b6147cd604083018761400e565b81810360608301526147df8186614056565b90506147ee608083018561452e565b81810360a08301526148008184614056565b9050979650505050505050565b600060a08201905081810360008301526148278188614056565b9050818103602083015261483b8187614056565b905061484a6040830186613fb4565b818103606083015261485c8185614056565b905061486b6080830184613ff0565b9695505050505050565b6000608082019050818103600083015261488f8187614056565b905081810360208301526148a38186614056565b90506148b26040830185613ff0565b6148bf606083018461452e565b95945050505050565b600060808201905081810360008301526148e28187614056565b90506148f1602083018661452e565b6148fe604083018561452e565b61490b6060830184613f96565b95945050505050565b6000602082019050818103600083015261492d8161413f565b9050919050565b6000602082019050818103600083015261494d8161417f565b9050919050565b6000602082019050818103600083015261496d816141bf565b9050919050565b6000602082019050818103600083015261498d816141ff565b9050919050565b600060208201905081810360008301526149ad8161423f565b9050919050565b600060208201905081810360008301526149cd8161427f565b9050919050565b600060208201905081810360008301526149ee818461434f565b905092915050565b60006020820190508181036000830152614a10818461449b565b905092915050565b6000604051905081810181811067ffffffffffffffff82111715614a3f57614a3e614e00565b5b8060405250919050565b600067ffffffffffffffff821115614a6457614a63614e00565b5b601f19601f8301169050602081019050919050565b6000819050602082019050919050565b6000819050602082019050919050565b6000819050602082019050919050565b60008190508160005260206000209050919050565b600081519050919050565b600081519050919050565b600081519050919050565b600081519050919050565b6000602082019050919050565b6000602082019050919050565b6000602082019050919050565b600082825260208201905092915050565b600082825260208201905092915050565b600082825260208201905092915050565b600082825260208201905092915050565b600082825260208201905092915050565b600082825260208201905092915050565b600082825260208201905092915050565b600081905092915050565b6000614b9e82614c6c565b9150614ba983614c6c565b9250817f7fffffffffffffffffffffffffffffffffffffffffffffffffffffffffffffff03831360008312151615614be457614be3614d73565b5b817f8000000000000000000000000000000000000000000000000000000000000000038312600083121615614c1c57614c1b614d73565b5b828201905092915050565b60008115159050919050565b6000819050614c4182614e40565b919050565b6000819050614c5482614e54565b919050565b6000819050614c6782614e68565b919050565b6000819050919050565b6000819050919050565b6000614c8b82614c33565b9050919050565b6000614c9d82614c46565b9050919050565b6000614caf82614c59565b9050919050565b82818337600083830152505050565b60005b83811015614ce3578082015181840152602081019050614cc8565b83811115614cf2576000848401525b50505050565b60006002820490506001821680614d1057607f821691505b60208210811415614d2457614d23614dd1565b5b50919050565b6000614d3582614c76565b91507fffffffffffffffffffffffffffffffffffffffffffffffffffffffffffffffff821415614d6857614d67614d73565b5b600182019050919050565b7f4e487b7100000000000000000000000000000000000000000000000000000000600052601160045260246000fd5b7f4e487b7100000000000000000000000000000000000000000000000000000000600052602160045260246000fd5b7f4e487b7100000000000000000000000000000000000000000000000000000000600052602260045260246000fd5b7f4e487b7100000000000000000000000000000000000000000000000000000000600052604160045260246000fd5b6000601f19601f8301169050919050565b60038110614e5157614e50614da2565b5b50565b60038110614e6557614e64614da2565b5b50565b60038110614e7957614e78614da2565b5b50565b60038110614e8957600080fd5b50565b60038110614e9957600080fd5b50565b614ea581614c6c565b8114614eb057600080fd5b50565b614ebc81614c76565b8114614ec757600080fd5b5056fea26469706673582212208fb868aaf043ed454b559288c43442b72493b017373cec4c2f9732e109391f6b64736f6c63430008000033",
  "immutableReferences": {},
  "source": "// SPDX-License-Identifier: UNLICENSED\npragma solidity ^0.8.0;\n\ncontract UserManagement {\n    // Enums for user status, type, and gender\n    enum UserStatus {\n        Registered,\n        Approved,\n        Deactivated\n    }\n    enum UserType {\n        Admin,\n        Organization,\n        Employee\n    }\n    enum Gender {\n        Male,\n        Female,\n        Other\n    }\n\n    // Structs for user information and status\n    struct User {\n        string name;\n        string email;\n        Gender gender;\n        string phone;\n        UserType userType;\n    }\n\n    struct StatusHistory {\n        UserStatus status;\n        uint256 timestamp;\n        string reason;\n        string updatedBy; // Email of the user who updated the status or it can be the system\n    }\n\n    struct CreditHistory {\n        int256 previousBalance;\n        int256 creditChange;\n        int256 newBalance;\n        string txnComment;\n        string updatedBy;\n        uint256 updateTimestamp;\n    }\n\n    struct SessionData {\n        string email;\n        uint256 loginTime;\n        uint256 logoutTime;\n        bool isSessionActive;\n    }\n\n    // Mappings to store user data and histories\n    mapping(string => User) public userDetails; // Maps email to User details\n    mapping(string => UserStatus) public userCurrentStatus; // Maps email to current status\n    mapping(string => string) public userPasswords; // Maps email to user password\n    mapping(string => StatusHistory[]) public userStatusHistory; // Maps email to status history\n    mapping(string => int256) public userCurrentCredits; // Maps email to user credits\n    mapping(string => CreditHistory[]) public userCreditHistory; // Maps email to user credits history\n    mapping(string => string) public userCurrentAddress; // Maps email to user address\n    mapping(string => string) public userProfilePic; // Maps email to user profile picture\n    mapping(string => SessionData) public userSessions; // Maps session_id to SessionData\n    string[] public registeredUserEmails; // Array to keep track of registered user emails\n\n    // Events for logging actions\n    event StatusChanged(\n        string email,\n        UserStatus previousStatus,\n        UserStatus newStatus,\n        uint256 timestamp,\n        string reason,\n        string updatedBy\n    );\n    event CreditsUpdated(\n        string email,\n        int256 previousBalance,\n        int256 newBalance,\n        string txnComment,\n        uint256 timestamp,\n        string updatedBy\n    );\n    event NewUserRegistered(\n        string email,\n        string name,\n        UserType userType,\n        uint256 timestamp\n    );\n\n    // Modifier to check if a user exists\n    modifier userExists(string memory email) {\n        require(\n            bytes(userDetails[email].email).length != 0,\n            \"User not registered\"\n        );\n        _;\n    }\n\n    // Modifier to check if the caller is an admin\n    modifier isAdmin(string memory email) {\n        require(userDetails[email].userType == UserType.Admin, \"Unauthorized\");\n        _;\n    }\n\n    // Modifier to check if the caller is an organization\n    modifier isOrganization(string memory email) {\n        require(\n            userDetails[email].userType == UserType.Organization,\n            \"Unauthorized\"\n        );\n        _;\n    }\n\n    // Modifier to check if the caller is an organization or admin\n    modifier isOrganizationOrAdmin(string memory email) {\n        require(\n            userDetails[email].userType == UserType.Organization ||\n                userDetails[email].userType == UserType.Admin,\n            \"Unauthorized\"\n        );\n        _;\n    }\n\n    // Modifier to check if the caller is an employee\n    modifier isEmployee(string memory email) {\n        require(\n            userDetails[email].userType == UserType.Employee,\n            \"Unauthorized\"\n        );\n        _;\n    }\n\n    // Function to register a new user\n    function registerUser(\n        string memory name,\n        string memory email,\n        Gender gender,\n        string memory phone,\n        UserType userType,\n        string memory password\n    ) public {\n        require(\n            bytes(userDetails[email].email).length == 0,\n            \"User already registered\"\n        );\n\n        User memory newUser = User({\n            name: name,\n            email: email,\n            gender: gender,\n            phone: phone,\n            userType: userType\n        });\n\n        userDetails[email] = newUser;\n        userCurrentStatus[email] = UserStatus.Registered;\n        userPasswords[email] = password;\n        userCurrentCredits[email] = 0;\n        registeredUserEmails.push(email);\n\n        // Set initial status and credits\n        _setStatus(email, UserStatus.Registered, \"User registered\", \"System\");\n\n        if (userType != UserType.Employee){\n            _updateCredits(email, 1000, \"Registration Bonus\", \"System\");   \n        }\n\n        // Emit New User Registered event\n        emit NewUserRegistered(email, name, userType, block.timestamp);\n    }\n\n    // Function to check if a user exists\n    function doesUserExist(string memory email) public view returns (bool) {\n        return bytes(userDetails[email].email).length != 0;\n    }\n\n    // Function to list all users\n    function listAllUsers() public view returns (User[] memory) {\n        uint256 userCount = registeredUserEmails.length;\n        User[] memory userList = new User[](userCount);\n        for (uint256 i = 0; i < userCount; i++) {\n            userList[i] = userDetails[registeredUserEmails[i]];\n        }\n        return userList;\n    }\n\n    function getUser(string memory email) public view returns (User memory){\n        return userDetails[email];\n    }\n\n    // Function to login a user\n    function login(\n        string memory email,\n        string memory password,\n        string memory session_id,\n        UserType role\n    ) public userExists(email) returns (bool) {\n        require(\n            keccak256(abi.encodePacked(userPasswords[email])) ==\n                keccak256(abi.encodePacked(password)),\n            \"Invalid password\"\n        );\n        require(\n            userCurrentStatus[email] == UserStatus.Approved,\n            \"User not approved\"\n        );\n\n        require(\n            userDetails[email].userType == role\n        );\n\n        userSessions[session_id] = SessionData({\n            email: email,\n            loginTime: block.timestamp,\n            logoutTime: 0,\n            isSessionActive: true\n        });\n        return true;\n    }\n\n    struct Profile {\n        UserManagement.User User;\n        UserManagement.StatusHistory[] history_status;\n        UserManagement.CreditHistory[] history_credit;\n    }\n\n    function getUserProfile(\n        string memory email\n    ) public view returns (Profile memory) {\n        UserManagement.User memory user = getUser(email);\n        return Profile(user, getStatusHistory(email), getCreditHistory(email));\n    }\n\n    // Function to logout a user\n    function logout(string memory session_id) public {\n        require(\n            userSessions[session_id].isSessionActive,\n            \"Session already logged out\"\n        );\n        userSessions[session_id].logoutTime = block.timestamp;\n        userSessions[session_id].isSessionActive = false;\n    }\n\n    // Function to check if a session is active\n    function isSessionActive(\n        string memory session_id\n    ) public view returns (bool) {\n        return userSessions[session_id].isSessionActive;\n    }\n\n    function sessionData(\n        string memory session_id\n    ) public view returns (string memory) {\n        require(\n            userSessions[session_id].isSessionActive,\n            \"Session already logged out\"\n        );\n\n        return userSessions[session_id].email;\n    }\n\n    // Internal function to set user status\n    function _setStatus(\n        string memory email,\n        UserStatus newStatus,\n        string memory reason,\n        string memory updatedBy\n    ) internal userExists(email) {\n        UserStatus previousStatus = userCurrentStatus[email];\n        userCurrentStatus[email] = newStatus;\n\n        // Log status change in history\n        userStatusHistory[email].push(\n            StatusHistory({\n                status: newStatus,\n                timestamp: block.timestamp,\n                reason: reason,\n                updatedBy: updatedBy\n            })\n        );\n\n        // Emit event\n        emit StatusChanged(\n            email,\n            previousStatus,\n            newStatus,\n            block.timestamp,\n            reason,\n            updatedBy\n        );\n    }\n\n    // Function to update user details\n    function updateUserDetails(\n        string memory email,\n        string memory name,\n        Gender gender,\n        string memory phone,\n        UserType userType\n    ) public userExists(email) {\n        userDetails[email].name = name;\n        userDetails[email].gender = gender;\n        userDetails[email].phone = phone;\n        userDetails[email].userType = userType;\n    }\n\n    // Function to change user password\n    function changePassword(\n        string memory email,\n        string memory newPassword\n    ) public userExists(email) {\n        require(\n            keccak256(abi.encodePacked(userDetails[email].email)) ==\n                keccak256(abi.encodePacked(email)),\n            \"Unauthorized\"\n        ); // Redundant check\n        userPasswords[email] = newPassword;\n    }\n\n    // Function to deactivate a user\n    function deactivateUser(\n        string memory email,\n        string memory reason,\n        string memory updatedBy\n    ) public userExists(email) {\n        _setStatus(email, UserStatus.Deactivated, reason, updatedBy);\n    }\n\n    // Function to activate a user\n    function activateUser(\n        string memory email,\n        string memory reason,\n        string memory updatedBy\n    ) public userExists(email) {\n        _setStatus(email, UserStatus.Approved, reason, updatedBy);\n    }\n\n    // Function to get the current status of a user\n    function getCurrentStatus(\n        string memory email\n    ) public view returns (UserStatus) {\n        return userCurrentStatus[email];\n    }\n\n    // Function to get the status history of a user\n    function getStatusHistory(\n        string memory email\n    ) public view returns (StatusHistory[] memory) {\n        return userStatusHistory[email];\n    }\n\n    // Function to update user address\n    function updateAddress(\n        string memory email,\n        string memory newAddress\n    ) public userExists(email) {\n        userCurrentAddress[email] = newAddress;\n    }\n\n    // Function to get the current address of a user\n    function getCurrentAddress(\n        string memory email\n    ) public view returns (string memory) {\n        return userCurrentAddress[email];\n    }\n\n    // Function to update user profile picture\n    function updateProfilePic(\n        string memory email,\n        string memory filename\n    ) public userExists(email) {\n        userProfilePic[email] = filename;\n    }\n\n    // Function to get the profile picture of a user\n    function getProfilePic(\n        string memory email\n    ) public view returns (string memory) {\n        return userProfilePic[email];\n    }\n\n    // Internal function to update user credits\n    function _updateCredits(\n        string memory email,\n        int256 credits,\n        string memory txnComment,\n        string memory updatedBy\n    ) internal userExists(email) isOrganizationOrAdmin(email) {\n        int256 previousBalance = userCurrentCredits[email];\n        userCurrentCredits[email] += credits;\n        // Log credits change in history\n        userCreditHistory[email].push(\n            CreditHistory({\n                previousBalance: previousBalance,\n                creditChange: credits,\n                newBalance: userCurrentCredits[email],\n                txnComment: txnComment,\n                updatedBy: updatedBy,\n                updateTimestamp: block.timestamp\n            })\n        );\n\n        // Emit event\n        emit CreditsUpdated(\n            email,\n            previousBalance,\n            userCurrentCredits[email],\n            txnComment,\n            block.timestamp,\n            updatedBy\n        );\n    }\n\n    // Function to update user credits\n    function updateCredits(\n        string memory email,\n        int256 credits,\n        string memory txnComment,\n        string memory updatedBy\n    ) public userExists(email) isOrganizationOrAdmin(email) {\n        _updateCredits(email, credits, txnComment, updatedBy);\n    }\n\n    // Function to get the current credits of a user\n    function getUserCredits(string memory email) public view returns (int256) {\n        return userCurrentCredits[email];\n    }\n\n    // Function to get the credit history of a user\n    function getCreditHistory(\n        string memory email\n    ) public view returns (CreditHistory[] memory) {\n        return userCreditHistory[email];\n    }\n\n    // Getter function to retrieve user type\n    function getUserType(string memory email) public view returns (UserType) {\n        return userDetails[email].userType;\n    }\n}\n",
  "sourcePath": "/Users/hchauhan/Downloads/verified-hire FastAPI/contracts/UserManagement.sol",
  "compiler": {
    "name": "solc",
    "version": "0.8.0+commit.c7dfd78e.Emscripten.clang"
  },
  "schemaVersion": "3.4.16",
  "updatedAt": "2024-05-24T20:41:51.824Z",
  "networkType": "ethereum",
  "devdoc": {
    "kind": "dev",
    "methods": {},
    "version": 1
  },
  "userdoc": {
    "kind": "user",
    "methods": {},
    "version": 1
  }
}