{
  "contractName": "VerifiedHire",
  "abi": [
    {
      "inputs": [
        {
          "internalType": "address",
          "name": "userManagementAddress",
          "type": "address"
        },
        {
          "internalType": "address",
          "name": "employmentManagementAddress",
          "type": "address"
        },
        {
          "internalType": "address",
          "name": "documentsManagementAddress",
          "type": "address"
        },
        {
          "internalType": "address",
          "name": "skillsManagementAddress",
          "type": "address"
        },
        {
          "internalType": "address",
          "name": "employeeManagementAddress",
          "type": "address"
        },
        {
          "internalType": "address",
          "name": "adminManagementAddress",
          "type": "address"
        }
      ],
      "stateMutability": "nonpayable",
      "type": "constructor"
    },
    {
      "inputs": [],
      "name": "adminManagement",
      "outputs": [
        {
          "internalType": "contract AdminManagement",
          "name": "",
          "type": "address"
        }
      ],
      "stateMutability": "view",
      "type": "function",
      "constant": true
    },
    {
      "inputs": [],
      "name": "documentsManagement",
      "outputs": [
        {
          "internalType": "contract DocumentsManagement",
          "name": "",
          "type": "address"
        }
      ],
      "stateMutability": "view",
      "type": "function",
      "constant": true
    },
    {
      "inputs": [],
      "name": "employeeManagement",
      "outputs": [
        {
          "internalType": "contract EmployeeManagement",
          "name": "",
          "type": "address"
        }
      ],
      "stateMutability": "view",
      "type": "function",
      "constant": true
    },
    {
      "inputs": [],
      "name": "employmentManagement",
      "outputs": [
        {
          "internalType": "contract EmploymentManagement",
          "name": "",
          "type": "address"
        }
      ],
      "stateMutability": "view",
      "type": "function",
      "constant": true
    },
    {
      "inputs": [],
      "name": "skillsManagement",
      "outputs": [
        {
          "internalType": "contract SkillsManagement",
          "name": "",
          "type": "address"
        }
      ],
      "stateMutability": "view",
      "type": "function",
      "constant": true
    },
    {
      "inputs": [],
      "name": "userManagement",
      "outputs": [
        {
          "internalType": "contract UserManagement",
          "name": "",
          "type": "address"
        }
      ],
      "stateMutability": "view",
      "type": "function",
      "constant": true
    },
    {
      "inputs": [
        {
          "internalType": "string",
          "name": "name",
          "type": "string"
        },
        {
          "internalType": "string",
          "name": "email",
          "type": "string"
        },
        {
          "internalType": "enum UserManagement.Gender",
          "name": "gender",
          "type": "uint8"
        },
        {
          "internalType": "string",
          "name": "phone",
          "type": "string"
        },
        {
          "internalType": "enum UserManagement.UserType",
          "name": "userType",
          "type": "uint8"
        },
        {
          "internalType": "string",
          "name": "password",
          "type": "string"
        }
      ],
      "name": "registerUser",
      "outputs": [],
      "stateMutability": "nonpayable",
      "type": "function"
    },
    {
      "inputs": [
        {
          "internalType": "string",
          "name": "email",
          "type": "string"
        }
      ],
      "name": "doesUserExist",
      "outputs": [
        {
          "internalType": "bool",
          "name": "",
          "type": "bool"
        }
      ],
      "stateMutability": "view",
      "type": "function",
      "constant": true
    },
    {
      "inputs": [],
      "name": "listAllUsers",
      "outputs": [
        {
          "components": [
            {
              "internalType": "string",
              "name": "name",
              "type": "string"
            },
            {
              "internalType": "string",
              "name": "email",
              "type": "string"
            },
            {
              "internalType": "enum UserManagement.Gender",
              "name": "gender",
              "type": "uint8"
            },
            {
              "internalType": "string",
              "name": "phone",
              "type": "string"
            },
            {
              "internalType": "enum UserManagement.UserType",
              "name": "userType",
              "type": "uint8"
            }
          ],
          "internalType": "struct UserManagement.User[]",
          "name": "",
          "type": "tuple[]"
        }
      ],
      "stateMutability": "view",
      "type": "function",
      "constant": true
    },
    {
      "inputs": [
        {
          "internalType": "string",
          "name": "email",
          "type": "string"
        }
      ],
      "name": "getAdminProfile",
      "outputs": [
        {
          "components": [
            {
              "components": [
                {
                  "internalType": "string",
                  "name": "name",
                  "type": "string"
                },
                {
                  "internalType": "string",
                  "name": "email",
                  "type": "string"
                },
                {
                  "internalType": "enum UserManagement.Gender",
                  "name": "gender",
                  "type": "uint8"
                },
                {
                  "internalType": "string",
                  "name": "phone",
                  "type": "string"
                },
                {
                  "internalType": "enum UserManagement.UserType",
                  "name": "userType",
                  "type": "uint8"
                }
              ],
              "internalType": "struct UserManagement.User",
              "name": "User",
              "type": "tuple"
            }
          ],
          "internalType": "struct AdminManagement.AdminProfile",
          "name": "",
          "type": "tuple"
        }
      ],
      "stateMutability": "view",
      "type": "function",
      "constant": true
    },
    {
      "inputs": [
        {
          "internalType": "string",
          "name": "email",
          "type": "string"
        }
      ],
      "name": "getOrganizationProfile",
      "outputs": [
        {
          "components": [
            {
              "components": [
                {
                  "internalType": "string",
                  "name": "name",
                  "type": "string"
                },
                {
                  "internalType": "string",
                  "name": "email",
                  "type": "string"
                },
                {
                  "internalType": "enum UserManagement.Gender",
                  "name": "gender",
                  "type": "uint8"
                },
                {
                  "internalType": "string",
                  "name": "phone",
                  "type": "string"
                },
                {
                  "internalType": "enum UserManagement.UserType",
                  "name": "userType",
                  "type": "uint8"
                }
              ],
              "internalType": "struct UserManagement.User",
              "name": "User",
              "type": "tuple"
            },
            {
              "components": [
                {
                  "internalType": "enum UserManagement.UserStatus",
                  "name": "status",
                  "type": "uint8"
                },
                {
                  "internalType": "uint256",
                  "name": "timestamp",
                  "type": "uint256"
                },
                {
                  "internalType": "string",
                  "name": "reason",
                  "type": "string"
                },
                {
                  "internalType": "string",
                  "name": "updatedBy",
                  "type": "string"
                }
              ],
              "internalType": "struct UserManagement.StatusHistory[]",
              "name": "history_status",
              "type": "tuple[]"
            },
            {
              "components": [
                {
                  "internalType": "int256",
                  "name": "previousBalance",
                  "type": "int256"
                },
                {
                  "internalType": "int256",
                  "name": "creditChange",
                  "type": "int256"
                },
                {
                  "internalType": "int256",
                  "name": "newBalance",
                  "type": "int256"
                },
                {
                  "internalType": "string",
                  "name": "txnComment",
                  "type": "string"
                },
                {
                  "internalType": "string",
                  "name": "updatedBy",
                  "type": "string"
                },
                {
                  "internalType": "uint256",
                  "name": "updateTimestamp",
                  "type": "uint256"
                }
              ],
              "internalType": "struct UserManagement.CreditHistory[]",
              "name": "history_credit",
              "type": "tuple[]"
            }
          ],
          "internalType": "struct UserManagement.Profile",
          "name": "",
          "type": "tuple"
        }
      ],
      "stateMutability": "view",
      "type": "function",
      "constant": true
    },
    {
      "inputs": [
        {
          "internalType": "string",
          "name": "email",
          "type": "string"
        }
      ],
      "name": "getEmployeeProfile",
      "outputs": [
        {
          "components": [
            {
              "components": [
                {
                  "internalType": "string",
                  "name": "name",
                  "type": "string"
                },
                {
                  "internalType": "string",
                  "name": "email",
                  "type": "string"
                },
                {
                  "internalType": "enum UserManagement.Gender",
                  "name": "gender",
                  "type": "uint8"
                },
                {
                  "internalType": "string",
                  "name": "phone",
                  "type": "string"
                },
                {
                  "internalType": "enum UserManagement.UserType",
                  "name": "userType",
                  "type": "uint8"
                }
              ],
              "internalType": "struct UserManagement.User",
              "name": "User",
              "type": "tuple"
            },
            {
              "components": [
                {
                  "internalType": "string",
                  "name": "documentHash",
                  "type": "string"
                },
                {
                  "internalType": "enum DocumentsManagement.DocumentTypes",
                  "name": "documentType",
                  "type": "uint8"
                },
                {
                  "internalType": "string",
                  "name": "title",
                  "type": "string"
                },
                {
                  "internalType": "string",
                  "name": "document_id",
                  "type": "string"
                },
                {
                  "internalType": "string",
                  "name": "file_name",
                  "type": "string"
                },
                {
                  "internalType": "string",
                  "name": "file_url",
                  "type": "string"
                },
                {
                  "internalType": "string",
                  "name": "json_data",
                  "type": "string"
                },
                {
                  "internalType": "string",
                  "name": "verified_by",
                  "type": "string"
                },
                {
                  "internalType": "bool",
                  "name": "isVerified",
                  "type": "bool"
                },
                {
                  "internalType": "uint256",
                  "name": "date",
                  "type": "uint256"
                }
              ],
              "internalType": "struct DocumentsManagement.EmployeeDocument[]",
              "name": "Documents",
              "type": "tuple[]"
            },
            {
              "components": [
                {
                  "internalType": "string",
                  "name": "organization",
                  "type": "string"
                },
                {
                  "internalType": "uint256",
                  "name": "startDate",
                  "type": "uint256"
                },
                {
                  "internalType": "uint256",
                  "name": "endDate",
                  "type": "uint256"
                },
                {
                  "internalType": "string",
                  "name": "position",
                  "type": "string"
                },
                {
                  "internalType": "bool",
                  "name": "active",
                  "type": "bool"
                }
              ],
              "internalType": "struct EmploymentManagement.EmploymentDetails",
              "name": "EmployementCurrent",
              "type": "tuple"
            },
            {
              "components": [
                {
                  "internalType": "string",
                  "name": "organization",
                  "type": "string"
                },
                {
                  "internalType": "uint256",
                  "name": "actdate",
                  "type": "uint256"
                },
                {
                  "internalType": "string",
                  "name": "position",
                  "type": "string"
                },
                {
                  "internalType": "enum EmploymentManagement.Employment_Status",
                  "name": "status",
                  "type": "uint8"
                },
                {
                  "internalType": "string",
                  "name": "comments",
                  "type": "string"
                },
                {
                  "internalType": "bool",
                  "name": "isVerified",
                  "type": "bool"
                }
              ],
              "internalType": "struct EmploymentManagement.EmploymentHistory[]",
              "name": "EmployementHistory",
              "type": "tuple[]"
            },
            {
              "components": [
                {
                  "internalType": "string",
                  "name": "skill",
                  "type": "string"
                },
                {
                  "internalType": "int256",
                  "name": "avgscore",
                  "type": "int256"
                },
                {
                  "components": [
                    {
                      "internalType": "int256",
                      "name": "score",
                      "type": "int256"
                    },
                    {
                      "internalType": "string",
                      "name": "verified_by",
                      "type": "string"
                    },
                    {
                      "internalType": "bool",
                      "name": "isVerified",
                      "type": "bool"
                    },
                    {
                      "internalType": "uint256",
                      "name": "date",
                      "type": "uint256"
                    }
                  ],
                  "internalType": "struct SkillsManagement.SkillsVotes[]",
                  "name": "votes",
                  "type": "tuple[]"
                }
              ],
              "internalType": "struct SkillsManagement.AllSkillsResponse[]",
              "name": "EmployeeSkills",
              "type": "tuple[]"
            }
          ],
          "internalType": "struct EmployeeManagement.EmployeeProfile",
          "name": "",
          "type": "tuple"
        }
      ],
      "stateMutability": "view",
      "type": "function",
      "constant": true
    },
    {
      "inputs": [
        {
          "internalType": "string",
          "name": "email",
          "type": "string"
        },
        {
          "internalType": "string",
          "name": "password",
          "type": "string"
        },
        {
          "internalType": "string",
          "name": "session_id",
          "type": "string"
        },
        {
          "internalType": "enum UserManagement.UserType",
          "name": "userType",
          "type": "uint8"
        }
      ],
      "name": "login",
      "outputs": [
        {
          "internalType": "bool",
          "name": "",
          "type": "bool"
        }
      ],
      "stateMutability": "nonpayable",
      "type": "function"
    },
    {
      "inputs": [
        {
          "internalType": "string",
          "name": "session_id",
          "type": "string"
        }
      ],
      "name": "logout",
      "outputs": [],
      "stateMutability": "nonpayable",
      "type": "function"
    },
    {
      "inputs": [
        {
          "internalType": "string",
          "name": "session_id",
          "type": "string"
        }
      ],
      "name": "isSessionActive",
      "outputs": [
        {
          "internalType": "bool",
          "name": "",
          "type": "bool"
        }
      ],
      "stateMutability": "view",
      "type": "function",
      "constant": true
    },
    {
      "inputs": [
        {
          "internalType": "string",
          "name": "session_id",
          "type": "string"
        }
      ],
      "name": "sessionData",
      "outputs": [
        {
          "internalType": "string",
          "name": "",
          "type": "string"
        }
      ],
      "stateMutability": "view",
      "type": "function",
      "constant": true
    },
    {
      "inputs": [
        {
          "internalType": "string",
          "name": "email",
          "type": "string"
        },
        {
          "internalType": "string",
          "name": "name",
          "type": "string"
        },
        {
          "internalType": "enum UserManagement.Gender",
          "name": "gender",
          "type": "uint8"
        },
        {
          "internalType": "string",
          "name": "phone",
          "type": "string"
        },
        {
          "internalType": "enum UserManagement.UserType",
          "name": "userType",
          "type": "uint8"
        }
      ],
      "name": "updateUserDetails",
      "outputs": [],
      "stateMutability": "nonpayable",
      "type": "function"
    },
    {
      "inputs": [
        {
          "internalType": "string",
          "name": "email",
          "type": "string"
        },
        {
          "internalType": "string",
          "name": "newPassword",
          "type": "string"
        }
      ],
      "name": "changePassword",
      "outputs": [],
      "stateMutability": "nonpayable",
      "type": "function"
    },
    {
      "inputs": [
        {
          "internalType": "string",
          "name": "email",
          "type": "string"
        },
        {
          "internalType": "string",
          "name": "reason",
          "type": "string"
        },
        {
          "internalType": "string",
          "name": "updatedBy",
          "type": "string"
        }
      ],
      "name": "deactivateUser",
      "outputs": [],
      "stateMutability": "nonpayable",
      "type": "function"
    },
    {
      "inputs": [
        {
          "internalType": "string",
          "name": "email",
          "type": "string"
        },
        {
          "internalType": "string",
          "name": "reason",
          "type": "string"
        },
        {
          "internalType": "string",
          "name": "updatedBy",
          "type": "string"
        }
      ],
      "name": "activateUser",
      "outputs": [],
      "stateMutability": "nonpayable",
      "type": "function"
    },
    {
      "inputs": [
        {
          "internalType": "string",
          "name": "email",
          "type": "string"
        }
      ],
      "name": "getCurrentStatus",
      "outputs": [
        {
          "internalType": "enum UserManagement.UserStatus",
          "name": "",
          "type": "uint8"
        }
      ],
      "stateMutability": "view",
      "type": "function",
      "constant": true
    },
    {
      "inputs": [
        {
          "internalType": "string",
          "name": "email",
          "type": "string"
        }
      ],
      "name": "getStatusHistory",
      "outputs": [
        {
          "components": [
            {
              "internalType": "enum UserManagement.UserStatus",
              "name": "status",
              "type": "uint8"
            },
            {
              "internalType": "uint256",
              "name": "timestamp",
              "type": "uint256"
            },
            {
              "internalType": "string",
              "name": "reason",
              "type": "string"
            },
            {
              "internalType": "string",
              "name": "updatedBy",
              "type": "string"
            }
          ],
          "internalType": "struct UserManagement.StatusHistory[]",
          "name": "",
          "type": "tuple[]"
        }
      ],
      "stateMutability": "view",
      "type": "function",
      "constant": true
    },
    {
      "inputs": [
        {
          "internalType": "string",
          "name": "email",
          "type": "string"
        },
        {
          "internalType": "string",
          "name": "newAddress",
          "type": "string"
        }
      ],
      "name": "updateAddress",
      "outputs": [],
      "stateMutability": "nonpayable",
      "type": "function"
    },
    {
      "inputs": [
        {
          "internalType": "string",
          "name": "email",
          "type": "string"
        }
      ],
      "name": "getCurrentAddress",
      "outputs": [
        {
          "internalType": "string",
          "name": "",
          "type": "string"
        }
      ],
      "stateMutability": "view",
      "type": "function",
      "constant": true
    },
    {
      "inputs": [
        {
          "internalType": "string",
          "name": "email",
          "type": "string"
        },
        {
          "internalType": "string",
          "name": "filename",
          "type": "string"
        }
      ],
      "name": "updateProfilePic",
      "outputs": [],
      "stateMutability": "nonpayable",
      "type": "function"
    },
    {
      "inputs": [
        {
          "internalType": "string",
          "name": "email",
          "type": "string"
        }
      ],
      "name": "getProfilePic",
      "outputs": [
        {
          "internalType": "string",
          "name": "",
          "type": "string"
        }
      ],
      "stateMutability": "view",
      "type": "function",
      "constant": true
    },
    {
      "inputs": [
        {
          "internalType": "string",
          "name": "email",
          "type": "string"
        },
        {
          "internalType": "int256",
          "name": "credits",
          "type": "int256"
        },
        {
          "internalType": "string",
          "name": "txnComment",
          "type": "string"
        },
        {
          "internalType": "string",
          "name": "updatedBy",
          "type": "string"
        }
      ],
      "name": "updateCredits",
      "outputs": [],
      "stateMutability": "nonpayable",
      "type": "function"
    },
    {
      "inputs": [
        {
          "internalType": "string",
          "name": "email",
          "type": "string"
        }
      ],
      "name": "getUserCredits",
      "outputs": [
        {
          "internalType": "int256",
          "name": "",
          "type": "int256"
        }
      ],
      "stateMutability": "view",
      "type": "function",
      "constant": true
    },
    {
      "inputs": [
        {
          "internalType": "string",
          "name": "email",
          "type": "string"
        }
      ],
      "name": "getUserCreditsHistory",
      "outputs": [
        {
          "components": [
            {
              "internalType": "int256",
              "name": "previousBalance",
              "type": "int256"
            },
            {
              "internalType": "int256",
              "name": "creditChange",
              "type": "int256"
            },
            {
              "internalType": "int256",
              "name": "newBalance",
              "type": "int256"
            },
            {
              "internalType": "string",
              "name": "txnComment",
              "type": "string"
            },
            {
              "internalType": "string",
              "name": "updatedBy",
              "type": "string"
            },
            {
              "internalType": "uint256",
              "name": "updateTimestamp",
              "type": "uint256"
            }
          ],
          "internalType": "struct UserManagement.CreditHistory[]",
          "name": "",
          "type": "tuple[]"
        }
      ],
      "stateMutability": "view",
      "type": "function",
      "constant": true
    },
    {
      "inputs": [
        {
          "internalType": "string",
          "name": "email",
          "type": "string"
        }
      ],
      "name": "getUserType",
      "outputs": [
        {
          "internalType": "enum UserManagement.UserType",
          "name": "",
          "type": "uint8"
        }
      ],
      "stateMutability": "view",
      "type": "function",
      "constant": true
    },
    {
      "inputs": [
        {
          "internalType": "string",
          "name": "email",
          "type": "string"
        },
        {
          "internalType": "string",
          "name": "organization",
          "type": "string"
        },
        {
          "internalType": "string",
          "name": "position",
          "type": "string"
        },
        {
          "internalType": "uint256",
          "name": "startDate",
          "type": "uint256"
        },
        {
          "internalType": "string",
          "name": "comments",
          "type": "string"
        },
        {
          "internalType": "bool",
          "name": "isVerified",
          "type": "bool"
        }
      ],
      "name": "joinCompany",
      "outputs": [],
      "stateMutability": "nonpayable",
      "type": "function"
    },
    {
      "inputs": [
        {
          "internalType": "string",
          "name": "email",
          "type": "string"
        },
        {
          "internalType": "string",
          "name": "organization",
          "type": "string"
        },
        {
          "internalType": "string",
          "name": "newPosition",
          "type": "string"
        },
        {
          "internalType": "uint256",
          "name": "date",
          "type": "uint256"
        },
        {
          "internalType": "string",
          "name": "comments",
          "type": "string"
        },
        {
          "internalType": "bool",
          "name": "isVerified",
          "type": "bool"
        }
      ],
      "name": "promoteEmployee",
      "outputs": [],
      "stateMutability": "nonpayable",
      "type": "function"
    },
    {
      "inputs": [
        {
          "internalType": "string",
          "name": "email",
          "type": "string"
        },
        {
          "internalType": "string",
          "name": "organization",
          "type": "string"
        },
        {
          "internalType": "uint256",
          "name": "date",
          "type": "uint256"
        },
        {
          "internalType": "enum EmploymentManagement.Employment_Status",
          "name": "status",
          "type": "uint8"
        },
        {
          "internalType": "string",
          "name": "comments",
          "type": "string"
        },
        {
          "internalType": "bool",
          "name": "isVerified",
          "type": "bool"
        }
      ],
      "name": "endEmployment",
      "outputs": [],
      "stateMutability": "nonpayable",
      "type": "function"
    },
    {
      "inputs": [
        {
          "internalType": "string",
          "name": "email",
          "type": "string"
        }
      ],
      "name": "getCurrentEmployment",
      "outputs": [
        {
          "components": [
            {
              "internalType": "string",
              "name": "organization",
              "type": "string"
            },
            {
              "internalType": "uint256",
              "name": "startDate",
              "type": "uint256"
            },
            {
              "internalType": "uint256",
              "name": "endDate",
              "type": "uint256"
            },
            {
              "internalType": "string",
              "name": "position",
              "type": "string"
            },
            {
              "internalType": "bool",
              "name": "active",
              "type": "bool"
            }
          ],
          "internalType": "struct EmploymentManagement.EmploymentDetails",
          "name": "",
          "type": "tuple"
        }
      ],
      "stateMutability": "view",
      "type": "function",
      "constant": true
    },
    {
      "inputs": [
        {
          "internalType": "string",
          "name": "email",
          "type": "string"
        }
      ],
      "name": "getEmploymentHistory",
      "outputs": [
        {
          "components": [
            {
              "internalType": "string",
              "name": "organization",
              "type": "string"
            },
            {
              "internalType": "uint256",
              "name": "actdate",
              "type": "uint256"
            },
            {
              "internalType": "string",
              "name": "position",
              "type": "string"
            },
            {
              "internalType": "enum EmploymentManagement.Employment_Status",
              "name": "status",
              "type": "uint8"
            },
            {
              "internalType": "string",
              "name": "comments",
              "type": "string"
            },
            {
              "internalType": "bool",
              "name": "isVerified",
              "type": "bool"
            }
          ],
          "internalType": "struct EmploymentManagement.EmploymentHistory[]",
          "name": "",
          "type": "tuple[]"
        }
      ],
      "stateMutability": "view",
      "type": "function",
      "constant": true
    },
    {
      "inputs": [
        {
          "internalType": "string",
          "name": "email",
          "type": "string"
        },
        {
          "internalType": "enum DocumentsManagement.DocumentTypes",
          "name": "documentType",
          "type": "uint8"
        },
        {
          "internalType": "string",
          "name": "title",
          "type": "string"
        },
        {
          "internalType": "string",
          "name": "document_id",
          "type": "string"
        },
        {
          "internalType": "string",
          "name": "file_name",
          "type": "string"
        },
        {
          "internalType": "string",
          "name": "file_url",
          "type": "string"
        },
        {
          "internalType": "string",
          "name": "json_data",
          "type": "string"
        },
        {
          "internalType": "string",
          "name": "verified_by",
          "type": "string"
        },
        {
          "internalType": "uint256",
          "name": "date",
          "type": "uint256"
        }
      ],
      "name": "addDocument",
      "outputs": [],
      "stateMutability": "nonpayable",
      "type": "function"
    },
    {
      "inputs": [
        {
          "internalType": "string",
          "name": "email",
          "type": "string"
        },
        {
          "internalType": "string",
          "name": "documentHash",
          "type": "string"
        },
        {
          "internalType": "string",
          "name": "verified_by",
          "type": "string"
        }
      ],
      "name": "verifyDocument",
      "outputs": [],
      "stateMutability": "nonpayable",
      "type": "function"
    },
    {
      "inputs": [
        {
          "internalType": "string",
          "name": "email",
          "type": "string"
        },
        {
          "internalType": "string",
          "name": "documentHash",
          "type": "string"
        }
      ],
      "name": "getDocument",
      "outputs": [
        {
          "components": [
            {
              "internalType": "string",
              "name": "documentHash",
              "type": "string"
            },
            {
              "internalType": "enum DocumentsManagement.DocumentTypes",
              "name": "documentType",
              "type": "uint8"
            },
            {
              "internalType": "string",
              "name": "title",
              "type": "string"
            },
            {
              "internalType": "string",
              "name": "document_id",
              "type": "string"
            },
            {
              "internalType": "string",
              "name": "file_name",
              "type": "string"
            },
            {
              "internalType": "string",
              "name": "file_url",
              "type": "string"
            },
            {
              "internalType": "string",
              "name": "json_data",
              "type": "string"
            },
            {
              "internalType": "string",
              "name": "verified_by",
              "type": "string"
            },
            {
              "internalType": "bool",
              "name": "isVerified",
              "type": "bool"
            },
            {
              "internalType": "uint256",
              "name": "date",
              "type": "uint256"
            }
          ],
          "internalType": "struct DocumentsManagement.EmployeeDocument",
          "name": "",
          "type": "tuple"
        }
      ],
      "stateMutability": "view",
      "type": "function",
      "constant": true
    },
    {
      "inputs": [
        {
          "internalType": "string",
          "name": "email",
          "type": "string"
        }
      ],
      "name": "getDocumentHashes",
      "outputs": [
        {
          "internalType": "string[]",
          "name": "",
          "type": "string[]"
        }
      ],
      "stateMutability": "view",
      "type": "function",
      "constant": true
    },
    {
      "inputs": [
        {
          "internalType": "string",
          "name": "email",
          "type": "string"
        }
      ],
      "name": "getAllDocuments",
      "outputs": [
        {
          "components": [
            {
              "internalType": "string",
              "name": "documentHash",
              "type": "string"
            },
            {
              "internalType": "enum DocumentsManagement.DocumentTypes",
              "name": "documentType",
              "type": "uint8"
            },
            {
              "internalType": "string",
              "name": "title",
              "type": "string"
            },
            {
              "internalType": "string",
              "name": "document_id",
              "type": "string"
            },
            {
              "internalType": "string",
              "name": "file_name",
              "type": "string"
            },
            {
              "internalType": "string",
              "name": "file_url",
              "type": "string"
            },
            {
              "internalType": "string",
              "name": "json_data",
              "type": "string"
            },
            {
              "internalType": "string",
              "name": "verified_by",
              "type": "string"
            },
            {
              "internalType": "bool",
              "name": "isVerified",
              "type": "bool"
            },
            {
              "internalType": "uint256",
              "name": "date",
              "type": "uint256"
            }
          ],
          "internalType": "struct DocumentsManagement.EmployeeDocument[]",
          "name": "",
          "type": "tuple[]"
        }
      ],
      "stateMutability": "view",
      "type": "function",
      "constant": true
    },
    {
      "inputs": [
        {
          "internalType": "string",
          "name": "email",
          "type": "string"
        },
        {
          "internalType": "string",
          "name": "skill",
          "type": "string"
        },
        {
          "internalType": "int256",
          "name": "score",
          "type": "int256"
        },
        {
          "internalType": "string",
          "name": "verified_by",
          "type": "string"
        }
      ],
      "name": "addSkill",
      "outputs": [],
      "stateMutability": "nonpayable",
      "type": "function"
    },
    {
      "inputs": [
        {
          "internalType": "string",
          "name": "email",
          "type": "string"
        },
        {
          "internalType": "string",
          "name": "skill",
          "type": "string"
        }
      ],
      "name": "getSkillScore",
      "outputs": [
        {
          "internalType": "int256",
          "name": "",
          "type": "int256"
        }
      ],
      "stateMutability": "view",
      "type": "function",
      "constant": true
    },
    {
      "inputs": [
        {
          "internalType": "string",
          "name": "email",
          "type": "string"
        }
      ],
      "name": "getSkills",
      "outputs": [
        {
          "components": [
            {
              "internalType": "string",
              "name": "skill",
              "type": "string"
            },
            {
              "internalType": "int256",
              "name": "avgscore",
              "type": "int256"
            },
            {
              "components": [
                {
                  "internalType": "int256",
                  "name": "score",
                  "type": "int256"
                },
                {
                  "internalType": "string",
                  "name": "verified_by",
                  "type": "string"
                },
                {
                  "internalType": "bool",
                  "name": "isVerified",
                  "type": "bool"
                },
                {
                  "internalType": "uint256",
                  "name": "date",
                  "type": "uint256"
                }
              ],
              "internalType": "struct SkillsManagement.SkillsVotes[]",
              "name": "votes",
              "type": "tuple[]"
            }
          ],
          "internalType": "struct SkillsManagement.AllSkillsResponse[]",
          "name": "",
          "type": "tuple[]"
        }
      ],
      "stateMutability": "view",
      "type": "function",
      "constant": true
    },
    {
      "inputs": [
        {
          "internalType": "string",
          "name": "email",
          "type": "string"
        }
      ],
      "name": "addAccessKey",
      "outputs": [],
      "stateMutability": "nonpayable",
      "type": "function"
    },
    {
      "inputs": [
        {
          "internalType": "string",
          "name": "email",
          "type": "string"
        },
        {
          "internalType": "string",
          "name": "accessKey",
          "type": "string"
        },
        {
          "internalType": "string",
          "name": "used_by",
          "type": "string"
        }
      ],
      "name": "AccessKeyIsActive",
      "outputs": [
        {
          "internalType": "bool",
          "name": "",
          "type": "bool"
        }
      ],
      "stateMutability": "nonpayable",
      "type": "function"
    },
    {
      "inputs": [
        {
          "internalType": "string",
          "name": "email",
          "type": "string"
        },
        {
          "internalType": "string",
          "name": "accessKey",
          "type": "string"
        }
      ],
      "name": "disableAccessKey",
      "outputs": [],
      "stateMutability": "nonpayable",
      "type": "function"
    }
  ],
  "bytecode": "0x60806040523480156200001157600080fd5b506040516200623b3803806200623b8339818101604052810190620000379190620001df565b856000806101000a81548173ffffffffffffffffffffffffffffffffffffffff021916908373ffffffffffffffffffffffffffffffffffffffff16021790555084600160006101000a81548173ffffffffffffffffffffffffffffffffffffffff021916908373ffffffffffffffffffffffffffffffffffffffff16021790555083600260006101000a81548173ffffffffffffffffffffffffffffffffffffffff021916908373ffffffffffffffffffffffffffffffffffffffff16021790555082600360006101000a81548173ffffffffffffffffffffffffffffffffffffffff021916908373ffffffffffffffffffffffffffffffffffffffff16021790555081600460006101000a81548173ffffffffffffffffffffffffffffffffffffffff021916908373ffffffffffffffffffffffffffffffffffffffff16021790555080600560006101000a81548173ffffffffffffffffffffffffffffffffffffffff021916908373ffffffffffffffffffffffffffffffffffffffff160217905550505050505050620002c3565b600081519050620001d981620002a9565b92915050565b60008060008060008060c08789031215620001f957600080fd5b60006200020989828a01620001c8565b96505060206200021c89828a01620001c8565b95505060406200022f89828a01620001c8565b94505060606200024289828a01620001c8565b93505060806200025589828a01620001c8565b92505060a06200026889828a01620001c8565b9150509295509295509295565b6000620002828262000289565b9050919050565b600073ffffffffffffffffffffffffffffffffffffffff82169050919050565b620002b48162000275565b8114620002c057600080fd5b50565b615f6880620002d36000396000f3fe608060405234801561001057600080fd5b506004361061028a5760003560e01c80638384c0a71161015c578063c2de9ab2116100ce578063e283ee2d11610087578063e283ee2d14610889578063e6b58e5f146108b9578063e7ccd6ae146108e9578063eb9c61c514610907578063ec13eac114610923578063fa691c191461093f5761028a565b8063c2de9ab2146107a3578063cca55dff146107d3578063ccff137a146107ef578063d87c828d1461080d578063dbb0d8dc1461083d578063dcbbeac81461086d5761028a565b80638f4f1fc2116101205780638f4f1fc2146106bd57806399b3d949146106ed5780639c8029801461070b5780639f9a3b101461073b578063bd66a12314610757578063bf3696e7146107875761028a565b80638384c0a7146105e157806384a836621461061157806384cb7cec1461062d57806384d5d0fd1461065d57806387680a471461068d5761028a565b80633e35cd25116102005780636a767f50116101b95780636a767f50146104fb5780637ba20a4d146105195780637be1bb1b146105495780637ecfabaf146105795780637ef94cdd1461059557806383181e72146105b15761028a565b80633e35cd2514610429578063465ca664146104455780634cbee8131461047557806353ec8711146104915780635526e6e4146104c157806361ef2b6c146104dd5761028a565b8063288c0abb11610252578063288c0abb1461035957806328e886cf146103895780632c1579bb146103a557806330567e6d146103c1578063306f14d7146103dd57806339b00ef81461040d5761028a565b8063024084c31461028f5780630c90d010146102bf5780630d7087e9146102db57806319bd05d3146102f95780632369fecc14610329575b600080fd5b6102a960048036038101906102a491906137ea565b61095d565b6040516102b69190615167565b60405180910390f35b6102d960048036038101906102d491906139da565b610a14565b005b6102e3610aab565b6040516102f09190615189565b60405180910390f35b610313600480360381019061030e91906137ea565b610b55565b604051610320919061578a565b60405180910390f35b610343600480360381019061033e91906137ea565b610c12565b60405161035091906150df565b60405180910390f35b610373600480360381019061036e91906137ea565b610ccb565b6040516103809190615702565b60405180910390f35b6103a3600480360381019061039e9190613f6f565b610d8a565b005b6103bf60048036038101906103ba9190613a85565b610e29565b005b6103db60048036038101906103d69190613d44565b610ebc565b005b6103f760048036038101906103f291906137ea565b610f50565b6040516104049190615145565b60405180910390f35b6104276004803603810190610422919061386c565b611009565b005b610443600480360381019061043e9190613e86565b6110b1565b005b61045f600480360381019061045a91906137ea565b611150565b60405161046c91906152b9565b60405180910390f35b61048f600480360381019061048a91906137ea565b611207565b005b6104ab60048036038101906104a69190613a85565b611295565b6040516104b89190615724565b60405180910390f35b6104db60048036038101906104d69190613d44565b611357565b005b6104e56113ed565b6040516104f291906151c6565b60405180910390f35b610503611413565b604051610510919061524d565b60405180910390f35b610533600480360381019061052e91906137ea565b611437565b6040516105409190615283565b60405180910390f35b610563600480360381019061055e91906137ea565b6114ea565b6040516105709190615268565b60405180910390f35b610593600480360381019061058e9190613bb0565b61159d565b005b6105af60048036038101906105aa9190613d44565b61163a565b005b6105cb60048036038101906105c691906137ea565b6116ce565b6040516105d891906152b9565b60405180910390f35b6105fb60048036038101906105f69190613a85565b611785565b604051610608919061529e565b60405180910390f35b61062b60048036038101906106269190613a85565b61183c565b005b610647600480360381019061064291906137ea565b6118cd565b60405161065491906151ab565b60405180910390f35b610677600480360381019061067291906137ea565b611980565b604051610684919061529e565b60405180910390f35b6106a760048036038101906106a291906137ea565b611a33565b6040516106b491906150bd565b60405180910390f35b6106d760048036038101906106d291906137ea565b611aec565b6040516106e49190615101565b60405180910390f35b6106f5611ba3565b60405161070291906151e1565b60405180910390f35b610725600480360381019061072091906137ea565b611bc9565b60405161073291906151ab565b60405180910390f35b61075560048036038101906107509190613c99565b611c7c565b005b610771600480360381019061076c9190613d44565b611d15565b60405161077e91906151ab565b60405180910390f35b6107a1600480360381019061079c9190613e86565b611dd1565b005b6107bd60048036038101906107b891906137ea565b611e70565b6040516107ca91906152b9565b60405180910390f35b6107ed60048036038101906107e89190613a85565b611f27565b005b6107f7611fb8565b60405161080491906151fc565b60405180910390f35b610827600480360381019061082291906137ea565b611fde565b6040516108349190615746565b60405180910390f35b610857600480360381019061085291906137ea565b61209d565b6040516108649190615768565b60405180910390f35b61088760048036038101906108829190613af1565b61215c565b005b6108a3600480360381019061089e91906137ea565b6121f6565b6040516108b09190615123565b60405180910390f35b6108d360048036038101906108ce9190613ddb565b6122af565b6040516108e091906151ab565b60405180910390f35b6108f161236d565b6040516108fe9190615232565b60405180910390f35b610921600480360381019061091c91906137ea565b612393565b005b61093d60048036038101906109389190613a85565b612423565b005b6109476124b4565b6040516109549190615217565b60405180910390f35b606060008054906101000a900473ffffffffffffffffffffffffffffffffffffffff1673ffffffffffffffffffffffffffffffffffffffff1663024084c3836040518263ffffffff1660e01b81526004016109b891906152b9565b60006040518083038186803b1580156109d057600080fd5b505afa1580156109e4573d6000803e3d6000fd5b505050506040513d6000823e3d601f19601f82011682018060405250810190610a0d91906136c4565b9050919050565b60008054906101000a900473ffffffffffffffffffffffffffffffffffffffff1673ffffffffffffffffffffffffffffffffffffffff16630c90d010858585856040518563ffffffff1660e01b8152600401610a739493929190615399565b600060405180830381600087803b158015610a8d57600080fd5b505af1158015610aa1573d6000803e3d6000fd5b5050505050505050565b606060008054906101000a900473ffffffffffffffffffffffffffffffffffffffff1673ffffffffffffffffffffffffffffffffffffffff16630d7087e96040518163ffffffff1660e01b815260040160006040518083038186803b158015610b1357600080fd5b505afa158015610b27573d6000803e3d6000fd5b505050506040513d6000823e3d601f19601f82011682018060405250810190610b509190613705565b905090565b610b5d6124da565b60008054906101000a900473ffffffffffffffffffffffffffffffffffffffff1673ffffffffffffffffffffffffffffffffffffffff1663a81203b6836040518263ffffffff1660e01b8152600401610bb691906152b9565b60006040518083038186803b158015610bce57600080fd5b505afa158015610be2573d6000803e3d6000fd5b505050506040513d6000823e3d601f19601f82011682018060405250810190610c0b9190614144565b9050919050565b6060600360009054906101000a900473ffffffffffffffffffffffffffffffffffffffff1673ffffffffffffffffffffffffffffffffffffffff16632369fecc836040518263ffffffff1660e01b8152600401610c6f91906152b9565b60006040518083038186803b158015610c8757600080fd5b505afa158015610c9b573d6000803e3d6000fd5b505050506040513d6000823e3d601f19601f82011682018060405250810190610cc491906135c0565b9050919050565b610cd3612501565b600560009054906101000a900473ffffffffffffffffffffffffffffffffffffffff1673ffffffffffffffffffffffffffffffffffffffff1663288c0abb836040518263ffffffff1660e01b8152600401610d2e91906152b9565b60006040518083038186803b158015610d4657600080fd5b505afa158015610d5a573d6000803e3d6000fd5b505050506040513d6000823e3d601f19601f82011682018060405250810190610d839190614040565b9050919050565b600160009054906101000a900473ffffffffffffffffffffffffffffffffffffffff1673ffffffffffffffffffffffffffffffffffffffff166328e886cf8787878787876040518763ffffffff1660e01b8152600401610def9695949392919061568c565b600060405180830381600087803b158015610e0957600080fd5b505af1158015610e1d573d6000803e3d6000fd5b50505050505050505050565b600460009054906101000a900473ffffffffffffffffffffffffffffffffffffffff1673ffffffffffffffffffffffffffffffffffffffff16632c1579bb83836040518363ffffffff1660e01b8152600401610e869291906153f3565b600060405180830381600087803b158015610ea057600080fd5b505af1158015610eb4573d6000803e3d6000fd5b505050505050565b60008054906101000a900473ffffffffffffffffffffffffffffffffffffffff1673ffffffffffffffffffffffffffffffffffffffff166330567e6d8484846040518463ffffffff1660e01b8152600401610f1993929190615569565b600060405180830381600087803b158015610f3357600080fd5b505af1158015610f47573d6000803e3d6000fd5b50505050505050565b6060600160009054906101000a900473ffffffffffffffffffffffffffffffffffffffff1673ffffffffffffffffffffffffffffffffffffffff1663306f14d7836040518263ffffffff1660e01b8152600401610fad91906152b9565b60006040518083038186803b158015610fc557600080fd5b505afa158015610fd9573d6000803e3d6000fd5b505050506040513d6000823e3d601f19601f820116820180604052508101906110029190613683565b9050919050565b600260009054906101000a900473ffffffffffffffffffffffffffffffffffffffff1673ffffffffffffffffffffffffffffffffffffffff166339b00ef88a8a8a8a8a8a8a8a8a6040518a63ffffffff1660e01b8152600401611074999897969594939291906152db565b600060405180830381600087803b15801561108e57600080fd5b505af11580156110a2573d6000803e3d6000fd5b50505050505050505050505050565b600160009054906101000a900473ffffffffffffffffffffffffffffffffffffffff1673ffffffffffffffffffffffffffffffffffffffff16633e35cd258787878787876040518763ffffffff1660e01b81526004016111169695949392919061560f565b600060405180830381600087803b15801561113057600080fd5b505af1158015611144573d6000803e3d6000fd5b50505050505050505050565b606060008054906101000a900473ffffffffffffffffffffffffffffffffffffffff1673ffffffffffffffffffffffffffffffffffffffff1663465ca664836040518263ffffffff1660e01b81526004016111ab91906152b9565b60006040518083038186803b1580156111c357600080fd5b505afa1580156111d7573d6000803e3d6000fd5b505050506040513d6000823e3d601f19601f82011682018060405250810190611200919061382b565b9050919050565b60008054906101000a900473ffffffffffffffffffffffffffffffffffffffff1673ffffffffffffffffffffffffffffffffffffffff16634cbee813826040518263ffffffff1660e01b815260040161126091906152b9565b600060405180830381600087803b15801561127a57600080fd5b505af115801561128e573d6000803e3d6000fd5b5050505050565b61129d61251a565b600260009054906101000a900473ffffffffffffffffffffffffffffffffffffffff1673ffffffffffffffffffffffffffffffffffffffff166353ec871184846040518363ffffffff1660e01b81526004016112fa9291906153f3565b60006040518083038186803b15801561131257600080fd5b505afa158015611326573d6000803e3d6000fd5b505050506040513d6000823e3d601f19601f8201168201806040525081019061134f9190614081565b905092915050565b600260009054906101000a900473ffffffffffffffffffffffffffffffffffffffff1673ffffffffffffffffffffffffffffffffffffffff16635526e6e48484846040518463ffffffff1660e01b81526004016113b693929190615569565b600060405180830381600087803b1580156113d057600080fd5b505af11580156113e4573d6000803e3d6000fd5b50505050505050565b600560009054906101000a900473ffffffffffffffffffffffffffffffffffffffff1681565b60008054906101000a900473ffffffffffffffffffffffffffffffffffffffff1681565b60008060009054906101000a900473ffffffffffffffffffffffffffffffffffffffff1673ffffffffffffffffffffffffffffffffffffffff16637ba20a4d836040518263ffffffff1660e01b815260040161149391906152b9565b60206040518083038186803b1580156114ab57600080fd5b505afa1580156114bf573d6000803e3d6000fd5b505050506040513d601f19601f820116820180604052508101906114e39190613798565b9050919050565b60008060009054906101000a900473ffffffffffffffffffffffffffffffffffffffff1673ffffffffffffffffffffffffffffffffffffffff16637be1bb1b836040518263ffffffff1660e01b815260040161154691906152b9565b60206040518083038186803b15801561155e57600080fd5b505afa158015611572573d6000803e3d6000fd5b505050506040513d601f19601f82011682018060405250810190611596919061376f565b9050919050565b60008054906101000a900473ffffffffffffffffffffffffffffffffffffffff1673ffffffffffffffffffffffffffffffffffffffff16637ecfabaf8787878787876040518763ffffffff1660e01b815260040161160096959493929190615492565b600060405180830381600087803b15801561161a57600080fd5b505af115801561162e573d6000803e3d6000fd5b50505050505050505050565b60008054906101000a900473ffffffffffffffffffffffffffffffffffffffff1673ffffffffffffffffffffffffffffffffffffffff16637ef94cdd8484846040518463ffffffff1660e01b815260040161169793929190615569565b600060405180830381600087803b1580156116b157600080fd5b505af11580156116c5573d6000803e3d6000fd5b50505050505050565b606060008054906101000a900473ffffffffffffffffffffffffffffffffffffffff1673ffffffffffffffffffffffffffffffffffffffff166383181e72836040518263ffffffff1660e01b815260040161172991906152b9565b60006040518083038186803b15801561174157600080fd5b505afa158015611755573d6000803e3d6000fd5b505050506040513d6000823e3d601f19601f8201168201806040525081019061177e919061382b565b9050919050565b6000600360009054906101000a900473ffffffffffffffffffffffffffffffffffffffff1673ffffffffffffffffffffffffffffffffffffffff16638384c0a784846040518363ffffffff1660e01b81526004016117e49291906153f3565b60206040518083038186803b1580156117fc57600080fd5b505afa158015611810573d6000803e3d6000fd5b505050506040513d601f19601f8201168201806040525081019061183491906137c1565b905092915050565b60008054906101000a900473ffffffffffffffffffffffffffffffffffffffff1673ffffffffffffffffffffffffffffffffffffffff166384a8366283836040518363ffffffff1660e01b81526004016118979291906153f3565b600060405180830381600087803b1580156118b157600080fd5b505af11580156118c5573d6000803e3d6000fd5b505050505050565b60008060009054906101000a900473ffffffffffffffffffffffffffffffffffffffff1673ffffffffffffffffffffffffffffffffffffffff166384cb7cec836040518263ffffffff1660e01b815260040161192991906152b9565b60206040518083038186803b15801561194157600080fd5b505afa158015611955573d6000803e3d6000fd5b505050506040513d601f19601f820116820180604052508101906119799190613746565b9050919050565b60008060009054906101000a900473ffffffffffffffffffffffffffffffffffffffff1673ffffffffffffffffffffffffffffffffffffffff166384d5d0fd836040518263ffffffff1660e01b81526004016119dc91906152b9565b60206040518083038186803b1580156119f457600080fd5b505afa158015611a08573d6000803e3d6000fd5b505050506040513d601f19601f82011682018060405250810190611a2c91906137c1565b9050919050565b6060600260009054906101000a900473ffffffffffffffffffffffffffffffffffffffff1673ffffffffffffffffffffffffffffffffffffffff166387680a47836040518263ffffffff1660e01b8152600401611a9091906152b9565b60006040518083038186803b158015611aa857600080fd5b505afa158015611abc573d6000803e3d6000fd5b505050506040513d6000823e3d601f19601f82011682018060405250810190611ae5919061357f565b9050919050565b606060008054906101000a900473ffffffffffffffffffffffffffffffffffffffff1673ffffffffffffffffffffffffffffffffffffffff166372cc7743836040518263ffffffff1660e01b8152600401611b4791906152b9565b60006040518083038186803b158015611b5f57600080fd5b505afa158015611b73573d6000803e3d6000fd5b505050506040513d6000823e3d601f19601f82011682018060405250810190611b9c9190613601565b9050919050565b600260009054906101000a900473ffffffffffffffffffffffffffffffffffffffff1681565b60008060009054906101000a900473ffffffffffffffffffffffffffffffffffffffff1673ffffffffffffffffffffffffffffffffffffffff16639c802980836040518263ffffffff1660e01b8152600401611c2591906152b9565b60206040518083038186803b158015611c3d57600080fd5b505afa158015611c51573d6000803e3d6000fd5b505050506040513d601f19601f82011682018060405250810190611c759190613746565b9050919050565b600360009054906101000a900473ffffffffffffffffffffffffffffffffffffffff1673ffffffffffffffffffffffffffffffffffffffff16639f9a3b10858585856040518563ffffffff1660e01b8152600401611cdd949392919061550f565b600060405180830381600087803b158015611cf757600080fd5b505af1158015611d0b573d6000803e3d6000fd5b5050505050505050565b6000600460009054906101000a900473ffffffffffffffffffffffffffffffffffffffff1673ffffffffffffffffffffffffffffffffffffffff1663bd66a1238585856040518463ffffffff1660e01b8152600401611d7693929190615569565b602060405180830381600087803b158015611d9057600080fd5b505af1158015611da4573d6000803e3d6000fd5b505050506040513d601f19601f82011682018060405250810190611dc89190613746565b90509392505050565b600160009054906101000a900473ffffffffffffffffffffffffffffffffffffffff1673ffffffffffffffffffffffffffffffffffffffff1663bf3696e78787878787876040518763ffffffff1660e01b8152600401611e369695949392919061560f565b600060405180830381600087803b158015611e5057600080fd5b505af1158015611e64573d6000803e3d6000fd5b50505050505050505050565b606060008054906101000a900473ffffffffffffffffffffffffffffffffffffffff1673ffffffffffffffffffffffffffffffffffffffff1663c2de9ab2836040518263ffffffff1660e01b8152600401611ecb91906152b9565b60006040518083038186803b158015611ee357600080fd5b505afa158015611ef7573d6000803e3d6000fd5b505050506040513d6000823e3d601f19601f82011682018060405250810190611f20919061382b565b9050919050565b60008054906101000a900473ffffffffffffffffffffffffffffffffffffffff1673ffffffffffffffffffffffffffffffffffffffff1663cca55dff83836040518363ffffffff1660e01b8152600401611f829291906153f3565b600060405180830381600087803b158015611f9c57600080fd5b505af1158015611fb0573d6000803e3d6000fd5b505050505050565b600460009054906101000a900473ffffffffffffffffffffffffffffffffffffffff1681565b611fe66125a7565b600460009054906101000a900473ffffffffffffffffffffffffffffffffffffffff1673ffffffffffffffffffffffffffffffffffffffff1663d87c828d836040518263ffffffff1660e01b815260040161204191906152b9565b60006040518083038186803b15801561205957600080fd5b505afa15801561206d573d6000803e3d6000fd5b505050506040513d6000823e3d601f19601f8201168201806040525081019061209691906140c2565b9050919050565b6120a56125e2565b600160009054906101000a900473ffffffffffffffffffffffffffffffffffffffff1673ffffffffffffffffffffffffffffffffffffffff1663dbb0d8dc836040518263ffffffff1660e01b815260040161210091906152b9565b60006040518083038186803b15801561211857600080fd5b505afa15801561212c573d6000803e3d6000fd5b505050506040513d6000823e3d601f19601f820116820180604052508101906121559190614103565b9050919050565b60008054906101000a900473ffffffffffffffffffffffffffffffffffffffff1673ffffffffffffffffffffffffffffffffffffffff1663dcbbeac886868686866040518663ffffffff1660e01b81526004016121bd95949392919061542a565b600060405180830381600087803b1580156121d757600080fd5b505af11580156121eb573d6000803e3d6000fd5b505050505050505050565b6060600260009054906101000a900473ffffffffffffffffffffffffffffffffffffffff1673ffffffffffffffffffffffffffffffffffffffff1663e283ee2d836040518263ffffffff1660e01b815260040161225391906152b9565b60006040518083038186803b15801561226b57600080fd5b505afa15801561227f573d6000803e3d6000fd5b505050506040513d6000823e3d601f19601f820116820180604052508101906122a89190613642565b9050919050565b60008060009054906101000a900473ffffffffffffffffffffffffffffffffffffffff1673ffffffffffffffffffffffffffffffffffffffff1663e6b58e5f868686866040518563ffffffff1660e01b815260040161231194939291906155b5565b602060405180830381600087803b15801561232b57600080fd5b505af115801561233f573d6000803e3d6000fd5b505050506040513d601f19601f820116820180604052508101906123639190613746565b9050949350505050565b600360009054906101000a900473ffffffffffffffffffffffffffffffffffffffff1681565b600460009054906101000a900473ffffffffffffffffffffffffffffffffffffffff1673ffffffffffffffffffffffffffffffffffffffff1663eb9c61c5826040518263ffffffff1660e01b81526004016123ee91906152b9565b600060405180830381600087803b15801561240857600080fd5b505af115801561241c573d6000803e3d6000fd5b5050505050565b60008054906101000a900473ffffffffffffffffffffffffffffffffffffffff1673ffffffffffffffffffffffffffffffffffffffff1663ec13eac183836040518363ffffffff1660e01b815260040161247e9291906153f3565b600060405180830381600087803b15801561249857600080fd5b505af11580156124ac573d6000803e3d6000fd5b505050505050565b600160009054906101000a900473ffffffffffffffffffffffffffffffffffffffff1681565b60405180606001604052806124ed612613565b815260200160608152602001606081525090565b6040518060200160405280612514612613565b81525090565b6040518061014001604052806060815260200160006002811115612567577f4e487b7100000000000000000000000000000000000000000000000000000000600052602160045260246000fd5b8152602001606081526020016060815260200160608152602001606081526020016060815260200160608152602001600015158152602001600081525090565b6040518060a001604052806125ba612613565b8152602001606081526020016125ce6125e2565b815260200160608152602001606081525090565b6040518060a00160405280606081526020016000815260200160008152602001606081526020016000151581525090565b6040518060a00160405280606081526020016060815260200160006002811115612666577f4e487b7100000000000000000000000000000000000000000000000000000000600052602160045260246000fd5b815260200160608152602001600060028111156126ac577f4e487b7100000000000000000000000000000000000000000000000000000000600052602160045260246000fd5b81525090565b60006126c56126c0846157dd565b6157ac565b9050808382526020820190508260005b8581101561270557815185016126eb8882612ca1565b8452602084019350602083019250506001810190506126d5565b5050509392505050565b600061272261271d84615809565b6157ac565b9050808382526020820190508260005b8581101561276257815185016127488882612d1b565b845260208401935060208301925050600181019050612732565b5050509392505050565b600061277f61277a84615835565b6157ac565b9050808382526020820190508260005b858110156127bf57815185016127a58882612dab565b84526020840193506020830192505060018101905061278f565b5050509392505050565b60006127dc6127d784615861565b6157ac565b9050808382526020820190508260005b8581101561281c57815185016128028882612e77565b8452602084019350602083019250506001810190506127ec565b5050509392505050565b60006128396128348461588d565b6157ac565b9050808382526020820190508260005b85811015612879578151850161285f88826131c9565b845260208401935060208301925050600181019050612849565b5050509392505050565b6000612896612891846158b9565b6157ac565b9050808382526020820190508260005b858110156128d657815185016128bc8882613355565b8452602084019350602083019250506001810190506128a6565b5050509392505050565b60006128f36128ee846158e5565b6157ac565b9050808382526020820190508260005b85811015612933578151850161291988826133e1565b845260208401935060208301925050600181019050612903565b5050509392505050565b600061295061294b84615911565b6157ac565b9050808382526020820190508260005b8581101561299057815185016129768882613485565b845260208401935060208301925050600181019050612960565b5050509392505050565b60006129ad6129a88461593d565b6157ac565b9050828152602081018484840111156129c557600080fd5b6129d0848285615d88565b509392505050565b60006129eb6129e68461593d565b6157ac565b905082815260208101848484011115612a0357600080fd5b612a0e848285615d97565b509392505050565b600082601f830112612a2757600080fd5b8151612a378482602086016126b2565b91505092915050565b600082601f830112612a5157600080fd5b8151612a6184826020860161270f565b91505092915050565b600082601f830112612a7b57600080fd5b8151612a8b84826020860161276c565b91505092915050565b600082601f830112612aa557600080fd5b8151612ab58482602086016127c9565b91505092915050565b600082601f830112612acf57600080fd5b8151612adf848260208601612826565b91505092915050565b600082601f830112612af957600080fd5b8151612b09848260208601612883565b91505092915050565b600082601f830112612b2357600080fd5b8151612b338482602086016128e0565b91505092915050565b600082601f830112612b4d57600080fd5b8151612b5d84826020860161293d565b91505092915050565b600081359050612b7581615e9d565b92915050565b600081519050612b8a81615e9d565b92915050565b600081359050612b9f81615eb4565b92915050565b600081519050612bb481615eb4565b92915050565b600081359050612bc981615ec4565b92915050565b600081519050612bde81615ec4565b92915050565b600081359050612bf381615ed4565b92915050565b600081519050612c0881615ed4565b92915050565b600081519050612c1d81615ee4565b92915050565b600081359050612c3281615ef4565b92915050565b600081519050612c4781615ef4565b92915050565b600081359050612c5c81615f04565b92915050565b600081519050612c7181615f04565b92915050565b600082601f830112612c8857600080fd5b8135612c9884826020860161299a565b91505092915050565b600082601f830112612cb257600080fd5b8151612cc28482602086016129d8565b91505092915050565b600060208284031215612cdd57600080fd5b612ce760206157ac565b9050600082015167ffffffffffffffff811115612d0357600080fd5b612d0f84828501613485565b60008301525092915050565b600060608284031215612d2d57600080fd5b612d3760606157ac565b9050600082015167ffffffffffffffff811115612d5357600080fd5b612d5f84828501612ca1565b6000830152506020612d7384828501612c62565b602083015250604082015167ffffffffffffffff811115612d9357600080fd5b612d9f84828501612ae8565b60408301525092915050565b600060c08284031215612dbd57600080fd5b612dc760c06157ac565b90506000612dd784828501612c62565b6000830152506020612deb84828501612c62565b6020830152506040612dff84828501612c62565b604083015250606082015167ffffffffffffffff811115612e1f57600080fd5b612e2b84828501612ca1565b606083015250608082015167ffffffffffffffff811115612e4b57600080fd5b612e5784828501612ca1565b60808301525060a0612e6b8482850161356a565b60a08301525092915050565b60006101408284031215612e8a57600080fd5b612e956101406157ac565b9050600082015167ffffffffffffffff811115612eb157600080fd5b612ebd84828501612ca1565b6000830152506020612ed184828501612ba5565b602083015250604082015167ffffffffffffffff811115612ef157600080fd5b612efd84828501612ca1565b604083015250606082015167ffffffffffffffff811115612f1d57600080fd5b612f2984828501612ca1565b606083015250608082015167ffffffffffffffff811115612f4957600080fd5b612f5584828501612ca1565b60808301525060a082015167ffffffffffffffff811115612f7557600080fd5b612f8184828501612ca1565b60a08301525060c082015167ffffffffffffffff811115612fa157600080fd5b612fad84828501612ca1565b60c08301525060e082015167ffffffffffffffff811115612fcd57600080fd5b612fd984828501612ca1565b60e083015250610100612fee84828501612b7b565b610100830152506101206130048482850161356a565b6101208301525092915050565b600060a0828403121561302357600080fd5b61302d60a06157ac565b9050600082015167ffffffffffffffff81111561304957600080fd5b61305584828501613485565b600083015250602082015167ffffffffffffffff81111561307557600080fd5b61308184828501612a94565b602083015250604082015167ffffffffffffffff8111156130a157600080fd5b6130ad84828501613111565b604083015250606082015167ffffffffffffffff8111156130cd57600080fd5b6130d984828501612abe565b606083015250608082015167ffffffffffffffff8111156130f957600080fd5b61310584828501612a40565b60808301525092915050565b600060a0828403121561312357600080fd5b61312d60a06157ac565b9050600082015167ffffffffffffffff81111561314957600080fd5b61315584828501612ca1565b60008301525060206131698482850161356a565b602083015250604061317d8482850161356a565b604083015250606082015167ffffffffffffffff81111561319d57600080fd5b6131a984828501612ca1565b60608301525060806131bd84828501612b7b565b60808301525092915050565b600060c082840312156131db57600080fd5b6131e560c06157ac565b9050600082015167ffffffffffffffff81111561320157600080fd5b61320d84828501612ca1565b60008301525060206132218482850161356a565b602083015250604082015167ffffffffffffffff81111561324157600080fd5b61324d84828501612ca1565b604083015250606061326184828501612bcf565b606083015250608082015167ffffffffffffffff81111561328157600080fd5b61328d84828501612ca1565b60808301525060a06132a184828501612b7b565b60a08301525092915050565b6000606082840312156132bf57600080fd5b6132c960606157ac565b9050600082015167ffffffffffffffff8111156132e557600080fd5b6132f184828501613485565b600083015250602082015167ffffffffffffffff81111561331157600080fd5b61331d84828501612b12565b602083015250604082015167ffffffffffffffff81111561333d57600080fd5b61334984828501612a6a565b60408301525092915050565b60006080828403121561336757600080fd5b61337160806157ac565b9050600061338184828501612c62565b600083015250602082015167ffffffffffffffff8111156133a157600080fd5b6133ad84828501612ca1565b60208301525060406133c184828501612b7b565b60408301525060606133d58482850161356a565b60608301525092915050565b6000608082840312156133f357600080fd5b6133fd60806157ac565b9050600061340d84828501612c0e565b60008301525060206134218482850161356a565b602083015250604082015167ffffffffffffffff81111561344157600080fd5b61344d84828501612ca1565b604083015250606082015167ffffffffffffffff81111561346d57600080fd5b61347984828501612ca1565b60608301525092915050565b600060a0828403121561349757600080fd5b6134a160a06157ac565b9050600082015167ffffffffffffffff8111156134bd57600080fd5b6134c984828501612ca1565b600083015250602082015167ffffffffffffffff8111156134e957600080fd5b6134f584828501612ca1565b602083015250604061350984828501612bf9565b604083015250606082015167ffffffffffffffff81111561352957600080fd5b61353584828501612ca1565b606083015250608061354984828501612c38565b60808301525092915050565b60008135905061356481615f1b565b92915050565b60008151905061357981615f1b565b92915050565b60006020828403121561359157600080fd5b600082015167ffffffffffffffff8111156135ab57600080fd5b6135b784828501612a16565b91505092915050565b6000602082840312156135d257600080fd5b600082015167ffffffffffffffff8111156135ec57600080fd5b6135f884828501612a40565b91505092915050565b60006020828403121561361357600080fd5b600082015167ffffffffffffffff81111561362d57600080fd5b61363984828501612a6a565b91505092915050565b60006020828403121561365457600080fd5b600082015167ffffffffffffffff81111561366e57600080fd5b61367a84828501612a94565b91505092915050565b60006020828403121561369557600080fd5b600082015167ffffffffffffffff8111156136af57600080fd5b6136bb84828501612abe565b91505092915050565b6000602082840312156136d657600080fd5b600082015167ffffffffffffffff8111156136f057600080fd5b6136fc84828501612b12565b91505092915050565b60006020828403121561371757600080fd5b600082015167ffffffffffffffff81111561373157600080fd5b61373d84828501612b3c565b91505092915050565b60006020828403121561375857600080fd5b600061376684828501612b7b565b91505092915050565b60006020828403121561378157600080fd5b600061378f84828501612c0e565b91505092915050565b6000602082840312156137aa57600080fd5b60006137b884828501612c38565b91505092915050565b6000602082840312156137d357600080fd5b60006137e184828501612c62565b91505092915050565b6000602082840312156137fc57600080fd5b600082013567ffffffffffffffff81111561381657600080fd5b61382284828501612c77565b91505092915050565b60006020828403121561383d57600080fd5b600082015167ffffffffffffffff81111561385757600080fd5b61386384828501612ca1565b91505092915050565b60008060008060008060008060006101208a8c03121561388b57600080fd5b60008a013567ffffffffffffffff8111156138a557600080fd5b6138b18c828d01612c77565b99505060206138c28c828d01612b90565b98505060408a013567ffffffffffffffff8111156138df57600080fd5b6138eb8c828d01612c77565b97505060608a013567ffffffffffffffff81111561390857600080fd5b6139148c828d01612c77565b96505060808a013567ffffffffffffffff81111561393157600080fd5b61393d8c828d01612c77565b95505060a08a013567ffffffffffffffff81111561395a57600080fd5b6139668c828d01612c77565b94505060c08a013567ffffffffffffffff81111561398357600080fd5b61398f8c828d01612c77565b93505060e08a013567ffffffffffffffff8111156139ac57600080fd5b6139b88c828d01612c77565b9250506101006139ca8c828d01613555565b9150509295985092959850929598565b600080600080608085870312156139f057600080fd5b600085013567ffffffffffffffff811115613a0a57600080fd5b613a1687828801612c77565b9450506020613a2787828801612c4d565b935050604085013567ffffffffffffffff811115613a4457600080fd5b613a5087828801612c77565b925050606085013567ffffffffffffffff811115613a6d57600080fd5b613a7987828801612c77565b91505092959194509250565b60008060408385031215613a9857600080fd5b600083013567ffffffffffffffff811115613ab257600080fd5b613abe85828601612c77565b925050602083013567ffffffffffffffff811115613adb57600080fd5b613ae785828601612c77565b9150509250929050565b600080600080600060a08688031215613b0957600080fd5b600086013567ffffffffffffffff811115613b2357600080fd5b613b2f88828901612c77565b955050602086013567ffffffffffffffff811115613b4c57600080fd5b613b5888828901612c77565b9450506040613b6988828901612be4565b935050606086013567ffffffffffffffff811115613b8657600080fd5b613b9288828901612c77565b9250506080613ba388828901612c23565b9150509295509295909350565b60008060008060008060c08789031215613bc957600080fd5b600087013567ffffffffffffffff811115613be357600080fd5b613bef89828a01612c77565b965050602087013567ffffffffffffffff811115613c0c57600080fd5b613c1889828a01612c77565b9550506040613c2989828a01612be4565b945050606087013567ffffffffffffffff811115613c4657600080fd5b613c5289828a01612c77565b9350506080613c6389828a01612c23565b92505060a087013567ffffffffffffffff811115613c8057600080fd5b613c8c89828a01612c77565b9150509295509295509295565b60008060008060808587031215613caf57600080fd5b600085013567ffffffffffffffff811115613cc957600080fd5b613cd587828801612c77565b945050602085013567ffffffffffffffff811115613cf257600080fd5b613cfe87828801612c77565b9350506040613d0f87828801612c4d565b925050606085013567ffffffffffffffff811115613d2c57600080fd5b613d3887828801612c77565b91505092959194509250565b600080600060608486031215613d5957600080fd5b600084013567ffffffffffffffff811115613d7357600080fd5b613d7f86828701612c77565b935050602084013567ffffffffffffffff811115613d9c57600080fd5b613da886828701612c77565b925050604084013567ffffffffffffffff811115613dc557600080fd5b613dd186828701612c77565b9150509250925092565b60008060008060808587031215613df157600080fd5b600085013567ffffffffffffffff811115613e0b57600080fd5b613e1787828801612c77565b945050602085013567ffffffffffffffff811115613e3457600080fd5b613e4087828801612c77565b935050604085013567ffffffffffffffff811115613e5d57600080fd5b613e6987828801612c77565b9250506060613e7a87828801612c23565b91505092959194509250565b60008060008060008060c08789031215613e9f57600080fd5b600087013567ffffffffffffffff811115613eb957600080fd5b613ec589828a01612c77565b965050602087013567ffffffffffffffff811115613ee257600080fd5b613eee89828a01612c77565b955050604087013567ffffffffffffffff811115613f0b57600080fd5b613f1789828a01612c77565b9450506060613f2889828a01613555565b935050608087013567ffffffffffffffff811115613f4557600080fd5b613f5189828a01612c77565b92505060a0613f6289828a01612b66565b9150509295509295509295565b60008060008060008060c08789031215613f8857600080fd5b600087013567ffffffffffffffff811115613fa257600080fd5b613fae89828a01612c77565b965050602087013567ffffffffffffffff811115613fcb57600080fd5b613fd789828a01612c77565b9550506040613fe889828a01613555565b9450506060613ff989828a01612bba565b935050608087013567ffffffffffffffff81111561401657600080fd5b61402289828a01612c77565b92505060a061403389828a01612b66565b9150509295509295509295565b60006020828403121561405257600080fd5b600082015167ffffffffffffffff81111561406c57600080fd5b61407884828501612ccb565b91505092915050565b60006020828403121561409357600080fd5b600082015167ffffffffffffffff8111156140ad57600080fd5b6140b984828501612e77565b91505092915050565b6000602082840312156140d457600080fd5b600082015167ffffffffffffffff8111156140ee57600080fd5b6140fa84828501613011565b91505092915050565b60006020828403121561411557600080fd5b600082015167ffffffffffffffff81111561412f57600080fd5b61413b84828501613111565b91505092915050565b60006020828403121561415657600080fd5b600082015167ffffffffffffffff81111561417057600080fd5b61417c848285016132ad565b91505092915050565b60006141918383614942565b905092915050565b60006141a583836149de565b905092915050565b60006141b98383614a35565b905092915050565b60006141cd8383614ac5565b905092915050565b60006141e18383614e59565b905092915050565b60006141f58383614f4e565b905092915050565b60006142098383614fb1565b905092915050565b600061421d838361501b565b905092915050565b6000614230826159ed565b61423a8185615ab8565b93508360208202850161424c8561596d565b8060005b8581101561428857848403895281516142698582614185565b945061427483615a50565b925060208a01995050600181019050614250565b50829750879550505050505092915050565b60006142a5826159f8565b6142af8185615ac9565b9350836020820285016142c18561597d565b8060005b858110156142fd57848403895281516142de8582614199565b94506142e983615a5d565b925060208a019950506001810190506142c5565b50829750879550505050505092915050565b600061431a826159f8565b6143248185615ada565b9350836020820285016143368561597d565b8060005b8581101561437257848403895281516143538582614199565b945061435e83615a5d565b925060208a0199505060018101905061433a565b50829750879550505050505092915050565b600061438f82615a03565b6143998185615aeb565b9350836020820285016143ab8561598d565b8060005b858110156143e757848403895281516143c885826141ad565b94506143d383615a6a565b925060208a019950506001810190506143af565b50829750879550505050505092915050565b600061440482615a03565b61440e8185615afc565b9350836020820285016144208561598d565b8060005b8581101561445c578484038952815161443d85826141ad565b945061444883615a6a565b925060208a01995050600181019050614424565b50829750879550505050505092915050565b600061447982615a0e565b6144838185615b0d565b9350836020820285016144958561599d565b8060005b858110156144d157848403895281516144b285826141c1565b94506144bd83615a77565b925060208a01995050600181019050614499565b50829750879550505050505092915050565b60006144ee82615a0e565b6144f88185615b1e565b93508360208202850161450a8561599d565b8060005b85811015614546578484038952815161452785826141c1565b945061453283615a77565b925060208a0199505060018101905061450e565b50829750879550505050505092915050565b600061456382615a19565b61456d8185615b2f565b93508360208202850161457f856159ad565b8060005b858110156145bb578484038952815161459c85826141d5565b94506145a783615a84565b925060208a01995050600181019050614583565b50829750879550505050505092915050565b60006145d882615a19565b6145e28185615b40565b9350836020820285016145f4856159ad565b8060005b85811015614630578484038952815161461185826141d5565b945061461c83615a84565b925060208a019950506001810190506145f8565b50829750879550505050505092915050565b600061464d82615a24565b6146578185615b51565b935083602082028501614669856159bd565b8060005b858110156146a5578484038952815161468685826141e9565b945061469183615a91565b925060208a0199505060018101905061466d565b50829750879550505050505092915050565b60006146c282615a2f565b6146cc8185615b62565b9350836020820285016146de856159cd565b8060005b8581101561471a57848403895281516146fb85826141fd565b945061470683615a9e565b925060208a019950506001810190506146e2565b50829750879550505050505092915050565b600061473782615a2f565b6147418185615b73565b935083602082028501614753856159cd565b8060005b8581101561478f578484038952815161477085826141fd565b945061477b83615a9e565b925060208a01995050600181019050614757565b50829750879550505050505092915050565b60006147ac82615a3a565b6147b68185615b84565b9350836020820285016147c8856159dd565b8060005b8581101561480457848403895281516147e58582614211565b94506147f083615aab565b925060208a019950506001810190506147cc565b50829750879550505050505092915050565b61481f81615bb7565b82525050565b61482e81615bb7565b82525050565b61483d81615c56565b82525050565b61484c81615c7a565b82525050565b61485b81615c9e565b82525050565b61486a81615cc2565b82525050565b61487981615ce6565b82525050565b61488881615d0a565b82525050565b61489781615d2e565b82525050565b6148a681615d2e565b82525050565b6148b581615d40565b82525050565b6148c481615d40565b82525050565b6148d381615d52565b82525050565b6148e281615d52565b82525050565b6148f181615d64565b82525050565b61490081615d64565b82525050565b61490f81615d76565b82525050565b61491e81615d76565b82525050565b61492d81615c22565b82525050565b61493c81615c22565b82525050565b600061494d82615a45565b6149578185615b95565b9350614967818560208601615d97565b61497081615e28565b840191505092915050565b600061498682615a45565b6149908185615ba6565b93506149a0818560208601615d97565b6149a981615e28565b840191505092915050565b600060208301600083015184820360008601526149d1828261501b565b9150508091505092915050565b600060608301600083015184820360008601526149fb8282614942565b9150506020830151614a106020860182614924565b5060408301518482036040860152614a288282614642565b9150508091505092915050565b600060c083016000830151614a4d6000860182614924565b506020830151614a606020860182614924565b506040830151614a736040860182614924565b5060608301518482036060860152614a8b8282614942565b91505060808301518482036080860152614aa58282614942565b91505060a0830151614aba60a086018261509f565b508091505092915050565b6000610140830160008301518482036000860152614ae38282614942565b9150506020830151614af8602086018261488e565b5060408301518482036040860152614b108282614942565b91505060608301518482036060860152614b2a8282614942565b91505060808301518482036080860152614b448282614942565b91505060a083015184820360a0860152614b5e8282614942565b91505060c083015184820360c0860152614b788282614942565b91505060e083015184820360e0860152614b928282614942565b915050610100830151614ba9610100860182614816565b50610120830151614bbe61012086018261509f565b508091505092915050565b6000610140830160008301518482036000860152614be78282614942565b9150506020830151614bfc602086018261488e565b5060408301518482036040860152614c148282614942565b91505060608301518482036060860152614c2e8282614942565b91505060808301518482036080860152614c488282614942565b91505060a083015184820360a0860152614c628282614942565b91505060c083015184820360c0860152614c7c8282614942565b91505060e083015184820360e0860152614c968282614942565b915050610100830151614cad610100860182614816565b50610120830151614cc261012086018261509f565b508091505092915050565b600060a0830160008301518482036000860152614cea828261501b565b91505060208301518482036020860152614d04828261446e565b91505060408301518482036040860152614d1e8282614d5f565b91505060608301518482036060860152614d388282614558565b91505060808301518482036080860152614d52828261429a565b9150508091505092915050565b600060a0830160008301518482036000860152614d7c8282614942565b9150506020830151614d91602086018261509f565b506040830151614da4604086018261509f565b5060608301518482036060860152614dbc8282614942565b9150506080830151614dd16080860182614816565b508091505092915050565b600060a0830160008301518482036000860152614df98282614942565b9150506020830151614e0e602086018261509f565b506040830151614e21604086018261509f565b5060608301518482036060860152614e398282614942565b9150506080830151614e4e6080860182614816565b508091505092915050565b600060c0830160008301518482036000860152614e768282614942565b9150506020830151614e8b602086018261509f565b5060408301518482036040860152614ea38282614942565b9150506060830151614eb860608601826148ac565b5060808301518482036080860152614ed08282614942565b91505060a0830151614ee560a0860182614816565b508091505092915050565b60006060830160008301518482036000860152614f0d828261501b565b91505060208301518482036020860152614f2782826146b7565b91505060408301518482036040860152614f418282614384565b9150508091505092915050565b6000608083016000830151614f666000860182614924565b5060208301518482036020860152614f7e8282614942565b9150506040830151614f936040860182614816565b506060830151614fa6606086018261509f565b508091505092915050565b6000608083016000830151614fc960008601826148e8565b506020830151614fdc602086018261509f565b5060408301518482036040860152614ff48282614942565b9150506060830151848203606086015261500e8282614942565b9150508091505092915050565b600060a08301600083015184820360008601526150388282614942565b915050602083015184820360208601526150528282614942565b915050604083015161506760408601826148ca565b506060830151848203606086015261507f8282614942565b91505060808301516150946080860182614906565b508091505092915050565b6150a881615c4c565b82525050565b6150b781615c4c565b82525050565b600060208201905081810360008301526150d78184614225565b905092915050565b600060208201905081810360008301526150f9818461430f565b905092915050565b6000602082019050818103600083015261511b81846143f9565b905092915050565b6000602082019050818103600083015261513d81846144e3565b905092915050565b6000602082019050818103600083015261515f81846145cd565b905092915050565b60006020820190508181036000830152615181818461472c565b905092915050565b600060208201905081810360008301526151a381846147a1565b905092915050565b60006020820190506151c06000830184614825565b92915050565b60006020820190506151db6000830184614834565b92915050565b60006020820190506151f66000830184614843565b92915050565b60006020820190506152116000830184614852565b92915050565b600060208201905061522c6000830184614861565b92915050565b60006020820190506152476000830184614870565b92915050565b6000602082019050615262600083018461487f565b92915050565b600060208201905061527d60008301846148f7565b92915050565b60006020820190506152986000830184614915565b92915050565b60006020820190506152b36000830184614933565b92915050565b600060208201905081810360008301526152d3818461497b565b905092915050565b60006101208201905081810360008301526152f6818c61497b565b9050615305602083018b61489d565b8181036040830152615317818a61497b565b9050818103606083015261532b818961497b565b9050818103608083015261533f818861497b565b905081810360a0830152615353818761497b565b905081810360c0830152615367818661497b565b905081810360e083015261537b818561497b565b905061538b6101008301846150ae565b9a9950505050505050505050565b600060808201905081810360008301526153b3818761497b565b90506153c26020830186614933565b81810360408301526153d4818561497b565b905081810360608301526153e8818461497b565b905095945050505050565b6000604082019050818103600083015261540d818561497b565b90508181036020830152615421818461497b565b90509392505050565b600060a0820190508181036000830152615444818861497b565b90508181036020830152615458818761497b565b905061546760408301866148d9565b8181036060830152615479818561497b565b90506154886080830184614915565b9695505050505050565b600060c08201905081810360008301526154ac818961497b565b905081810360208301526154c0818861497b565b90506154cf60408301876148d9565b81810360608301526154e1818661497b565b90506154f06080830185614915565b81810360a0830152615502818461497b565b9050979650505050505050565b60006080820190508181036000830152615529818761497b565b9050818103602083015261553d818661497b565b905061554c6040830185614933565b818103606083015261555e818461497b565b905095945050505050565b60006060820190508181036000830152615583818661497b565b90508181036020830152615597818561497b565b905081810360408301526155ab818461497b565b9050949350505050565b600060808201905081810360008301526155cf818761497b565b905081810360208301526155e3818661497b565b905081810360408301526155f7818561497b565b90506156066060830184614915565b95945050505050565b600060c0820190508181036000830152615629818961497b565b9050818103602083015261563d818861497b565b90508181036040830152615651818761497b565b905061566060608301866150ae565b8181036080830152615672818561497b565b905061568160a0830184614825565b979650505050505050565b600060c08201905081810360008301526156a6818961497b565b905081810360208301526156ba818861497b565b90506156c960408301876150ae565b6156d660608301866148bb565b81810360808301526156e8818561497b565b90506156f760a0830184614825565b979650505050505050565b6000602082019050818103600083015261571c81846149b4565b905092915050565b6000602082019050818103600083015261573e8184614bc9565b905092915050565b600060208201905081810360008301526157608184614ccd565b905092915050565b600060208201905081810360008301526157828184614ddc565b905092915050565b600060208201905081810360008301526157a48184614ef0565b905092915050565b6000604051905081810181811067ffffffffffffffff821117156157d3576157d2615df9565b5b8060405250919050565b600067ffffffffffffffff8211156157f8576157f7615df9565b5b602082029050602081019050919050565b600067ffffffffffffffff82111561582457615823615df9565b5b602082029050602081019050919050565b600067ffffffffffffffff8211156158505761584f615df9565b5b602082029050602081019050919050565b600067ffffffffffffffff82111561587c5761587b615df9565b5b602082029050602081019050919050565b600067ffffffffffffffff8211156158a8576158a7615df9565b5b602082029050602081019050919050565b600067ffffffffffffffff8211156158d4576158d3615df9565b5b602082029050602081019050919050565b600067ffffffffffffffff821115615900576158ff615df9565b5b602082029050602081019050919050565b600067ffffffffffffffff82111561592c5761592b615df9565b5b602082029050602081019050919050565b600067ffffffffffffffff82111561595857615957615df9565b5b601f19601f8301169050602081019050919050565b6000819050602082019050919050565b6000819050602082019050919050565b6000819050602082019050919050565b6000819050602082019050919050565b6000819050602082019050919050565b6000819050602082019050919050565b6000819050602082019050919050565b6000819050602082019050919050565b600081519050919050565b600081519050919050565b600081519050919050565b600081519050919050565b600081519050919050565b600081519050919050565b600081519050919050565b600081519050919050565b600081519050919050565b6000602082019050919050565b6000602082019050919050565b6000602082019050919050565b6000602082019050919050565b6000602082019050919050565b6000602082019050919050565b6000602082019050919050565b6000602082019050919050565b600082825260208201905092915050565b600082825260208201905092915050565b600082825260208201905092915050565b600082825260208201905092915050565b600082825260208201905092915050565b600082825260208201905092915050565b600082825260208201905092915050565b600082825260208201905092915050565b600082825260208201905092915050565b600082825260208201905092915050565b600082825260208201905092915050565b600082825260208201905092915050565b600082825260208201905092915050565b600082825260208201905092915050565b600082825260208201905092915050565b60008115159050919050565b6000819050615bd182615e39565b919050565b6000819050615be482615e4d565b919050565b6000819050615bf782615e61565b919050565b6000819050615c0a82615e75565b919050565b6000819050615c1d82615e89565b919050565b6000819050919050565b600073ffffffffffffffffffffffffffffffffffffffff82169050919050565b6000819050919050565b6000615c6182615c68565b9050919050565b6000615c7382615c2c565b9050919050565b6000615c8582615c8c565b9050919050565b6000615c9782615c2c565b9050919050565b6000615ca982615cb0565b9050919050565b6000615cbb82615c2c565b9050919050565b6000615ccd82615cd4565b9050919050565b6000615cdf82615c2c565b9050919050565b6000615cf182615cf8565b9050919050565b6000615d0382615c2c565b9050919050565b6000615d1582615d1c565b9050919050565b6000615d2782615c2c565b9050919050565b6000615d3982615bc3565b9050919050565b6000615d4b82615bd6565b9050919050565b6000615d5d82615be9565b9050919050565b6000615d6f82615bfc565b9050919050565b6000615d8182615c0f565b9050919050565b82818337600083830152505050565b60005b83811015615db5578082015181840152602081019050615d9a565b83811115615dc4576000848401525b50505050565b7f4e487b7100000000000000000000000000000000000000000000000000000000600052602160045260246000fd5b7f4e487b7100000000000000000000000000000000000000000000000000000000600052604160045260246000fd5b6000601f19601f8301169050919050565b60038110615e4a57615e49615dca565b5b50565b60048110615e5e57615e5d615dca565b5b50565b60038110615e7257615e71615dca565b5b50565b60038110615e8657615e85615dca565b5b50565b60038110615e9a57615e99615dca565b5b50565b615ea681615bb7565b8114615eb157600080fd5b50565b60038110615ec157600080fd5b50565b60048110615ed157600080fd5b50565b60038110615ee157600080fd5b50565b60038110615ef157600080fd5b50565b60038110615f0157600080fd5b50565b615f0d81615c22565b8114615f1857600080fd5b50565b615f2481615c4c565b8114615f2f57600080fd5b5056fea26469706673582212202a6e65689c157ef2cfc31fe760132626a8e61af2727764fdc2495e5f19b3ab9f64736f6c63430008000033",
  "immutableReferences": {},
  "source": "// SPDX-License-Identifier: UNLICENSED\npragma solidity ^0.8.0;\n\nimport \"./UserManagement.sol\";\nimport \"./EmploymentManagement.sol\";\nimport \"./DocumentsManagement.sol\";\nimport \"./SkillsManagement.sol\";\nimport \"./EmployeeManagement.sol\";\nimport \"./AdminManagement.sol\";\n\ncontract VerifiedHire {\n    UserManagement public userManagement;\n    EmploymentManagement public employmentManagement;\n    DocumentsManagement public documentsManagement;\n    SkillsManagement public skillsManagement;\n    EmployeeManagement public employeeManagement;\n    AdminManagement public adminManagement;\n\n    constructor(\n        address userManagementAddress,\n        address employmentManagementAddress,\n        address documentsManagementAddress,\n        address skillsManagementAddress,\n        address employeeManagementAddress,\n        address adminManagementAddress\n    ) {\n        userManagement = UserManagement(userManagementAddress);\n        employmentManagement = EmploymentManagement(\n            employmentManagementAddress\n        );\n        documentsManagement = DocumentsManagement(documentsManagementAddress);\n        skillsManagement = SkillsManagement(skillsManagementAddress);\n        employeeManagement = EmployeeManagement(employeeManagementAddress);\n        adminManagement = AdminManagement(adminManagementAddress);\n    }\n\n    // UserManagement functions\n    function registerUser(\n        string memory name,\n        string memory email,\n        UserManagement.Gender gender,\n        string memory phone,\n        UserManagement.UserType userType,\n        string memory password\n    ) public {\n        userManagement.registerUser(\n            name,\n            email,\n            gender,\n            phone,\n            userType,\n            password\n        );\n    }\n\n    function doesUserExist(string memory email) public view returns (bool) {\n        return userManagement.doesUserExist(email);\n    }\n\n    function listAllUsers() public view returns (UserManagement.User[] memory) {\n        return userManagement.listAllUsers();\n    }\n\n    function getAdminProfile(\n        string memory email\n    ) public view returns (AdminManagement.AdminProfile memory) {\n        return adminManagement.getAdminProfile(email);\n    }\n\n    function getOrganizationProfile(\n        string memory email\n    ) public view returns (UserManagement.Profile memory) {\n        return userManagement.getUserProfile(email);\n    }\n\n    function getEmployeeProfile(\n        string memory email\n    ) public view returns (EmployeeManagement.EmployeeProfile memory) {\n        return employeeManagement.getEmployeeProfile(email);\n    }\n\n    function login(\n        string memory email,\n        string memory password,\n        string memory session_id,\n        UserManagement.UserType userType\n    ) public returns (bool) {\n        return userManagement.login(email, password, session_id, userType);\n    }\n\n    function logout(string memory session_id) public {\n        userManagement.logout(session_id);\n    }\n\n    function isSessionActive(\n        string memory session_id\n    ) public view returns (bool) {\n        return userManagement.isSessionActive(session_id);\n    }\n\n    function sessionData(\n        string memory session_id\n    ) public view returns (string memory) {\n        return userManagement.sessionData(session_id);\n    }\n\n    function updateUserDetails(\n        string memory email,\n        string memory name,\n        UserManagement.Gender gender,\n        string memory phone,\n        UserManagement.UserType userType\n    ) public {\n        userManagement.updateUserDetails(email, name, gender, phone, userType);\n    }\n\n    function changePassword(\n        string memory email,\n        string memory newPassword\n    ) public {\n        userManagement.changePassword(email, newPassword);\n    }\n\n    function deactivateUser(\n        string memory email,\n        string memory reason,\n        string memory updatedBy\n    ) public {\n        userManagement.deactivateUser(email, reason, updatedBy);\n    }\n\n    function activateUser(\n        string memory email,\n        string memory reason,\n        string memory updatedBy\n    ) public {\n        userManagement.activateUser(email, reason, updatedBy);\n    }\n\n    function getCurrentStatus(\n        string memory email\n    ) public view returns (UserManagement.UserStatus) {\n        return userManagement.getCurrentStatus(email);\n    }\n\n    function getStatusHistory(\n        string memory email\n    ) public view returns (UserManagement.StatusHistory[] memory) {\n        return userManagement.getStatusHistory(email);\n    }\n\n    function updateAddress(\n        string memory email,\n        string memory newAddress\n    ) public {\n        userManagement.updateAddress(email, newAddress);\n    }\n\n    function getCurrentAddress(\n        string memory email\n    ) public view returns (string memory) {\n        return userManagement.getCurrentAddress(email);\n    }\n\n    function updateProfilePic(\n        string memory email,\n        string memory filename\n    ) public {\n        userManagement.updateProfilePic(email, filename);\n    }\n\n    function getProfilePic(\n        string memory email\n    ) public view returns (string memory) {\n        return userManagement.getProfilePic(email);\n    }\n\n    function updateCredits(\n        string memory email,\n        int256 credits,\n        string memory txnComment,\n        string memory updatedBy\n    ) public {\n        userManagement.updateCredits(email, credits, txnComment, updatedBy);\n    }\n\n    function getUserCredits(string memory email) public view returns (int256) {\n        return userManagement.getUserCredits(email);\n    }\n\n    function getUserCreditsHistory(\n        string memory email\n    ) public view returns (UserManagement.CreditHistory[] memory) {\n        return userManagement.getCreditHistory(email);\n    }\n\n    function getUserType(\n        string memory email\n    ) public view returns (UserManagement.UserType) {\n        return userManagement.getUserType(email);\n    }\n\n    // EmploymentManagement functions\n    function joinCompany(\n        string memory email,\n        string memory organization,\n        string memory position,\n        uint256 startDate,\n        string memory comments,\n        bool isVerified\n    ) public {\n        employmentManagement.joinCompany(\n            email,\n            organization,\n            position,\n            startDate,\n            comments,\n            isVerified\n        );\n    }\n\n    function promoteEmployee(\n        string memory email,\n        string memory organization,\n        string memory newPosition,\n        uint256 date,\n        string memory comments,\n        bool isVerified\n    ) public {\n        employmentManagement.promoteEmployee(\n            email,\n            organization,\n            newPosition,\n            date,\n            comments,\n            isVerified\n        );\n    }\n\n    function endEmployment(\n        string memory email,\n        string memory organization,\n        uint256 date,\n        EmploymentManagement.Employment_Status status,\n        string memory comments,\n        bool isVerified\n    ) public {\n        employmentManagement.endEmployment(\n            email,\n            organization,\n            date,\n            status,\n            comments,\n            isVerified\n        );\n    }\n\n    function getCurrentEmployment(\n        string memory email\n    ) public view returns (EmploymentManagement.EmploymentDetails memory) {\n        return employmentManagement.getCurrentEmployment(email);\n    }\n\n    function getEmploymentHistory(\n        string memory email\n    ) public view returns (EmploymentManagement.EmploymentHistory[] memory) {\n        return employmentManagement.getEmploymentHistory(email);\n    }\n\n    // DocumentsManagement functions\n    function addDocument(\n        string memory email,\n        DocumentsManagement.DocumentTypes documentType,\n        string memory title,\n        string memory document_id,\n        string memory file_name,\n        string memory file_url,\n        string memory json_data,\n        string memory verified_by,\n        uint256 date\n    ) public {\n        documentsManagement.addDocument(\n            email,\n            documentType,\n            title,\n            document_id,\n            file_name,\n            file_url,\n            json_data,\n            verified_by,\n            date\n        );\n    }\n\n    function verifyDocument(\n        string memory email,\n        string memory documentHash,\n        string memory verified_by\n    ) public {\n        documentsManagement.verifyDocument(email, documentHash, verified_by);\n    }\n\n    function getDocument(\n        string memory email,\n        string memory documentHash\n    ) public view returns (DocumentsManagement.EmployeeDocument memory) {\n        return documentsManagement.getDocument(email, documentHash);\n    }\n\n    function getDocumentHashes(\n        string memory email\n    ) public view returns (string[] memory) {\n        return documentsManagement.getDocumentHashes(email);\n    }\n\n    function getAllDocuments(\n        string memory email\n    ) public view returns (DocumentsManagement.EmployeeDocument[] memory) {\n        return documentsManagement.getAllDocuments(email);\n    }\n\n    // SkillsManagement functions\n    function addSkill(\n        string memory email,\n        string memory skill,\n        int score,\n        string memory verified_by\n    ) public {\n        skillsManagement.addSkill(email, skill, score, verified_by); \n    }\n\n    function getSkillScore(\n        string memory email,\n        string memory skill\n    ) public view returns (int) {\n        return skillsManagement.getSkillScore(email, skill);\n    }\n\n    function getSkills(\n        string memory email\n    ) public view returns (SkillsManagement.AllSkillsResponse[] memory) {\n        return skillsManagement.getSkills(email);\n    }\n\n    // EmployeeManagement functions\n    function addAccessKey(string memory email) public {\n        employeeManagement.addAccessKey(email);\n    }\n\n    function AccessKeyIsActive(\n        string memory email,\n        string memory accessKey,\n        string memory used_by\n    ) public returns (bool) {\n        return employeeManagement.AccessKeyIsActive(email, accessKey, used_by);\n    }\n\n    function disableAccessKey(\n        string memory email,\n        string memory accessKey\n    ) public {\n        employeeManagement.disableAccessKey(email, accessKey);\n    }\n}\n",
  "sourcePath": "/Users/hchauhan/Downloads/verified-hire FastAPI/contracts/VerifiedHire.sol",
  "compiler": {
    "name": "solc",
    "version": "0.8.0+commit.c7dfd78e.Emscripten.clang"
  },
  "schemaVersion": "3.4.16",
  "updatedAt": "2024-06-03T20:18:50.765Z",
  "networkType": "ethereum",
  "devdoc": {
    "kind": "dev",
    "methods": {},
    "version": 1
  },
  "userdoc": {
    "kind": "user",
    "methods": {},
    "version": 1
  }
}